:020000040800F2
:1008000008220020A9090008B1090008B30900085E
:10081000B5090008B7090008B90900080000000080
:10082000000000000000000000000000BB090008FC
:10083000BD09000800000000BF090008A12B000846
:10084000C3090008C3090008C3090008C309000858
:10085000C3090008C3090008C3090008C309000848
:10086000C3090008C3090008C3090008C309000838
:10087000C3090008C3090008C3090008C309000828
:10088000C3090008C3090008C3090008C309000818
:10089000C3090008C3090008C3090008C309000808
:1008A000C3090008C3090008C3090008C3090008F8
:1008B000C3090008C3090008C3090008C3090008E8
:1008C000C3090008C3090008C3090008C3090008D8
:1008D000C3090008712E0008C3090008C3090008F5
:1008E000D5100008C3090008C309000800F002F889
:1008F00000F04AF80AA090E8000C82448344AAF170
:100900000107DA4501D100F03FF8AFF2090EBAE86D
:100910000F0013F0010F18BFFB1A43F00103184733
:1009200054310000743100000A4410F8014B14F0F7
:100930000F0508BF10F8015B240908BF10F8014B30
:100940006D1E05D010F8013B6D1E01F8013BF9D179
:10095000641E03D0641E01F8015BFBD19142E4D315
:10096000704700000023002400250026103A28BF0D
:1009700078C1FBD8520728BF30C148BF0B60704711
:100980001FB51FBD10B510BD00F027FA1146FFF7C7
:10099000F7FF02F0A5FE00F045FA03B4FFF7F2FFFF
:1009A00003BC00F04DFA00000948804709480047A1
:1009B000FEE7FEE7FEE7FEE7FEE7FEE7FEE7FEE70F
:1009C000FEE7FEE704480549054A064B704700006C
:1009D000ED2B0008ED08000808190020082200206F
:1009E000081A0020081A0020EFF3108072B6704732
:1009F00080F31088704730BF80F3088870474FF04D
:100A0000010080F3138802480249016000BFFEE73D
:100A10000CED00E00400FA0508B50146002000BF17
:100A20000CE00A5C02F0F002C0F10303CB5C03F0BF
:100A30000F031A430DF80020421CD0B20328F0DD4A
:100A4000002004E01DF800200A54421CD0B2032804
:100A5000F8DD08BD03784B40037043785340437082
:100A600083784B408370C3785340C3707047F8B5A8
:100A700013460022072900DC01B9F8BD012B60D123
:100A80000578C1F108060124B440641E2C408C4056
:100A90004678C1F108070125BD406D1EC5F1FF056F
:100AA0003540C1F1080635412C43E4B28DF80040D1
:100AB0004578C1F108060124B440641E2C408C40E6
:100AC0008678C1F108070125BD406D1EC5F1FF05FF
:100AD0003540C1F1080635412C43E4B28DF80140A0
:100AE0008578C1F108060124B440641E2C408C4076
:100AF000C678C1F108070125BD406D1EC5F1FF058F
:100B00003540C1F1080635412C43E4B28DF802406E
:100B1000C578C1F108060124B440641E2C408C4005
:100B20000678C1F108070125BD406D1EC5F1FF051E
:100B30003540C1F1080635412C43E4B28DF803403D
:100B400053E0022B50D1C57801248C40641E2C4008
:100B5000C1F10805AC40067801258D406D1EC5F138
:100B6000FF0535400D412C43E4B28DF80040057877
:100B700001248C40641E2C40C1F10805AC4046782D
:100B800001258D406D1EC5F1FF0535400D412C43FB
:100B9000E4B28DF80140457801248C40641E2C405D
:100BA000C1F10805AC40867801258D406D1EC5F168
:100BB000FF0535400D412C43E4B28DF802408578A5
:100BC00001248C40641E2C40C1F10805AC40C6785D
:100BD00001258D406D1EC5F1FF0535400D412C43AB
:100BE000E4B28DF8034000E047E7002204E01DF87E
:100BF00002408454541CE2B2032AF8DD00BF3CE7F3
:100C000010B504462046FFF707FF6C4802786C4891
:100C100001782046FFF72BFF6A4802786A4801787E
:100C20002046FFF717FF654842786548417820461F
:100C3000FFF71DFF2046FFF7EFFE6248427862484B
:100C400041782046FFF706FF2046FFF7E5FE5D48A6
:100C500082785D4881782046FFF7FCFE574882780D
:100C6000574881782046FFF702FF5648C278564819
:100C7000C1782046FFF7EEFE5048C2785048C17850
:100C80002046FFF7F4FE2046FFF7C6FE10BD30B544
:100C90000346002000BF07E01C5C00F00305555D23
:100CA0006C401C54441CE0B28842F5DB30BD70B58A
:100CB00004460D462946204600F092F908B9012065
:100CC00070BD0020FCE770B504460D46042229469D
:100CD0003E4802F016FD28B904223D49204602F0A4
:100CE00021FD07E004222946204602F01BFD204694
:100CF000FFF786FF70BD70B504460D4600262A46F4
:100D00002146A01D02F01AFD05F108002070022006
:100D1000607004222D49A01C02F010FD2C4A2946C7
:100D2000A01DFFF7B4FF2078801E81B2204600F09E
:100D300057F9064631122078801E21542078401E33
:100D40002654012070BDF8B504462178204600F0F5
:100D500047F908B10220F8BD25786678022E1BD12C
:100D6000A11C6846FFF7AFFFA5F10800C1B26A46B3
:100D7000A01DFFF78CFFA5F10800C1B2A01DFFF771
:100D800096FF38B1A5F10802A11D204602F0D6FC5D
:100D90000020E0E70120DEE70320DCE710B5044691
:100DA00004222146094802F0BDFC042221460848DD
:100DB00002F0B8FC0648FFF723FF10BD683A0008B0
:100DC000643A0008703A00086C3A000858010020A4
:100DD0005C010020704770477047754600F02CF8A2
:100DE000AE4605006946534620F00700854618B018
:100DF00020B5FFF7E7FDBDE820404FF000064FF0BB
:100E000000074FF000084FF0000B21F00701AC463F
:100E1000ACE8C009ACE8C009ACE8C009ACE8C0095E
:100E20008D46704710B50446AFF300802046BDE8FC
:100E30001040FFF7B2BD000000487047A418002022
:100E400001491820ABBEFEE72600020070470000F3
:100E500010B500F067FB006905490068884205D0BD
:100E600004480068BDE8104000F052BE10BD00000C
:100E7000A53CC35A9003000870B500F053FB4469C9
:100E80004FF0006505E000F053FA2168884204D075
:100E90001034D5F89003A042F5D8103C074A102131
:100EA000204601F09BF82068A0F14901142901D8DF
:100EB000C0B270BD01495320086070BD7418002095
:100EC00070B50446204D288900280DD1082C00D388
:100ED000012401F0C7FF1D4931F81410B0FBF1F2F5
:100EE00001FB1200801C28814FF40061002000F0FB
:100EF000D5FA4FF4C872002480B12C81EC80A88808
:100F0000401C80B2A880B0F57A7F05D9AC80104B28
:100F10000021032001F0AAFE002070BD2889401E98
:100F20000004000C2881F7D1E888401C80B2E880DA
:100F3000642805D9EC80064B0021032001F096FEC1
:100F40002C81AC80012070BD38010020483A000897
:100F5000352A000870B50021D0F80B401E4DC1EBBA
:100F6000C10305EB43021668A6421CD10021C47BD5
:100F70005618367AA64201D1002070BD491CC9B26C
:100F80000529F5D3517B491CC9B20524B1FBF4F600
:100F900004FB161151730822294402EB4302C07B63
:100FA0008854012070BD491CC9B21429D7D30B4BFA
:100FB0001978491CC9B21422B1FBF2F402FB1411D6
:100FC0001970C1EBC10105EB4101C27B0A72D0F877
:100FD0000B000860012070BDA00500201C0000204F
:100FE00070B5002300240022074E08E0855C5D40B8
:100FF00036F81550EBB263402C0A521C92B28A426A
:10100000F4D344EA032070BD9437000810B50549B5
:10101000054800F099FFBDE810400449044800F07D
:1010200093BF000070020020F00600209004002012
:10103000100F002006E00521491E89B20029FBD1CE
:10104000401E80B20028F6D17047000070B500F055
:1010500069F980B24FF480724FF4C07354005D00A0
:101060009600402811D080280FD090420DD0984291
:101070000BD0A04209D0A84207D0B04205D01248F8
:1010800081690068081AC0F38F20104998420DD07A
:1010900006DC40280DD080280FD0904211D105E009
:1010A000A04203D0A84201D0B0420AD1084808604B
:1010B00070BD07483038086070BD054818380860B2
:1010C00070BD0020086070BD800300083001002062
:1010D000303A000810B5044801F028F803494FF4ED
:1010E0008060086010BD0000E0060020140401408C
:1010F00070B58B088C07240F124DAE6946F00106BF
:10110000AE619D00104B2B449D680F26A640B54351
:101110009D609D68A04005439D600C4B1C680120AC
:10112000884004431C60D10704D0084B0C33196875
:1011300001431960910704D5044908310A68024344
:101140000A6070BD00100240000001400004014030
:10115000F0B5C1B006461446002E32D0FA2C30D875
:10116000224601A802F0DEFAA1B201A8FFF738FF7B
:101170000546FFF739FC074606221349304602F0C0
:1011800066FAF0B12A0A01A8611C02554A1C4554AE
:10119000D1B2FFF7B0FDA0B19DF80420FA2A10D813
:1011A00001A9304602F053FA58B1062207493046E9
:1011B00002F04DFA28B13846FFF71AFC012041B081
:1011C000F0BD0020FBE70000943900089A390008C0
:1011D00070B500F091FE1949002048708870012216
:1011E0004A71174DC1F80C51164BC1F8083101F581
:1011F000887148708A704A71134AC1F80C21134CE7
:10120000C1F8084101F588714870887002244C715A
:10121000C1F80C51C1F8083101F588714870887027
:101220004C71C1F80C210A48C1F80801BDE87040B2
:1012300005220021074B022001F018BD60010020AB
:1012400091340008891D0008F9330008ED1E0008DC
:10125000451F00080D10000870B505464FF40056F4
:10126000304600F075F880B90B4C206940F0020060
:1012700020616561206940F040002061304600F047
:1012800067F8216921F002012161002803D1BDE83E
:10129000704000F051B870BD002002400022402193
:1012A000104602F076B838B504466A460121204659
:1012B00000F008FF9DF80010491C00916A460121CA
:1012C000204602F033F838BD0122FF21014B0020F7
:1012D00000F09DBD2E01002010B50C46002804D062
:1012E000012809D0022811D109E0022001F0BCFF39
:1012F0000B4801F001FD09E000F002FC06E02AB114
:10130000134600210522084601F0B0FC002C06D04F
:10131000012C04D02046BDE81040FFF7C4BF10BD2B
:101320000D1B00080148008870470000E0F7FF1F10
:101330004FF0FF30704700000448C168890603D5AC
:101340002021C1600120704700207047002002402A
:10135000094900E0401E10B1CA68D207FAD138B17D
:10136000C86810F0140F05D01420C8600120704721
:1013700001207047002070470020024003480249C6
:1013800041600349416070472301674500200240E6
:10139000AB89EFCD2DE9F04105460C4616464FF4DA
:1013A00040584046FFF7D4FFB8B90F4F386940F0B6
:1013B000010038610BE036F8020B25F8020BA41E81
:1013C0004046FFF7C5FF20B9FFF7B6FF08B1002C74
:1013D000F1D1386920F00100386114B10020BDE876
:1013E000F0810120FBE70000002002400248016973
:1013F00041F0800101617047002002402DE9FC4767
:101400000023002400940194224C04EB8024224EFB
:10141000B769801C4FF0010808FA00F52F4202D18D
:10142000B0692843B06102F00F0C2068009060683A
:10143000019008FA03F50D421DD0D8086F465DF8FB
:1014400020905E07F60E4FF00F0A0AFA06FA29EA14
:101450000A094DF8209057F820900CFA06F649EA50
:10146000060947F82090182A02D0082A02D002E084
:10147000656100E025615B1C102BDAD311F0FF0FD2
:1014800001D000982060FF2901D901986060BDE873
:10149000FC870000000801400010024002460020C6
:1014A000034B03EB822292680A4200D0012070476E
:1014B00000080140024A02EB8020416170470000B1
:1014C00000080140024A02EB8020016170470000E1
:1014D00000080140034A02EB8020C2684A40C26013
:1014E00070470000000801400C4902280AD0032080
:1014F00088770220C87701F128000862103048621E
:101500001A38704709200870082048700448C1F84C
:1015100002001030C1F8060000487047B8060020ED
:10152000000F0020014800687047000030010020D3
:1015300070B50D461446FFF79FFC207001202870FF
:1015400070BD70B506460D461446FFF7EBFF026905
:1015500000687379012B03D0022B0FD00E2070BDD1
:101560000B212970918821800168C4F802109168CC
:10157000C4F80610007AA072012070BD1E2070BD54
:1015800070B506460C461546FFF7CCFF0169F078AA
:1015900048B1B0884A68824205D0A0F57F42FF3A40
:1015A00001D0122070BD002020708888288020780B
:1015B000801CC0B22070896829502078001D2070DE
:1015C000012070BD10B50B460D490078097888429E
:1015D00014D10C4C2078F12805D0F2280CD0002032
:1015E0002070222010BD1146184601F099FD08B167
:1015F000F2202070012010BD012010BD032010BD7D
:10160000250000202400002070B504460D46164633
:1016100000F06CFA2379F02B03D0F22B08D00E20C7
:1016200070BD324629462046BDE87040FFF789BFAD
:10163000324629462046BDE87040FFF7C3BF000090
:101640002DE9F0410C461546FFF76CFF0269016871
:101650004368002020704FF6FF7028802078801C9F
:10166000C0B22070134F1668BE4202D14FF0FF3255
:1016700000E092682A502078001DC0B220705A689D
:101680002A502078001DC0B2207051F8242B2A5017
:101690002078001D207004E02078431C23702A5419
:1016A000491C0A78A2F130002A28F5D90120BDE8AA
:1016B000F0810000A53CC35A10B50446FFF732FF85
:1016C0008168104A0868904213D14868421C10D0C3
:1016D00078B1B0F1443F0CD0B0F1883F09D00A4A4C
:1016E000904206D08968C943884202D1A04205D100
:1016F00005E006480168A14201D0006810BD002045
:1017000010BD00005A3CC3A542455354F0F7FF1FDB
:1017100070B504464FF4807529460120FFF7CAFED4
:101720000220FFF787FC69001CB10120FFF7CAFE09
:1017300002E00120FFF7BEFE0220FFF77BFC2946F6
:101740000120FFF7BFFE0220FFF774FC2946BDE829
:1017500070400120FFF7AEBE10B503221102012038
:10176000FFF74CFE4FF400710120FFF7ABFE4FF482
:1017700080710120FFF7A6FE032280210120FFF7E0
:101780003DFE8021BDE810400120FFF79BBE2DE902
:10179000F041804600244FF400771822394601209A
:1017A000FFF72CFE00257E1031460120FFF782FE58
:1017B0000220FFF73FFC31460120FFF783FE0220A5
:1017C000FFF738FC6006040E39460120FFF766FE7D
:1017D00008B1641CE4B20220FFF72CFC6D1CEDB2D2
:1017E000082DE1D331460120FFF764FE0220FFF708
:1017F00021FC032239460120FFF700FE3946012073
:10180000FFF760FE0220FFF715FC4046FFF780FF60
:101810002046BDE8F0812DE9F04105464FF4807681
:1018200031460120FFF746FE0220FFF703FC0024AB
:101830007700280604D539460120FFF743FE03E070
:1018400039460120FFF736FE6806050E0220FFF735
:10185000F1FB31460120FFF735FE0220FFF7EAFBDE
:1018600031460120FFF726FE0220FFF7E3FB641C50
:10187000E4B2082CDDD3BDE8F04100F036B870B515
:101880004FF4007421460120FFF71CFE6510294625
:101890000120FFF717FE0220FFF7CCFB21460120B5
:1018A000FFF708FE0220FFF7C5FB2946BDE87040A0
:1018B0000120FFF7FFBD10B54FF400742146012051
:1018C000FFF7F8FD0220FFF7B5FB61100120FFF7DD
:1018D000F9FD0220FFF7AEFB21460120FFF7F2FDE4
:1018E000BDE810400220FFF7A5BB2DE9F041002420
:1018F0004FF40075182229460120FFF77FFD0220D2
:10190000FFF798FB6F1039460120FFF7DBFD02203F
:10191000FFF790FB4FF4FA760FE0641CA4B2B442D8
:101920000BD9032229460120FFF768FD2946012033
:10193000FFF7C8FD0020BDE8F08129460120FFF730
:10194000ADFD0028E9D139460120FFF7B3FD0220A3
:10195000FFF770FB032229460120FFF74FFD2946C0
:101960000120FFF7AFFD0220FFF764FB0120E2E753
:1019700070B505460C46FFF782FF2846FFF74BFF80
:1019800008B9641EF7D1FFF796FF0CB1012070BDB6
:10199000002070BD2DE9F04107460E4615461C4655
:1019A000FFF76DFF3846FFF736FFF0B1300AFFF75B
:1019B00032FFD0B1F0B2FFF72EFFB0B1FFF75FFFFB
:1019C00047F00100FFF727FF38B90EE00020FFF7CE
:1019D000DEFE05F8010B641EE4B2012CF6D8641E8D
:1019E000E4B20120FFF7D3FE2870FFF764FF14B1C3
:1019F0000020BDE8F0810120FBE72DE9F04107461A
:101A00000E4615461C4680210120FFF753FDFFF7C7
:101A100036FF3846FFF7FFFE88B1300AFFF7FBFEBE
:101A200068B1F0B2FFF7F7FE38B908E015F8010B1E
:101A3000FFF7F1FE18B1641EE4B2002CF6D1FFF7F7
:101A40003AFF80210120FFF73DFD14B10020BDE8E1
:101A5000F0810120FBE72DE9F04107460D461646CF
:101A60001C4680210120FFF725FDFFF708FF3846BF
:101A7000FFF7D1FE80B1280AFFF7CDFE60B1E8B2D2
:101A8000FFF7C9FE30B907E03046FFF7C4FE18B1D2
:101A9000641EE4B2002CF7D1FFF70DFF8021012076
:101AA000FFF710FD14B10020BDE8F0810120FBE735
:101AB00010B50C4A45F255531360506091605800C0
:101AC00010604CF6CC4010600222D1020020FFF7DB
:101AD00095FC0021BDE81040034B4FF448720220F2
:101AE00001F0C4B800300040ED1A000803494AF67E
:101AF000AA20086089140020FFF7ECBC00300040E9
:101B0000014801F0F9B80000ED1A00087047000024
:101B100010B50446006806490840B0F1005F06D1E0
:101B20002068FEF769FF6068BDE81040004710BDFF
:101B30000000FE2FF0B505460F4614461E463046FF
:101B400000F018F8C6F1040085400F20F04038403E
:101B50002843000104F1E02181F8000404F01F0192
:101B6000012088406109890001F1E021C1F80001EC
:101B7000F0BD0000072181430902054A10684FF6B5
:101B8000FF031840034B18430843106070470000E0
:101B90000CED00E00000FA0510B50549054800F01D
:101BA000D3F9BDE810400449044800F0CDB9000065
:101BB00060010020E006002080030020000F0020CC
:101BC0002DE9F843044688460D266078DFF8F0904A
:101BD00000EB800009EB8000C56800270020009022
:101BE00001F0CEF96178884262D9A17828688842EC
:101BF0004FD1207802280DD004280BD0072809D017
:101C0000092807D005282CD00B282AD00D2828D049
:101C10000C264DE0A86810B360782A4901EBC0009B
:101C2000807998B1E278611CD21CA01C01F086FD7D
:101C300084F80180A968601C884706460322A11C1D
:101C4000601C01F07BFD022E02D031E009262FE05E
:101C50002868CF2800D90126E078009028E00A26DD
:101C600026E0E86898B1E278611CD21CA01C01F063
:101C700065FD84F80180621DEB686946601C984729
:101C800006460322A11C601C01F058FD10E00B2643
:101C90000EE0607800EB800009EB8000006980476F
:101CA0007F1CFFB2B84203D955F8100FFF289CD90A
:101CB0009DF80000401CE07026713046BDE8F883B6
:101CC000503A00085001002070B504460846FFF75E
:101CD0000BFC054601202070184E3068C4F8010046
:101CE0007068E060D4F806007168884202D06079BC
:101CF00001280CD9227DD5F8020015322146FFF7C4
:101D000027FA20B9297800220220FFF7E5FAD4F853
:101D10000600716888420FD0227DD5F80600153282
:101D20002146FFF715FA002806D16978BDE8704012
:101D300000220220FFF7D0BA70BD000084180020F6
:101D400070B5C0B00E46154601AC01461022601CAD
:101D500001F0E8FC0B49487A401C48728DF81400E9
:101D60000422314604F1110001F0DCFCF27829462E
:101D70000DF1190001F0D6FC01212046FFF7A4FF68
:101D800040B070BD84180020F8B50E4610F8015C14
:101D9000841D00F11B0104F1110300911F46621C18
:101DA000314600F069F801281ED129463846FFF770
:101DB00007FF0246032A17D0607C02280DD00528B1
:101DC0000BD0072801D00B2801D1012A05D0092802
:101DD00001D00D2808D1012A06D000F007F8607460
:101DE00029462046FFF770FF0120F8BD801E0C2811
:101DF0000BD2DFE800F0060A0A080A060A060A08FB
:101E00000A0803207047062070470020704710B56D
:101E100090B0144601228DF800208DF801008DF855
:101E200002108DF803402246194601A801F07AFC01
:101E3000241D0021E2B26B46084600F002F810B003
:101E400010BD10B586B001248DF80C404FF08834D9
:101E5000CDF80D400024ADF811408DF804408DF808
:101E600005008DF806108DF807201A4601A902A872
:101E7000FFF766FF06B010BD70B51446184D206818
:101E80002968884206D0174A904203D0491C01D0E5
:101E9000042070BD2046FFF75DF830B1207912496B
:101EA000012804D005280CD00EE0082070BDD4F81D
:101EB00005006A68904201D0062070BD002048608D
:101EC00007E0D4F8050008B10D2070BDD4F80B0070
:101ED0004860D4F80B00C4F80500012070BD000074
:101EE00084180020424553541C0000200C39C9B20C
:101EF000801D00F07BBD000010B50E494FF48064DA
:101F00002246A1F1200001F0F2FA0B492246A1F588
:101F1000826001F0ECFA09492246A1F1200001F0AB
:101F2000E6FA22460649BDE81040A1F5826001F0BC
:101F3000DEBA000000070020000B0020200F002068
:101F40002013002000F0F4BF70B50C460025617826
:101F5000002902D0012922D10EE00146D4F80C213B
:101F6000A01D904710F0FF00207014D02571A078BC
:101F7000012811D00120E070D4F8083122792178AD
:101F8000A01D984728B1E078401E10F0FF00E070D7
:101F900005D00120607070BD0248007AEBE76570E3
:101FA00070BD00008418002070B505460C46FFF790
:101FB000E5F94FF4806603E0A4F5806405F58065DB
:101FC0002846FFF749F908B1B442F5D8FFF70EFAF1
:101FD000B44201D8012070BD002070BD8B0707D02E
:101FE00021F0030141F0040102E008C808C2091F02
:101FF0000029FAD10120704770B505460C461646F7
:10200000E10700D0641CFFF7B9F9324621462846A3
:10201000FFF7C0F90446FFF7E9F9204670BD00005C
:1020200010B5244A516801F00C01234B042926D035
:10203000082926D00360516801F0F00109091F4BFF
:102040005B5C0168D9404160536803F4E0631B0A9C
:102050001A4C083CE35C21FA03F38360536803F4F1
:102060006053DB0AE35CD940C160526802F440422D
:10207000920B231F9A5CB1FBF2F1016110BD03606A
:10208000D9E7516801F47011536803F480330224D6
:1020900004EB914133B153689B0307D5084B594377
:1020A0000160C8E7064B59430160C4E7024B59433E
:1020B0000160C0E70010024000127A000C0000200E
:1020C00000093D002DE9F04105460C46174620E089
:1020D000B5F5004F03D247F69C70844202D9002028
:1020E000BDE8F08105F03F00C0F14006A64200D3F4
:1020F0002646F3B2A9B23A46A020FFF74BFC50B1F6
:102100003544A41B37444FF0FF31A020FFF730FCCB
:1021100008B1002CDCD134B1002211461046FFF783
:10212000DBF80020DCE70120DAE700002DE9F04FC2
:1021300091B0834600253227A946424E4FF4806A6B
:1021400071E028466D1CEDB2052805D9052000F088
:10215000A5FA86F801906CE00021032000F042F916
:1021600080460021042000F03DF95FEAC87002D0EB
:1021700086F801905DE05FEAC86019D5707810B903
:10218000584601F0A7FA002400217F2000F02AF928
:102190000146584601F040FA641CE4B2322CF3D3F5
:1021A0007078CD2802D986F8019042E03230707004
:1021B0005FEA887037D500214B2000F013F9044600
:1021C0000DF104080DE000217F2000F00BF901461D
:1021D0007078B0FBF7F207FB120208F80210401CFF
:1021E00070707078A042EED3322C02D8584601F0BD
:1021F00071FAB4FBF7F007FB104020B1B4FBF7F025
:1022000007FB104200E0322201A9584601F01FFAF4
:10221000584601F0B9FA86F8019020B9002203214E
:102220000220FFF759F851460120FFF737F900283F
:1022300087D07078002801D100F0EAF811B0BDE82D
:10224000F08F00003801002001490120887070479C
:10225000380100202DE9F04107460D4600F026FA2E
:1022600000F000F92946BE2000F0BCF84FF4805879
:102270001BE0444603E0142001F030F9641E002105
:10228000032000F0AFF8800601D4002CF3D1002623
:1022900007E017F8011BFF2000F0A4F86D1EEDB257
:1022A000761C322E01D2002DF3D1002DE1D109216F
:1022B000872000F097F84FF4C87001F00FF902E0A2
:1022C000B8F101080ED00021032000F08BF8400780
:1022D00002D4B8F1000FF3D100F0E8F9BDE8F04105
:1022E00000F096B8042000F0D9F9F5E71E4801691E
:1022F00041F480410161016921F4804101618169FA
:1023000041F008018161C16941F48041C161174810
:102310000168C1F3130101600168154A11430160AE
:1023200012480830016841F4604101601148018899
:102330000180018841F400710180018841F48071BD
:102340000180018841F00401018001880180018839
:1023500041F01801018001880180018841F04001AD
:102360000180FF2000F008B800100240040C01407A
:102370000000B0BB0038004010B500214FF6FE73DE
:102380000E4A06E00C46491C89B29C4201D300204B
:1023900010BD1488A407F5D5084C241D208000200A
:1023A00006E00146401C80B2994201D3002010BDD6
:1023B0001188C907F5D02088C0B210BD0838004088
:1023C00000F007010648028822F0380202800288E5
:1023D00042EAC1010180018841F04001018070475B
:1023E0000038004070B506460D464FF48054214633
:1023F0000120FFF75FF83046FFF7BEFF2846FFF7E2
:10240000BBFF054621460120FFF75CF8284670BD5A
:1024100010B505218720FFF7E5FF02218E20FFF789
:10242000E1FF02218820FFF7DDFF00218820FFF770
:10243000D9FF13218520FFF7D5FF80218620FFF7E4
:10244000D1FF00210320FFF7CDFF00210420FFF77B
:10245000C9FF0348016841F48061016010BD0000BC
:102460000004014010B503218820FFF7BBFF0821BD
:102470008820FFF7B7FF0121BDE810408E20FFF74D
:10248000B1BF00000CB500220192009227480168FC
:1024900041F4803101604FF4A063016801F4003120
:1024A00000910199491C0191009911B90199994232
:1024B000F3D10168890302D50121009100E0009267
:1024C0000099012930D11A490A6842F010020A60C5
:1024D0000A6822F003020A600A6842F002020A60F7
:1024E0004168416041684160416841F480614160F8
:1024F000416821F47C114160416841F4E811416078
:10250000016841F08071016001688901FCD5416872
:1025100021F003014160416841F0020141604168DE
:10252000C1F381010229FAD10CBD00000010024064
:102530000020024010B50446E078012801D00F20A9
:1025400010BD20794938152801D30E2010BDFEF7A3
:1025500093FC01462079814209D000F087FD40B10B
:102560000021054B4FF44872084600F07FFB012024
:1025700010BD122010BD0000F926000810B5184A41
:1025800001781278914229D1164C2178F22905D090
:10259000F32921D000202070222010BD401D017998
:1025A000427951404A40427151400171818800682E
:1025B00000F04CFD012811D100F092FD70B1F32024
:1025C0002070FFF79DFA084B4FF44872012100205C
:1025D00000F04CFB012010BD012010BD032010BDF8
:1025E0002500002024000020FF09000810B5044643
:1025F000FFF77CFA0D4920780978884214D10C49FC
:102600000878F12805D0F2280CD00020087022208C
:1026100010BDE078801EC1B2A088A21DBDE81040A8
:1026200000F0A4BD012010BD032010BD2500002036
:102630002400002010B50446FFF758FA2179F1294B
:1026400003D0F32906D00E2010BD204600F0BAFDBD
:10265000C0B210BD2046BDE81040FFF78FBF10B5D7
:102660000446E078012801D1217961B178B100F008
:1026700087FC0146207981420ED900F0BBFC20790D
:1026800000F08EFC06E0022000F036FE02E00120A1
:1026900000F032FE012010BD0E2010BD0146024A9E
:1026A0000220FEF719BE0000F926000810B51148F7
:1026B000016821F48061016000218E20FFF792FE05
:1026C00001218720FFF78EFE00218520FFF78AFE7B
:1026D00000218620FFF786FE00210320FFF782FEFF
:1026E00000210420FFF77EFEBDE81040022000F02C
:1026F000E7BE00000004014010B500F049F94FF4B6
:1027000080510120FEF7DEFE4FF4006421460120D7
:10271000FEF7D8FE022000F0D3FE21460120FEF78E
:10272000C9FE322000F0CCFE00210320FFF75AFE44
:1027300000210420FFF756FE80218720FFF752FE7C
:10274000022000F0BDFE00218720FFF74BFE002194
:102750008520FFF747FE00218620FFF743FE00217A
:102760000320FFF73FFE00210420FFF73BFE792105
:102770008920FFF737FE06218A20FFF733FEEA2182
:102780008B20FFF72FFEEA218C20FFF72BFEFC2188
:102790008D20FFF727FE00218E20FFF723FE2B213F
:1027A0009C20FFF71FFE40219D20FFF71BFE0A2102
:1027B0009E20FFF717FE03219F20FFF713FE6821DD
:1027C000A020FFF70FFE0121A120FFF70BFE3A2109
:1027D000A220FFF707FE9321A320FFF703FE0221AB
:1027E000A420FFF7FFFDF621A520FFF7FBFD1D212B
:1027F000AA20FFF7F7FDAC21B020FFF7F3FD002181
:10280000B220FFF7EFFD0221B320FFF7EBFD10210F
:10281000B420FFF7E7FD2821B520FFF7E3FD2D21C8
:10282000B620FFF7DFFDD421B720FFF7DBFD002145
:10283000B820FFF7D7FD0021B920FFF7D3FD4221D3
:10284000BA20FFF7CFFD4521BB20FFF7CBFD532179
:10285000BC20FFF7C7FD5421BD20FFF7C3FD422177
:10286000BF20FFF7BFFD4521C020FFF7BBFD53216F
:10287000C120FFF7B7FD5421C220FFF7B3FDFF21B0
:10288000C320FFF7AFFDFF21C420FFF7ABFDFF2101
:10289000C520FFF7A7FDFF21C620FFF7A3FD80217C
:1028A000D820FFF79FFD6021E920FFF79BFD4E2117
:1028B000EE20FFF797FDA521EF20FFF793FD2D21D7
:1028C000F020FFF78FFD2321F120FFF78BFD0D2175
:1028D000F220FFF787FD5221F520FFF783FDFEF779
:1028E000CBFA493800EB80004006010EF920FFF7D3
:1028F00079FD0A21FA20FFF775FD0021F320FFF78B
:1029000071FD0021F420FFF76DFD6221F620FFF735
:1029100069FD0021F720FFF765FD0721ED20FFF796
:1029200061FD18480178A720FFF75CFD164B4FF4B6
:10293000C8720021032000F099F91E21FC20FFF746
:1029400051FD0C21FD20FFF74DFD3221FE20FFF748
:1029500049FD01220A211046FEF7CAFB0223282264
:1029600000211846FFF7E6F80848016821F4806165
:102970000160FFF79BFEFFF74BFDBDE81040FFF73E
:1029800063BC000038010020352A00080004014023
:1029900070B51548016821F480610160C4140222F9
:1029A00021460120FEF72AFD0222D1020120FEF776
:1029B00025FD0422150229460120FEF71FFD0422F1
:1029C00021460020FEF71AFD29460120FEF77AFD78
:1029D00021460020FEF776FDFFF788FCBDE8704039
:1029E0000420FFF7EDBC0000000401402DE9F04198
:1029F00006460F4615460D4CA078012813D12846EF
:102A0000FEF75EFA78B10020A0700021084BC822C2
:102A1000084600F02BF92A4639463046FFF71AFCE3
:102A20000120BDE8F0810020FBE700003801002014
:102A30004922000870B500212620FFF7D3FC324B55
:102A40001978814201D2421A00E00A1A2E4C002560
:102A50000A3C082A36DA400800EB5100C0B2187070
:102A6000D978491CC9B2D97014293FD9A0F10A01FB
:102A7000D32924D21430C1B22170A720FFF7B2FCB1
:102A80006069C8B100F0EEF96169884204D200F0D3
:102A9000E9F96169081A03E000F0E4F96169401A94
:102AA0001A49884204D20420FFF7F8FD656106E068
:102AB00000F0D8F9606102E000F0D4F960612561AE
:102AC000002070BD5978814201D2411A00E0091AF4
:102AD000322909DA9978491CC9B29970042905D9B3
:102AE0001870DD709D7001E058709D702069401C69
:102AF0002061B0F5167F05D925610420FFF7CEFDD2
:102B0000002070BD012070BD42010020A0680600B9
:102B100010B500F0BFFB002207210220FEF7DCFB0E
:102B20000021054B4FF47A72084600F09FF8BDE88B
:102B300010400248FEF732B98D3200088818002094
:102B400070B50D4C4FF0FF3020600020FEF7B4FD53
:102B5000606002202072002565721422002104F1B9
:102B60000A0000F008FEA5772246BDE870401F214C
:102B7000402000F0DBBB00008418002010B500F0FE
:102B800021F8FEF7E9FDFFF7B7FD4FF4165000F00E
:102B900089F9BDE810404FF4FA610520FEF788BFBF
:102BA000064A10680649B0FBF1F301FB1300106000
:102BB0001068401C106000F003B9000034010020D0
:102BC0000084D71700B585B06846FFF729FA019849
:102BD0004FF47A71B0FBF1F14FF0E020491E4161F2
:102BE0000721016105B000BD0620704710B50F48F0
:102BF000016841F00101016041680D4A11404160E6
:102C000001680C4A11400160016821F480210160D3
:102C1000416821F4FE0141604FF41F018160FFF71C
:102C200031FC054805490068086010BD00100240ED
:102C30000000FFF8FFFFF6FE8803000808ED00E043
:102C400010B5064B06E0044603EB0414401C24694F
:102C5000944202D08842F6D3002010BD20170020F5
:102C60000149002008607047201700202DE9F04737
:102C700006460F46144699464FF001081D4D288818
:102C800069880144142902D30220BDE8F0874A462E
:102C90000020FFF7D5FF98B1484600F0AFF828882C
:102CA00069884A4601440020FFF7CAFF401E4FF0E2
:102CB000030805EB00100671C0F8109086B112E011
:102CC00068880201288805EB0011401C05EB001004
:102CD000091D001D00F032FD2888411C2980E8E70D
:102CE00004B90124012700214171C7808460C160BB
:102CF0004046CAE72017002010B50F4C02460020BE
:102D0000218863881944FFF79BFF002812D021888F
:102D10006288114481420AD9091A0A0104EB0011A0
:102D2000401E04EB0010091D001D00F007FD208867
:102D3000401E208010BD0000201700202DE9F0412A
:102D40001E4F3C1D13E0607880B1FDF74DFE064636
:102D5000E56800206070217889B1012911D002292D
:102D60001BD003291ED03046FDF742FE10343888B0
:102D700007EB0010001DA042E5D8BDE8F08101205E
:102D800060706088411E618007D22846FFF7B4FF5B
:102D9000103C3046FDF72CFEE8E73046FDF728FEF4
:102DA000A847E3E73046FDF723FEA8470028DDD11A
:102DB0002846FFF7A1FF103CD8E7000020170020AD
:102DC00070B5FDF711FE0C4B191D0024012508E01C
:102DD0008A68521C8A604E68B24201D38C604D7082
:102DE00010311A8803EB0212121D8A42F0D8BDE896
:102DF0007040FDF7FDBD0000201700207FB50246A2
:102E0000174D288869880144FFF71AFF0446002CF3
:102E100025D02888201A01281BD9601E05EB001137
:102E2000091D1022684600F07DFC2888211A0A013D
:102E300005EB0011401C05EB0010091D001D00F002
:102E40007DFC2888102205EB0010001D694600F06B
:102E500069FC2888401C28806888401E68807FBDE7
:102E6000201700200148006870470000340100204E
:102E700010B50A48008880060ED5FDF7B5FD04465A
:102E80000649091D09880648C9B200F0C5FB20465D
:102E9000BDE81040FDF7ACBD10BD0000003801409A
:102EA000000F002010B586B0044601A8FFF7B8F85F
:102EB0001C49C86840F48040C860C86820F480405D
:102EC000C860886940F004008861886940F48040E7
:102ED00088611549086820F47F600860086840F43C
:102EE0000B60086004981149B0FBF4F00880081DDD
:102EF000018842F20C0211430180018841F4807183
:102F00000180018841F02001018008494FF6BF701F
:102F1000083908800321022325220846FEF70AFE0D
:102F200006B010BD001002400408014008380140FE
:102F300070B505460C4604E015F8010B00F008F8E2
:102F400020B1641EE4B2F7D2012070BD002070BD34
:102F500010B5002144F62062084B00E0491C1C8893
:102F6000640601D49142F9D3914204D20349091D68
:102F70000880012010BD002010BD00000038014075
:102F80000120704710B5002404E0204600F008F846
:102F9000641CE4B2FFF7F4FFA042F6D810BD0000B5
:102FA000044900EB800201EB82014968002900D04E
:102FB00008477047503A000870B504460E46802511
:102FC00006E006EBC40205EB04100821FFF77AF8CF
:102FD000641EE4B2F5D270BD10B5002404E02046B2
:102FE00000F008F8641CE4B2FFF7CAFFA042F6D86C
:102FF00010BD0000084A4FF0FF3142F8301002EBDC
:10300000C0020021918001239371D171802101EBD5
:103010000010082100F08AB95001002070B5012489
:1030200008490120FFF7C8FF074D08E0641EE4B21D
:1030300004EB840055F8201009B120468847002C85
:10304000F4D170BD50010020503A000810B50C4674
:1030500081B205480068FDF7C3FF201A80B208B1AD
:10306000002010BD012010BD900300082DE9F041A3
:103070000746FEF757FA05466C69DFF86080C8F826
:1030800000704FF0006612E0FEF752F921688842A6
:1030900006D12046BDE8F041104A0421FEF7ACBF3E
:1030A00008F104020C21201DFEF798FF1034D6F819
:1030B0009003A042E8D8094A1021103A2869FEF787
:1030C0008DFFD6F890132869091AFEF76DFF034AA1
:1030D0001021103A2869FEF78FFFCAE77418002004
:1030E00070B5FEF71FFA0446FDF7C6FE0546FEF76B
:1030F0001FF90A4908604FF00060D0F8901320696A
:10310000091AFEF751FF054A10212069FEF774FFE6
:103110002846BDE87040FFF7A9BF000064180020F2
:10312000F0B50022002303700F4C012513E0530972
:1031300004EB830302F01F07D3F8076005FA07F3D7
:103140001E4207D121F8022B03789B1CDBB20370CF
:10315000642B03D8521CA3889342E8D8007808B1A6
:103160000020F0BD0120F0BD260000202DE9F04137
:10317000134B9C88641E844201D3C82902D90020C5
:10318000BDE8F081440903EB840400F01F07D4F884
:1031900007600125BD402E420DD14FF000669B799E
:1031A000D6F8906300FB0360FEF726FF28B154F8C1
:1031B000070F284320600120E2E70020E0E700003D
:1031C0002600002070B54179012901D01E2070BD74
:1031D000134C01786170A11CC2880B685A600B689F
:1031E0008268DA600B68D0F80D209A60007B8871E5
:1031F0000A68D268B2FBF0F3B2FBF0F500FB1520D1
:1032000008B1012000E00020184488800448801C98
:1032100000F008F80128DAD1F1202070012070BDFB
:103220002400002070B50446A079800701D0212039
:1032300070BD4FF00065D5F89013D5F89403401A8F
:103240002168C968814201D9202070BD4FF4807285
:103250000021E01D00F08FFA2068C168D5F89003C6
:10326000BDE87040FEF7A0BE06490870012805D0F1
:1032700005220021044B0846FFF7F8BC4FF47A7290
:10328000F7E700002E010020C91200080020FFF718
:10329000EBBF000010B5164A1F214020FEF712FFB9
:1032A00013484068FEF708FA124CB8B1AFF21B039E
:1032B000002132220846FFF7D9FC2078401CC0B21A
:1032C0002070032813D9AFF23300FFF715FDFDF787
:1032D000E5FFBDE81040012000F00EB8207800287E
:1032E00005D000202070BDE81040FFF797BE10BD4C
:1032F000841800202D0100201CB5044609A106C930
:10330000CDE90012FFF71CFCFFF766FEFFF73AFE5F
:10331000022C02D16846FFF70DF90120FFF7A4FF48
:103320001CBD00000100F801530000002DE9F04130
:1033300005460C46174620E0B5F5004F03D247F688
:103340009C70844202D90020BDE8F08105F03F0066
:10335000C0F14006A64200D32646F3B2A9B23A46CF
:10336000A020FEF74AFB50B13544A41B37446FF050
:103370007041A020FEF7FCFA08B1002CDCD134B17A
:10338000002211461046FDF7A7FF0020DCE70120D0
:10339000DAE72DE9F04105460C4617461FE0B5F582
:1033A000004F03D247F69C70844202D90020BDE84A
:1033B000F08105F03F00C0F14006A64200D326464A
:1033C000F3B2A9B23A46A020FEF745FB48B1354416
:1033D000A41B6FF07041A020FEF7CAFA08B1002CC0
:1033E000DDD134B1002211461046FDF775FF0020F3
:1033F000DDE70120DBE7000070B506460C46002C37
:1034000040D0204600F05BF906283BD906221E4931
:10341000204600F09AF8A060204600F08EF80128BF
:1034200030D0A0686168801DB0FBF1F201FB120092
:1034300021680D5C012D1DD90C35FA2D1AD82046B6
:1034400000F03DF9A8421DD3A168A81F0844616897
:103450000623B0FBF1F201FB12010C4A204600F0FA
:1034600051F838B12A463146204600F0A2F848B15A
:10347000284670BDA0686168801DB0FBF1F201FBB9
:103480001200A060002070BD943900089A3900082D
:1034900070B505462846FFF7AFFF04465CB1A81D8E
:1034A000FDF751FC38B9AC7E1D34281906220349BA
:1034B00000F038F9A41D204670BD00009A390008BC
:1034C00070B5044640F2E63504E0FEF70FFB2846EF
:1034D00000F004F8641E601CF7D170BD03E00A21FF
:1034E000491E0029FCD1401E411CF8D1704700281C
:1034F00006D0016042600021C160816001207047F8
:1035000000207047F0B50768002F02D00AB10024F0
:103510000FE00020F0BD46680D19B5FBF6FC06FB78
:103520001C5512F8016B7D5DB54201D00020F0BD45
:10353000641C9C42EFD30120F0BDD0E9021081420F
:1035400001D10120704700207047F0B5002806D057
:1035500029B122B184680023C668456812E00020C2
:10356000F0BD076811F803C03F5D674504D15B1CDF
:10357000934202D15B1E07E00023641CB4FBF5F705
:1035800005FB1744A642ECD12819C01AB0FBF5F18F
:1035900005FB1100F0BDC1684268491CB1FBF2F3A4
:1035A00002FB13118068814201D101207047002085
:1035B00070472DE9F04104460F461546002C0CD00B
:1035C0002046FFF7BAFF012809D0204600F077F81F
:1035D000A84206D20020BDE8F0810020FBE70020D1
:1035E000F9E7D4E901100E1AAE4200D32E46216845
:1035F00032460144384600F095F8AA1BB8192168F4
:1036000000F090F8A06861682844B0FBF1F201FB7B
:103610001200A0600120DEE770B504460D46002CC4
:1036200011D02046FFF7B7FF01280ED0E1682068CF
:103630004554E0686168401CB0FBF1F201FB1200E8
:10364000E060012070BD002070BD002070BD2DE93C
:10365000F04104460F461546002C07D0204600F0E6
:1036600022F8A84204D20020BDE8F0810020FBE748
:103670006168E0680E1AAE4200D32E4621683246D9
:103680000844394600F04EF8AA1BB919206800F02A
:1036900049F8E06861682844B0FBF1F201FB1200D0
:1036A000E0600120E0E7D0E90212914202D9881AD5
:1036B000401E704740680844801A401E7047D0E999
:1036C0000221914203D240680844801A7047881A48
:1036D0007047000006220149FFF7B9BF943900087E
:1036E000FDF7B4FCFDF7B4FBFFF7BAFAFFF746FAB3
:1036F000FDF76EFDFFF792FCFEF74EFAFFF71EFB9B
:10370000FAE710B588420BD052B110F8013B11F81E
:10371000014BA34201D0012010BD521E002AF4D15A
:10372000002010BD884208D0002A06D011F8013BC5
:1037300000F8013B521E002AF8D1704788420AD295
:10374000002A07D011F8013B00F8013BA2F1010269
:10375000002AF7D17047FDD900EB020301EB02000C
:10376000002AF7D010F8011D03F8011DA2F1010293
:10377000002AF7D17047002A04D000F8011B521E1E
:10378000002AFAD17047000006220149FFF75FBF07
:103790009A3900080000C1C081C1400101C3C003C3
:1037A000800241C201C6C006800741C70005C1C5ED
:1037B00081C4400401CCC00C800D41CD000FC1CFAD
:1037C00081CE400E000AC1CA81CB400B01C9C0099D
:1037D000800841C801D8C018801941D9001BC1DB3D
:1037E00081DA401A001EC1DE81DF401F01DDC01DED
:1037F000801C41DC0014C1D481D5401501D7C0170D
:10380000801641D601D2C012801341D30011C1D11C
:1038100081D0401001F0C030803141F10033C1F35C
:1038200081F240320036C1F681F7403701F5C035EC
:10383000803441F4003CC1FC81FD403D01FFC03FAC
:10384000803E41FE01FAC03A803B41FB0039C1F99C
:1038500081F840380028C1E881E9402901EBC02BFC
:10386000802A41EA01EEC02E802F41EF002DC1EDEC
:1038700081EC402C01E4C024802541E50027C1E70C
:1038800081E640260022C1E281E3402301E1C0211C
:10389000802041E001A0C060806141A10063C1A31C
:1038A00081A240620066C1A681A7406701A5C065EC
:1038B000806441A4006CC1AC81AD406D01AFC06FAC
:1038C000806E41AE01AAC06A806B41AB0069C1A99C
:1038D00081A840680078C1B881B9407901BBC07B3C
:1038E000807A41BA01BEC07E807F41BF007DC1BDEC
:1038F00081BC407C01B4C074807541B50077C1B70C
:1039000081B640760072C1B281B3407301B1C0711B
:10391000807041B00050C190819140510193C053DB
:10392000805241920196C056805741970055C195EB
:1039300081944054019CC05C805D419D005FC19FAB
:10394000819E405E005AC19A819B405B0199C0599B
:10395000805841980188C04880494189004BC18BFB
:10396000818A404A004EC18E818F404F018DC04DEB
:10397000804C418C0044C184818540450187C0470B
:10398000804641860182C042804341830041C1811B
:1039900081804040F1F1F1F2F1F1F2F2F2F1F2F254
:1039A000C0000000000000000000000081150008B9
:1039B000C1000000000000000000000041160008E7
:1039C000C9000000000000005F26000800000000A1
:1039D000F400000000000000352600080916000869
:1039E000F500000000000000ED25000800000000C8
:1039F000F80000000000000035250008311500081F
:103A0000F002000800040008300400083C0400082C
:103A10000050000840500008F002000800040008B0
:103A2000300400083C040008006000084060000802
:103A3000F002000800080008300800083C080008F0
:103A40000068000840680008050005000500050042
:103A5000112B00080000000000000000A039000841
:103A6000E92B0008040302070202010254F139CDD8
:103A7000E3A3A432943A0008000000206001000093
:103A800028090008B43A000860010020A8200000BE
:103A9000640900085502040608950102030499010F
:103AA0000203040607080907FFEF0164180020015C
:043AB000110228A037
:04000005080008EDFA
:00000001FF
