:020000040800F2
:1064000058360020556800085D6800089F8800081D
:106410006168000863680008656800080000000003
:106420000000000000000000000000006768000895
:1064300069680008000000006B680008577F0008CA
:106440006F6800086F6800086F6800086F680008D0
:106450006F6800086F6800086F6800086F680008C0
:106460006F6800086F6800086F6800086F680008B0
:106470006F6800086F6800086F6800086F680008A0
:106480006F6800086F6800086F6800086F68000890
:106490006F6800086F6800086F680008A78C000824
:1064A0006F6800086F6800086F6800086F68000870
:1064B0006F6800086F6800086F6800086F68000860
:1064C0006F6800086F6800086F6800086F68000850
:1064D0006F6800086F680008F78700086F68000899
:1064E0002D7A00086F6800086F68000800F002F855
:1064F00000F04AF80AA090E8000C82448344AAF114
:106500000107DA4501D100F03FF8AFF2090EBAE811
:106510000F0013F0010F18BFFB1A43F001031847D7
:1065200038B0000058B000000A4410F8014B14F0D5
:106530000F0508BF10F8015B240908BF10F8014BD4
:106540006D1E05D010F8013B6D1E01F8013BF9D11D
:10655000641E03D0641E01F8015BFBD19142E4D3B9
:10656000704700000023002400250026103A28BFB1
:1065700078C1FBD8520728BF30C148BF0B607047B5
:106580001FB51FBD10B510BD0AF014F91146FFF775
:10659000F7FF01F043FD0AF032F903B4FFF7F2FF11
:1065A00003BC0AF039F9000072B6704762B6704752
:1065B00080F30888704780F310887047EFF31080ED
:1065C00072B670470CB500200190009098480068A2
:1065D00040F480309649086000BF9548006800F498
:1065E000003000900198401C0190009818B9019863
:1065F000B0F5A06FF1D18E48006800F4003010B102
:106600000120009001E0002000900098012844D172
:106610008848006840F01000864908600846006815
:1066200020F0030008600846006840F0020008609F
:106630007F4840687E494860084640684860084690
:10664000406840F4806048600846406820F47C1050
:1066500048600846406840F4E81048600846006812
:1066600040F08070086000BF7148006800F0007062
:106670000028F9D06E48406820F003006C4948605B
:106680000846406840F00200486000BF6848406823
:1066900000F00C000828F9D159E06648006840F085
:1066A0001000644908600846006820F00300086094
:1066B0000846006840F0020008605D4840685C4998
:1066C00048600846406848600846406840F480607A
:1066D00048600846006820F480300860084600687A
:1066E00040F00100086000BF5148006808B901206F
:1066F00000E0002000F002000028F5D14C4840687E
:1067000020F480304A4948600846406840F46010F0
:1067100048600846006840F08070086000BF444848
:10672000006800F000700028F9D04148406820F06F
:1067300003003F4948600846406840F00200486056
:1067400000BF3B48406800F00C000828F9D10CBDA0
:1067500010B53748006840F0010035490860084628
:106760004068354908403249486008460068334966
:1067700008402F4908600846006820F4802008601F
:106780000846406820F4FE0048604FF41F0088600F
:10679000FFF718FF2A4800682A49086010BDF0B5C5
:1067A000044600250023002600222148406800F00E
:1067B0000C0525B1042D06D0082D2BD107E0224A67
:1067C0000020087028E0204A0120087024E01848C2
:1067D000406800F470131648406800F4803616B123
:1067E0000120087001E000200870022000EB9343B4
:1067F0001EB9164803FB00F20BE00D48406800F498
:10680000003018B1114803FB00F202E00E4803FB10
:1068100000F201E00C4A00BF00BF05484068C0F329
:1068200003100B4F3D5CEA4022600120F0BD0000E8
:1068300000100240002002400000FFF8FFFFF6FEBB
:106840009003000808ED00E000127A0000093D0006
:10685000000000200948804709480047FEE7FEE79E
:10686000FEE7FEE7FEE7FEE7FEE7FEE7FEE7FEE700
:1068700004480549034A054B70470000516700086A
:10688000ED640008582A002058360020582A0020BD
:1068900008B54021012000F082F9E8B91C480168E0
:1068A0000068401C1A4A106029B91A4B14220021B2
:1068B000022005F031F916480068642814D116A0AA
:1068C00000680090022005F096FF684605F063FB23
:1068D000122002F0CEF907E00D48006820B100F068
:1068E00004F800200A49086008BD10B508224021BC
:1068F000012000F00DF94021012000F037F9054B8F
:106900004FF4FA620021022005F006F910BD0000E4
:1069100010000020916800080090010079487A4931
:1069200048607A48486070477748006940F08000C6
:106930007549086170477448C06800F0200020B1B4
:1069400020207149C860012070470020FCE7014603
:1069500000E0491E29B16C48C06800F00100002821
:10696000F7D109B9012070476748C06800F01400EA
:1069700020B11420644AD0600120F4E70020F2E73F
:1069800070B505464FF40050FFF7E1FF0446B4B977
:106990005D48006940F002005B49086108464561B6
:1069A000006940F0400008614FF40050FFF7CFFF4E
:1069B00004465548006920F002005349086114B9A3
:1069C000FFF7B9FF0446204670BD70B505460E4678
:1069D0004FF44050FFF7BBFF04468CB94A480069AA
:1069E00040F00100484908612E804FF44050FFF705
:1069F000AEFF04464448006920F0010042490861A6
:106A00001CB9FFF798FF00B10124204670BD70B596
:106A100005460C4616464FF44050FFF798FFF0B974
:106A20003948006940F00100374908610EE03088BC
:106A30002880B61CAD1CA41E4FF44050FFF787FF02
:106A400018B9FFF778FF08B902E001E0002CEED199
:106A500000BF2D48006920F001002B4908610CB9E6
:106A6000012070BD0020FCE710B500244FF4405019
:106A7000FFF76DFFD8B9FFF751FF2348006940F0D9
:106A80002000214908610846006940F04000086183
:106A90004FF44050FFF75BFF18B9FFF74CFF00B110
:106AA00001241948006920F0200017490861204698
:106AB00010BD70B504460D4600264FF44050FFF758
:106AC00046FFE0B9FFF72AFF0F48006940F01000C9
:106AD0000D4908610846006940F0400008612570D2
:106AE0004FF44050FFF733FF18B9FFF724FF00B110
:106AF00001260548006920F020000349086130465E
:106B000070BD00002301674500200240AB89EFCD36
:106B1000F0B503461446254D05EB8322244DAD699F
:106B20009E1C0127B7403D43214EB56100201AE06D
:106B300001F00105ADB1C50852F825504607F70E22
:106B40000F26BE40B543C60842F82650C50852F885
:106B500025504607F60E04FA06F63543C60842F8F5
:106B600026504910401C0029E2DCF0BD02460B46CD
:106B70000E4800EB8221C8681843C860C86880B21C
:106B800070470A4B03EB8022D3688B43D360704776
:106B9000064B03EB8022D3684B40D360704702461C
:106BA000024800EB822398680840704700080140C3
:106BB00000100240002107E0052101E04A1E91B2C9
:106BC0000029FBDC421E90B20028F5DC704710B5AE
:106BD000032211020120FFF79BFF4FF440710120B7
:106BE000FFF7C4FF032280210120FFF791FF8021DE
:106BF0000120FFF7BBFF10BD10B54FF4007101205D
:106C0000FFF7B4FF4FF480710120FFF7AFFF0220C0
:106C1000FFF7D0FF4FF400710120FFF7B2FF022011
:106C2000FFF7C8FF4FF480710120FFF7AAFF10BDE6
:106C300010B54FF400710120FFF7A3FF0220FFF70A
:106C4000B9FF4FF480710120FFF790FF0220FFF79A
:106C5000B1FF4FF400710120FFF788FF0220FFF71A
:106C6000A9FF10BD10B504464FF480710120FFF755
:106C700088FF0220FFF79EFF2CB14FF40071012026
:106C8000FFF774FF04E04FF400710120FFF779FF74
:106C90000220FFF78FFF4FF480710120FFF766FF9E
:106CA0000220FFF787FF4FF480710120FFF769FF93
:106CB00010BD10B50024082291010120FFF728FF24
:106CC0004FF400710120FFF751FF0220FFF772FF20
:106CD0004FF480710120FFF749FF0220FFF76AFFA0
:106CE00012E0601C80B20446B0F5FA7F0CDD03228E
:106CF0004FF400710120FFF70BFF4FF400710120EA
:106D0000FFF734FF002010BD4FF400710120FFF7A2
:106D100046FF0028E5D14FF480710120FFF731FFD5
:106D20000220FFF747FF03224FF400710120FFF715
:106D3000EFFE4FF400710120FFF718FF0220FFF76C
:106D400039FF0120DFE770B504464FF48071012060
:106D5000FFF717FF0220FFF72DFF002524E004F0C6
:106D6000800028B14FF400710120FFF7FFFE04E01E
:106D70004FF400710120FFF704FF6006040E0220AB
:106D8000FFF718FF4FF480710120FFF7EFFE02209C
:106D9000FFF710FF4FF480710120FFF7F2FE022091
:106DA000FFF708FF681CC5B2082DD8DBFFF781FF8D
:106DB00070BD70B506460024082291010120FFF73E
:106DC000A7FE4FF400710120FFF7D0FE00251EE062
:106DD0004FF480710120FFF7D4FE0220FFF7EAFE96
:106DE0004FF480710120FFF7C1FE0220FFF7E2FEA1
:106DF0006006040E4FF400710120FFF7D0FE08B1C9
:106E0000601CC4B20220FFF7D5FE681CC5B2082D75
:106E1000DEDB4FF480710120FFF7B3FE0220FFF7A5
:106E2000C9FE03224FF400710120FFF771FE4FF4F9
:106E300000710120FFF79AFE0220FFF7BBFE3046EB
:106E4000FFF710FF204670BD70B505460C4600BF29
:106E5000FFF7D2FE2846FFF776FF10B9601E041E2A
:106E6000F6D1FFF7E5FE0CB1012070BD0020FCE774
:106E70002DE9F04107460E4615461C46FFF7BCFEBD
:106E80003846FFF760FFF0B13012FFF75CFFD0B17A
:106E9000F0B2FFF758FFB0B1FFF7AEFE47F00100C8
:106EA000FFF751FF78B106E00020FFF782FF05F8F9
:106EB000010B601EC4B2012CF6DC601EC4B20120BE
:106EC000FFF777FF2870FFF7B3FE14B90120BDE884
:106ED000F0810020FBE72DE9F04107460D461646FC
:106EE0001C4680210120FFF74CFEFFF785FE384647
:106EF000FFF729FF98B12812FFF725FF78B1E8B214
:106F0000FFF721FF58B107E016F8010BFFF71BFF51
:106F100000B903E0601EC4B2002CF5DC00BFFFF72F
:106F200087FE80210120FFF721FE14B90120BDE872
:106F3000F0810020FBE72DE9F04107460D4616469B
:106F40001C4680210120FFF71CFEFFF755FE384646
:106F5000FFF7F9FE90B12812FFF7F5FE70B1E8B225
:106F6000FFF7F1FE50B106E03046FFF7ECFE00B946
:106F700003E0601EC4B2002CF6DC00BFFFF758FE31
:106F800080210120FFF7F2FD14B90120BDE8F08156
:106F90000020FBE710B54FF480710020FFF7E6FDFD
:106FA00010BD10B54FF480710020FFF7EAFD0F4BC4
:106FB00002220021084604F0AFFD10BD10B50222E8
:106FC000D1010020FFF7A4FDAFF22903FA2210211E
:106FD000012004F0A1FD10BD10B5AFF23903642209
:106FE0001421012004F098FD10BD0000956F0008E9
:106FF00070B505460C46FFF791FC03E0A4F58064EC
:1070000005F580652846FFF7BBFC10B1B4F5806F2D
:10701000F4D8FFF789FCB4F5806F01D8012070BD6A
:107020000020FCE72DE9F04106460C46174604F027
:10703000010000B1641CFFF771FC3A46214630465E
:10704000FFF7E5FC0546FFF76FFC2846BDE8F08139
:10705000034604E018681060121D1B1D091F00295B
:10706000F8D1012070472DE9F04FADF2044D804674
:107070000D46924605F0010000B16D1CFFF74EFC75
:10708000B8F1006F02D3B8F1016F04D300200DF204
:10709000044DBDE8F08FA8F1006B4FEA9B26CBF3BF
:1070A0000909C9F58064A54200D8ACB24DE04FF0A3
:1070B000006101EB86206A464914FFF7C9FF0027EB
:1070C00008E009EB07001DF80000FF2800D003E0EE
:1070D000781C87B2A742F4DB00BFA7421EDA4FF04C
:1070E000006101EB8620FFF74BFCCDF80004002780
:1070F00007E01AF8070007EB09010DF80100781CFA
:1071000087B2A742F5DB4FF0006101EB86206A46AB
:107110004914FFF77CFCCDF8000406E052462146F6
:107120004046FFF774FCCDF80004A54200D10DE005
:10713000761C4FF00009A244A0442D1BB5F5806FCA
:1071400002D94FF4806400E0ACB2B0E700BFFFF7B3
:10715000EBFBDDF800049AE71CB5274903C9CDE92C
:1071600000012648406940F0400024494861244815
:10717000806840F00100224988600846007940F0AC
:10718000FF0008711F4800681F4988421CD01D4934
:10719000083908681A49896841F00101184A916064
:1071A0001A49096811601949091D096811601749D0
:1071B00008310968116011460860096801916A4642
:1071C00008211048FFF74FFF1CBD4FF0FF307047FC
:1071D0004FF4806070470D480838008870470B49AD
:1071E000096801600949091D0968416007490831BA
:1071F0000968816070470000500E010800100240CD
:10720000003002403C040008A542BD5AE8F7FF1FC9
:1072100008B1012100E00021FE4A11707047FE48CC
:107220007047FE480078704770B505460C464FF42D
:1072300080510120FFF7A5FC284600F09FFC204666
:1072400000F09CFC06464FF480510120FFF78EFCB5
:10725000304670BD10B5F248006820F48060F049F7
:1072600008600222C9140120FFF752FC0222D10259
:107270000120FFF74DFC042211020120FFF748FC1A
:10728000042251020020FFF743FC4FF480610120EB
:10729000FFF76CFC4FF400610020FFF767FC00F083
:1072A00098FC042000F0E8FC10BD0120DD490870C6
:1072B000704710B505218720FFF7B6FF02218E2009
:1072C000FFF7B2FF02218820FFF7AEFF00218820E0
:1072D000FFF7AAFF13218520FFF7A6FF8021862054
:1072E000FFF7A2FF00210320FFF79EFF00210420EB
:1072F000FFF79AFFCA48006840F48060C8490860F8
:1073000010BD10B5C648006820F48060C44908600C
:1073100000218E20FFF788FF01218720FFF784FFDF
:1073200000218520FFF780FF00218620FFF77CFFEA
:1073300000210320FFF778FF00210420FFF774FFEE
:10734000022003F07FFB10BD10B50446B64A21466B
:10735000022003F085FB10BD10B500212620FFF7A9
:1073600063FF0446B1480078A04203DAAF480078D2
:10737000201A02E0AD480078001B08284EDA64109D
:10738000AA48007804EB6000A84908700846C07855
:10739000401CC0B2C870142860DD084600780A2876
:1073A00003DB08460078DC2803DD0420FFF7CCFF70
:1073B00030E09E48007814309849087008460178FB
:1073C000A720FFF731FF9A480068F8B100F0B8FD38
:1073D00097490968884205D200F0B2FD94490968CE
:1073E000081A04E000F0ACFD91490968401A91497F
:1073F000884206D20420FFF7A7FF00208C490860CE
:1074000008E000F09DFD8A49086003E000F098FD67
:107410008749086000208849086010BD834840788B
:10742000A04203DA81484078201A02E07F48407881
:10743000001B32280DDA7D488078401CC0B27B49A1
:10744000887004280ADD084604700020C87088701F
:1074500004E07648447000207449887076480068DB
:10746000401C75490860B0F5167F06D900200860F9
:107470000420FFF769FF0020CFE70120CDE710B51A
:10748000FFF7E8FE4FF480510120FFF76FFB4FF448
:1074900000610120FFF76AFB022003F0D3FA4FF4EA
:1074A00000610120FFF76DFB322003F0CBFA0021D1
:1074B0000320FFF7B9FE00210420FFF7B5FE80216D
:1074C0008720FFF7B1FE022003F0BCFA00218720DD
:1074D000FFF7AAFE00218520FFF7A6FE00218620E7
:1074E000FFF7A2FE00210320FFF79EFE00210420EB
:1074F000FFF79AFE79218920FFF796FE06218A2060
:10750000FFF792FEEA218B20FFF78EFEEA218C2006
:10751000FFF78AFEFC218D20FFF786FE00218E20DA
:10752000FFF782FE454801789C20FFF77DFE434827
:1075300041789D20FFF778FE404881789E20FFF734
:1075400073FE3E48C1789F20FFF76EFE3B480179ED
:10755000A020FFF769FE39484179A120FFF764FEBA
:1075600036488179A220FFF75FFE3448C179A32015
:10757000FFF75AFE3148017AA420FFF755FE2F4845
:10758000417AA520FFF750FE2C48817AAA20FFF708
:107590004BFEAC21B020FFF747FE0021B220FFF7E1
:1075A00043FE0221B320FFF73FFE1021B420FFF776
:1075B0003BFE2821B520FFF737FE2D21B620FFF72F
:1075C00033FED421B720FFF72FFE0021B820FFF7AC
:1075D0002BFE0021B920FFF727FE4221BA20FFF73A
:1075E00023FE4521BB20FFF71FFE5321BC20FFF7E0
:1075F0001BFE5421BD20FFF717FE4221BF20FFF7DD
:1076000013FE4521C020FFF70FFE5321C120FFF7D5
:107610000BFE15E017000020AC0100201600002032
:1076200000040140150000207F74000820000020A5
:1076300028000020A068060024000020580E010841
:107640005421C220FFF7F0FDFF21C320FFF7ECFD1E
:10765000FF21C420FFF7E8FDFF21C520FFF7E4FD6F
:10766000FF21C620FFF7E0FDFE48C17AD820FFF7D2
:10767000DBFDFC48017BE920FFF7D6FDF948417BA3
:10768000EE20FFF7D1FDF748817BEF20FFF7CCFD1F
:10769000F448C17BF020FFF7C7FDF248017CF120E0
:1076A000FFF7C2FDEF48417CF220FFF7BDFD5221FC
:1076B000F520FFF7B9FD04F047FE493800EB8000E4
:1076C0004006040E2146F920FFF7AEFD0A21FA20FC
:1076D000FFF7AAFD0021F320FFF7A6FD0021F4200B
:1076E000FFF7A2FDDF48C17CF620FFF79DFDDD48D6
:1076F000017DF720FFF798FD0721ED20FFF794FDAE
:10770000D9480178A720FFF78FFDD84B4FF4C872F6
:107710000021032004F000FA1E21FC20FFF784FD65
:107720000C21FD20FFF780FD3221FE20FFF77CFDBC
:1077300001220A21104600F0F7FA02232822002134
:10774000184600F0CFFACA48006820F48060C849A3
:107750000860FFF7D6FDFFF7ACFDFFF7A6FD10BDF3
:1077600010B503218820FFF75FFD08218820FFF76F
:107770005BFD01218E20FFF757FD10BD2DE9F04183
:1077800006460C4690460025FFF7BBFDFFF7E8FFD5
:107790002146BE20FFF748FD1DE04FF4805503E071
:1077A000142003F043F96D1E00210320FFF73CFD78
:1077B00000F0200008B9002DF2D1002707E016F8EC
:1077C000011BFF20FFF730FD601EC4B27F1C322F6B
:1077D00001D2002CF3D1002CDFD109218720FFF743
:1077E00023FD4FF4C87003F021F94FF4805506E0F3
:1077F000681E051E03D10420FFF7A6FD08E0002146
:107800000320FFF711FD00F0040008B9002DEFD1AF
:1078100000BFFFF776FDFFF74CFDBDE8F0812DE9D5
:10782000F04105460F462C4604F11206322F2FDC9C
:10783000204606F0FAF910B10020BDE8F081E07CA6
:10784000B2280FD1F078BB280CD103F0F0FAE16830
:10785000884207D13079642804DA86480178307983
:10786000854A115403F0E3FAE16888420AD003F034
:10787000E1FA8046804810F80800401C7E4901F873
:10788000080000BF207D1730C1B2204606F0A5F9E0
:107890000120D2E72DE9F04F91B080460F464FF01E
:1078A00000094FF0010AB1E04846411C01F0FF0910
:1078B000052806DD0520FFF747FD00206F49087009
:1078C000ACE000210320FFF7AFFC044600210420B8
:1078D000FFF7AAFC054605F0800028B1002126200C
:1078E000FFF7A2FC6349087004F0010018B1002002
:1078F0006249087092E004F0100020B35F480078FD
:1079000018B9404602F0FCFE824600260BE000213A
:107910007F20FFF789FC83465946404603F089F9EA
:107920008246701CC6B2322EF1DB54480078CD2856
:1079300003DD00205149087070E050480078323073
:107940004E49087000BF04F0020000285ED00021FC
:107950004B20FFF769FC044611E000217F20FFF770
:1079600063FC46490978322291FBF2F302FB1311C2
:1079700001AA505441480078401C404908703F48D3
:107980000078A042E9DB172C2EDB3D48007860B17F
:10799000214601A8FFF743FF38B900203749087096
:1079A000FFF787FC11B0BDE8F08F322C03DC4046B6
:1079B00002F0A6FE8246322094FBF0F100FB11405B
:1079C00028B1322094FBF0F100FB114000E032209E
:1079D0000646324601A9404603F0B8F882464046C2
:1079E00002F096FE824606E0224601A9384602F0E1
:1079F00008FF00F0FF0A002020490870BAF1000FCC
:107A000004D100220321022003F02AF84FF4806100
:107A10000120FFF7C4F800283FF446AF00BF174825
:107A2000007808B9FFF745FC00BFBBE710B5154962
:107A30001548FFF72FFF4FF480600D49143108609F
:107A400010BD10B504461148008850B9082C00D369
:107A5000012400F075FA0E4931F81410B0FBF1F270
:107A600018E01CE0580E01081600002059730008A9
:107A70000004014014000020AC0100201800002088
:107A800017000020A0120020600800201E00002027
:107A90006E0E010801FB1200801C324908804FF471
:107AA00000610020FFF77BF8F0B92E480088401EE7
:107AB00080B22C49088070BB2B480088401C80B2E3
:107AC00029490880642808DD00200880274B4FF4EE
:107AD000C8720021032004F01FF80020214908800B
:107AE00023490880012010BD00201E4908801E493E
:107AF00008801F480088401C80B21D490880B0F5EE
:107B00007A7F08DD00200880184B4FF4C8720021EE
:107B1000032004F001F80020E5E770B506460C46A6
:107B2000154614480078012819D12846FFF789FF27
:107B3000A8B100200F4908700F4BC8220021084649
:107B400003F0EAFF172C03DBB61DA4F10C00C4B24E
:107B50002A4621463046FFF711FE012070BD002065
:107B6000FCE700001E0000201C00002059730008E4
:107B70001A00002015000020AB7200080146002208
:107B800008E01046531C9AB24FF6FE73984201DB90
:107B9000002070474348008800F002000028F0D021
:107BA0004048001D0180002208E01046531C9AB294
:107BB0004FF6FE73984201DB0020EAE7394800885F
:107BC00000F001000028F0D03648001D0088C0B247
:107BD000DFE700B53448006940F48040324908616D
:107BE0000846006920F4804008610846806940F03A
:107BF000080088610846C06940F48040C8612B488D
:107C00000068C0F313002949086008460068284945
:107C100008432649086025480830006840F4604061
:107C20002249083108601F48083800881D49083972
:107C300008800846008840F40070088008460088E4
:107C400040F4807008800846008840F004000880F6
:107C50000846008808800846008840F01800088020
:107C60000846008808800846008840F040000880E8
:107C7000FF20FFF783FF00BD00F007000949083926
:107C800009884FF6C7721140064A083A118011461A
:107C9000098841EAC00111801146098841F040017C
:107CA000118070470838004000100240040C014069
:107CB0000000B0BB484A0A400243484B1A60704774
:107CC0000146072323EA01021202444B1B1D1868D8
:107CD0004FF6FF031840424B184310433F4B1B1D08
:107CE000186070472DE9F0410746884614461D4646
:107CF00000262846FFF7E4FFC5F1040007FA00F666
:107D00000F20284100EA0800064336013548065591
:107D100004F01F01012088406111890001F1E02178
:107D2000C1F80001BDE8F08170B504460B46CE17DE
:107D300001EB9676C6F38700CE1701EB9676B61068
:107D4000A1EB8606B606350E274B9B6943F001036F
:107D5000254EB3614FEAB63353F820300F26AE40BC
:107D6000B343224E46F82030334653F8203004FA0D
:107D700005F61E431D4B43F820601D4B1B68012672
:107D80008E4033431A4E336002F0010343B1184B67
:107D90000C331B6801268E403343154E0C3633607E
:107DA00002F0020343B1124B08331E6801238B40DB
:107DB0001E430F4B08331E6070BD70B50446254648
:107DC00020680C490840B0F1005F04D12868FEF734
:107DD000EFFB6868804770BD80FFFF1F08ED00E083
:107DE0000000FA0500E400E0001002400800014035
:107DF000000401400000FE2F10B505F05DFF00F00B
:107E00007FF8FFF7A9F9FEF7E2FEFFF738FB10BD98
:107E1000014636480068364A90422DD13348001D4D
:107E20000068B0F1FF3F27D03048001D006818B34C
:107E30002E48001D0068B0F1443F1DD02B48001DA6
:107E40000068B0F1883F17D02848001D0068294A13
:107E5000904211D02548001D0068244A083212685B
:107E6000D243904208D12148001D006888420AD0C0
:107E70001E48001D006870471F480068884202D0F5
:107E80001D480068F7E70020F5E718480068184922
:107E9000884229D11548001D0068B0F1FF3F23D06A
:107EA0001248001D0068F8B11048001D0068B0F1CC
:107EB000443F19D00D48001D0068B0F1883F13D031
:107EC0000A48001D00680B4988420DD00748001D74
:107ED0000068064908310968C943884204D103484B
:107EE000001D006805494860704700003004000824
:107EF0005A3CC3A542455354F0F7FF1F0019002018
:107F00001CB5002001900090694601A8FEF747FCCF
:107F10004FF0E020006920F004004FF0E0210861FC
:107F20004FF4FA510198B0FBF1F04FF0E0214861B5
:107F3000002088610320086100200F4908601CBDF3
:107F40000D48006870470C4800680C49086070478D
:107F50000A480068704710B5074800680849B0FB38
:107F6000F1F201FB12000449086008460068401C59
:107F7000086003F0DDFE10BD2C0000203000002062
:107F80000084D71710B5082211030220FEF7C0FDA8
:107F90004FF400410220FEF7E9FD0020014908608E
:107FA00010BD00003400002010B54AF6AA201A497E
:107FB000086089140020FEF7EBFD10BD70B5054682
:107FC0000C4645F2555014490860084645608460E7
:107FD0004AF6AA2008604CF6CC40086002228914B8
:107FE0000020FEF795FDAFF23F034FF448720021E9
:107FF000022003F091FD70BD10B5AFF2530003F005
:10800000FDFD10BD10B50446042291020020FEF7CC
:108010007FFD012010BD00000030004000F04CFB4F
:1080200003F020FDFFF7E8FE4FF4FA610520FFF7AB
:10803000C5FF02F0DFFAFEF7C1FFFEF756FCFFF7BF
:10804000A1FF00F017F809E00549064802F0B0F971
:108050000549064802F0ACF903F035FEF4E70000EC
:108060008010002060080020C0130020A012002013
:108070000220704710B502240B49022004F032FCA4
:108080000FE0601EC0B2044600EB8000074951F8C3
:10809000200030B104EB84000A4652F8201020463C
:1080A0008847002CEDD110BD10020020780E010889
:1080B00010B5002419E004EB44024D4B03EB4202DF
:1080C000518804EB440213F812000822FEF720FD49
:1080D00004EB4402464B03EB4202518804EB44029A
:1080E00013F81200FEF742FD641C002CE3D010BD13
:1080F00070B50124002516E0641E6D0004EB4402F7
:108100003B4B03EB4202518804EB440213F812008C
:10811000FEF745FD04EB4401354A02EB4101898835
:10812000884200D16D1C002CE6D1284670BD10B5E8
:108130000146012018E0421E1046012303FA02F214
:108140000A408AB100EB4002294B03EB42029288BD
:1081500000EB4003264C04EB43035B885A4000EBE2
:10816000400304EB43039A800028E4D110BD10B50E
:10817000FFF7BEFF1F490978884217D01E480078D4
:1081800003280BDD1C480078962807DA00201A49DE
:1081900008701848007840F0400010BD00201649D3
:1081A0000870FFF7A5FF134908701EE0114800781A
:1081B000D8B111480078401CC0B20F490870FA21AC
:1081C00090FBF1F201FB120038B10B4800789621C8
:1081D00090FBF1F201FB120038B9962006490870B5
:1081E0000448007840F08000D7E70020D5E7000081
:1081F000380000203E0000203F00002010B5022281
:1082000011460120FEF784FC022201210846FEF7F8
:108210007FFC01210846FEF7A9FC02210120FEF7A0
:10822000A5FC10BD10B502210120FEF79FFC10BD7A
:1082300010B502210120FEF7A4FC10BD10B50121EC
:108240000846FEF793FC10BD10B501210846FEF765
:1082500098FC10BD10B502210020FEF792FC10BD65
:1082600010B502210020FEF781FC10BD10B5544866
:10827000C06840F400705249C8600846C06820F4E5
:108280000070C8600846806940F400708861002270
:1082900002211046FEF73CFC4948406820F440406B
:1082A000474948600846406840F4004048604548F7
:1082B000006845490840434908600846006808606E
:1082C0000846006820F480700860081D006820F0EF
:1082D0000200091D08600846006820F4602008605C
:1082E0000846006840F4602008600846006840F4D2
:1082F000801008600846006820F40060086031487B
:108300002830006820F470002E49283108600846A3
:108310000068002008602B480C3000686FF30B00E9
:1083200028490C3108600846006840F038000860B1
:108330002448001D006840F001002249091D086022
:108340000846006840F00800086000BF1D48001D96
:10835000006800F008000028F8D11A48001D0068E5
:1083600040F004001749091D086000BF1548001DB2
:10837000006800F004000028F8D110BD114830302A
:10838000006820F01F000F4930310860084600687F
:1083900040F0010008600B48001D006840F48000B8
:1083A0000849091D086000BF0648001F006800F06A
:1083B00002000028F8D003484830006880B27047B7
:1083C0000010024004240140FFFFF0002DE9F041BD
:1083D00000F034F901287DD1FFF7D0FF044663484F
:1083E0000088844203DD61480088201A02E05F486B
:1083F0000088001B322805DD5C48048000205C49B1
:1084000008700EE059480088401058490880084616
:10841000008800EB6400088055480078401C5449EF
:108420000870534800780A284DDD5048008808F04D
:1084300013FB054600224F4B08F022FB074608F0CD
:10844000C7FA4A490880002409E04B4830F8140074
:1084500046490988884200DA03E0601C84B20B2C8C
:10846000F3D300BF002C20DD0B2C1ADA601E42492A
:1084700031F8100031F81410401A3F4931F8141047
:108480003A4A1288511A01EB8101490091FBF0F040
:10849000C4F10A0101EB810100EB41003749087288
:1084A00006E000203549087202E064203349087272
:1084B000C4F10A0000EB041084B2E0B200F0F6FA56
:1084C00000202B4908702D48007A19280ADA2C4818
:1084D000007800E034E0401C294908700020294958
:1084E000087007E000202649087026480078401CE4
:1084F0002449087022480078022813DD012022490F
:10850000087103201E4908702048007800BB204BEA
:108510004FF47A720021084603F0FEFA01201B494D
:10852000087015E017480078022811DD0020164970
:10853000087103201349087000201449087007E0EF
:1085400064200E49087200200F4908710F49087015
:10855000BDE8F08110B5FFF789FEAFF28F1332222C
:108560000021022003F0D8FA10BD000042000020D4
:108570004000002080F9F93FA00E010852020020BF
:108580004400002045000020680000204600002034
:10859000BB85000810B520210120FEF7F2FA10BDBE
:1085A00010B5042000F065FBAFF2170340F2DC5277
:1085B0000021022003F0B0FA10BD10B500F0D7FC86
:1085C000AFF2230340F6B8320021084603F0A4FAC4
:1085D00010BD10B5AFF21D0003F010FBAFF23F006D
:1085E00003F00CFBAFF2530003F008FB454803F027
:1085F00005FB00F023F878B920210120FEF7C1FA2D
:108600004148007A4FF47A7100FB01F23D4B0021A2
:10861000084603F081FA10E020210120FEF7A6FAB7
:108620003948007AC01E4FF47A7100FB01F2AFF2B4
:1086300075030021084603F06FFA10BD10B54FF422
:1086400000510220FEF7ABFA70B94FF480410220CE
:10865000FEF7A5FA40B901202C4908702A49887113
:108660002021FEF783FA24E0002028490870C82062
:108670002749087227480078D8B901202549087091
:10868000AFF2470003F0BAFAAFF2EB0003F0B6FA2C
:10869000AFF2D90003F0B2FAFFF79BFF1A488079D6
:1086A000012806D01C4B40F6E4420021084603F0A6
:1086B00033FA1648007810BD10B508229102022046
:1086C000FEF726FA0822D1020220FEF721FA4FF423
:1086D00000510220FEF755FA4FF480410220FEF7C8
:1086E00050FA022220210120FEF712FAFFF7A6FF1E
:1086F00010BD704710B50446192C02DA0A2000F0AC
:10870000B8FA10BDDD9400084802002047000020A0
:108710005202002048000020E594000870B505468C
:108720000C466348006940F400306149086108461E
:10873000006920F4003008610846C06940F4003048
:10874000C8610B2204210020FEF7E2F9082211463D
:108750000020FEF7DDF9574868434008B0FBF4F00D
:1087600055490880081D008842F20C1108435249FF
:10877000091D08800846008840F0200008804FF658
:10878000BF704D490839088002232622012118466E
:10879000FFF7A8FA70BD0246002100E0491C4648D8
:1087A0000838008800F0400018B944F62060814283
:1087B000F4D344F62060814204D23F48001F028077
:1087C000012070470020FCE770B504460D461646B0
:1087D000FFF7EAFB3948007958B903E014F8010BB8
:1087E000FFF7D9FF281EA5F10101CDB2F6D1012076
:1087F00070BD0020FCE730480838008800F02000F9
:10880000F0B12D48001F00882D4991F823102C4A03
:108810005054104690F82300232807DA104690F8A9
:108820002300401C114681F8230003E00020244966
:1088300081F8230000202349087001201F49887017
:10884000704710B520480078401C1F490870084642
:108850000078FF2190FBF1F201FB12001A49087029
:1088600018480078401C174908700846007802280C
:1088700014DD134890F8230000280BDD134800781E
:10888000202807DA0E4890F82310012201F049F958
:108890000E49087000200A4981F8230010BD0C48D9
:1088A000006800F0010000B100BE00BFFEE700005C
:1088B0000010024040420F000844004068000020C1
:1088C00024020020490000204C0000204B00002022
:1088D000F0ED00E010B50120774908707748006995
:1088E00040F00200754908610846006920F0020066
:1088F00008610846C06940F00200C8610B220321EC
:108900000120FEF705F942F20F706D4908804720FB
:10891000091F08806A481038008847F67801084324
:10892000674910390880081D008840F48850091DE7
:108930000880812062492C39088010BD30B50B4673
:1089400000F0F00424B100F00F040CB1C82200E0E4
:10895000642200F00F0404EB201102FB03F4B4FBCB
:10896000F1F104114C43564D10352C8000F00F04EA
:108970004C43C4F34F042D1D2C8030BD10B551481D
:10898000007800F0800080B14E4801780078401CEB
:108990004C4A10704C484078803081420FDD4A4884
:1089A0004078401E1146087009E046480078401E95
:1089B000C0B244490870022801DA81200870414A97
:1089C000127802F07F01404A1078FFF7B7FF10BD20
:1089D00010B53E4803F05EF810BD3B480078132800
:1089E00003D131203849087002E01320364908705D
:1089F000142035494870704710B50446334B78222F
:108A00000021022003F088F80B2C4CD2DFE804F0A0
:108A100010072206324B4B4B4B4B420000BF13203A
:108A20002949087014204870294803F0E7F83BE012
:108A30001320254908701420487008464078C0EB80
:108A400000100521C1EB0012214B0021022003F090
:108A500063F829E01E4803F000F9174800781A4926
:108A6000087028204870194B3C220021022003F096
:108A700053F819E0154803F0F0F864210E48007827
:108A8000FFF75CFF134B4FF496720021084603F08A
:108A900043F809E00C4908780021FFF74FFF0B4825
:108AA00003F0ACF800BF00BF00BF10BD0249087062
:108AB00005490870704700004F0000200010024078
:108AC0002C040040500000204D0000207D8900084B
:108AD000DB890008D189000810B57D48806920F045
:108AE00001007B4988610846806940F00100886187
:108AF0007848406820F00070764948600846406831
:108B000040F000704860022291031046FEF700F822
:108B10004FF400410220FEF729F8022291030020C1
:108B2000FDF7F6FF4FF400410020FEF71FF8022288
:108B300004210120FDF7ECFF04210120FEF716F8C7
:108B4000042291010020FDF7E3FF0222082100200A
:108B5000FFF7EAF84FF480705F490860022317229C
:108B600019460020FFF7BEF85B481438006840F44F
:108B700080705949143908604FF400410220FDF714
:108B8000F5FF4FF400410020FDF7F0FF0421012024
:108B9000FDF7ECFF10BD51490870704710B54FF458
:108BA00080710020FDF7FBFF08B9012010BD0020F7
:108BB000FCE770B5494804784FF400410220FDF706
:108BC000D5FF142001F03EFF4FF400410220FDF7D5
:108BD000D8FF052001F036FF002520E04FF40041CA
:108BE0000020FDF7CEFF04F0010020B10421012098
:108BF000FDF7BCFF03E004210120FDF7C2FF4FF4A5
:108C0000967001F013FF4FF400410020FDF7AEFF16
:108C10004FF4967001F00AFF6410681CC5B2082D6D
:108C2000DCDB4FF400410220FDF7A0FF322001F011
:108C300009FF70BD10B5FFF7B1FF30B9AFF20B00FF
:108C400002F0DCFFFFF7B5FF06E0AFF21703642286
:108C50000021084602F060FF10BD10B50446082C44
:108C600006DA04F1E001C8B2FFF795FFFFF7E2FF73
:108C700010BD10B50446E02C02DBE72C00DC10BD73
:108C800017498978E031C8B2FFF785FFFFF7D2FFB7
:108C9000FFF7D0FF2046FFF77EFFFFF7CBFF00F086
:108CA00066F900BFEBE70C481438006820F48070C8
:108CB00009491439086088150749086006481438BE
:108CC000006840F48070044914390860704700005F
:108CD0000010024000000140140401405100002037
:108CE0004802002070B5FFF742FA051E62D005F079
:108CF000410041280ED136480079012807D1354975
:108D0000087AFFF7F7FC00203249887270BD012015
:108D10003049887205F0810081284BD12C480079B8
:108D2000012807D12B49087AFFF7E4FC00202949E4
:108D30008872EBE7FFF782FC0446002C37D1264807
:108D4000807998B101281AD002282BD100F0C6FBF7
:108D50000020214988710520FFF78BFF1F4B40F24F
:108D600026220021084602F0D7FE1CE000F0B6FBE8
:108D70000120194988710620FFF77BFF13E000F0FE
:108D8000A9FB02201449887101201249887207202A
:108D9000FFF76FFF114B40F226220021084602F038
:108DA000BBFE00E000BF00BF00F037F802E001208A
:108DB0000949887100BFA9E710B5FFF779F9AFF24B
:108DC000DB0314220021022002F0A6FE10BD0000E9
:108DD000680000205202002048020020E5940008AC
:108DE000704710B50320FFF744FF10BD704710B562
:108DF000FE4A0A214FF4B84004F067FDFB4B1A7994
:108E0000D978987800F09CFCF849487800F07FFC0D
:108E1000FFF7ECFFFFF7D0FF10BD10B5F34A0A21B2
:108E20004FF4B84004F03AFD10BD0020F04908703E
:108E300070470120EE490870704700B5C1B0142298
:108E4000ECA13CA807F05AFCEFA103C9CDE93A0117
:108E5000E821684607F084FC3C20E44908700320C0
:108E600088700520C87008710020487088710F2034
:108E70000872487800F04BFCDC4B1A79D978987866
:108E800000F05EFCFFF7C9FF6A46E8214FF4C040DE
:108E900004F004FDFFF7CDFFC720D549487002223A
:108EA00014213CA8FFF790FC642001F0CBFD0222C6
:108EB00006213AA8FFF788FCAFF291034FF47A62DB
:108EC0000021084602F028FE41B000BD10B5C74A97
:108ED0000A214FF4B84004F0F8FCC4488078072811
:108EE00007DCC2488079032803DCC0480078642886
:108EF00001DDFFF7A2FFFFF72DFBBC48407AA0B9C8
:108F00000120BA494872FFF788FFAFF21F134FF4F0
:108F1000FA720021084602F0FFFDBD4B4FF47A7251
:108F20000021084602F0F8FD07E0AFF23D1340F6DD
:108F3000B8320021084602F0EFFD0C20B549C87197
:108F4000FFF747FB10BD10B5082210210020FDF7E8
:108F5000DFFD082220210020FDF7DAFD102100208E
:108F6000FDF70FFE20210020FDF700FE10BD08B523
:108F7000A9A000680090022204216846FFF724FCA3
:108F800008BD1CB5A5A103C9CDE900010222052138
:108F90006846FFF719FCA34802F07CFDFEF76FFA64
:108FA0001CBD10B51320FFF764FE10BD10B51420D2
:108FB000FFF75FFE10BD2DE9F041ADF5027D002405
:108FC000002500260027182297497CA807F096FB69
:108FD0008DA103C97B917A90E82140A807F0C0FBDE
:108FE000A046FC2101A807F0BBFB90480078401C7C
:108FF0008E4908707E484078002801DDFFF7D1FFD8
:10900000FFF717FF40AAE8214FF4C04004F05DFCD1
:10901000BDF81C01801C80B2ADF81C01002411E0D9
:10902000601140A951F8200004F01F020121914075
:10903000084028B1BDF81C01401C80B2ADF81C01ED
:10904000601CC4B29DF8E601401CA042E8DCBDF8FB
:109050001C0100128DF8F101BDF81C01C0B28DF8A1
:10906000F201022205217CA8FFF7AEFB9DF8E60184
:109070000A2190FBF1F0401C00F0FF0800245EE0A4
:10908000002614E00A2000FB0460401140A951F8BA
:1090900020000A2101FB046101F01F02012191401F
:1090A000084008B1012704E00027701CC6B20A2E50
:1090B000E8DB00BF012F40D104EB8401490001EB44
:1090C000C10202EB011146F2E802881801AAFA2156
:1090D00004F0FBFB00252EE00A2000FB04504011A9
:1090E00040A951F820000A2101FB045101F01F02A0
:1090F000012191400840E0B17C2104EB840005EBA4
:1091000040020DF58F70805C192202FB050001AA58
:10911000115404EB840205EB42030DF58F72D25C0F
:10912000521CD1B201AA192303FB05200222FFF72A
:109130004BFB681CC5B20A2DCEDB601CC4B2444593
:109140009EDB642001F07EFC022206217AA8FFF754
:109150003BFB3648007800280EDD324802F09AFCCE
:10916000334802F097FC334802F094FCFEF787F98D
:10917000AFF2BD1002F042FD0DF5027DBDE8F081B9
:1091800010B52D48006820F480602B490860254800
:1091900002F063FD264802F060FD264802F05DFD06
:1091A000FFF7E5FEFFF707FF10BDF0B5BBB00646C1
:1091B0000D461446E82101A807F0D2FA01AAE821D9
:1091C0004FF4C04004F081FB601101A951F8200068
:1091D00004F01F02012191400843611101AA42F8E5
:1091E0002100BDF820100DF1220027E048020020E8
:1091F00068000020FD00111200B1B4B6E0B8A3BFB2
:10920000C6BCBC203139397CFD00031300000000CE
:10921000B98D000852020020FD000111FD0002136B
:1092200001000000E58C0008B80E01085300002082
:10923000A1850008BB85000800040140005D081AF4
:10924000284480B2ADF820000DF122000555202001
:1092500070550DF12200005D401CC1B20DF12200DD
:1092600001550A2C13DA04F13000C1B2681C3154E4
:109270000DF12200005D401CC1B20DF1220001552C
:10928000BDF82000801C80B2ADF820004CE0642CBA
:109290001EDA0A2094FBF0F03030C1B2681C315461
:1092A0000A2094FBF0F100FB11403030C1B2A81C41
:1092B00031540DF12200005D801CC1B20DF122007D
:1092C0000155BDF82000C01C80B2ADF820002BE095
:1092D000C82C29DA642094FBF0F03030C1B2681C4D
:1092E00031540A2094FBF0F00A2190FBF1F201FBCB
:1092F00012003030C1B2A81C31540A2094FBF0F1A6
:1093000000FB11403030C1B2E81C31540DF1220095
:10931000005DC01CC1B20DF122000155BDF8200056
:10932000001D80B2ADF820009DF8EA00A04201DAED
:109330008DF8EA400DF12202115D04EBC40202EB4C
:10934000041246F2E803D018324604F0A7FA01AA44
:10935000E8214FF4C04004F0A1FA0746012F07D1DD
:10936000AFF2E31340F2DC520021084602F0D4FBD6
:1093700038463BB0F0BD30B5BBB00546E82101A88A
:1093800007F0EEF955B3AFF207234FF4FA7200215C
:10939000084602F0C1FB01AAE8214FF4C04004F0E6
:1093A00094FA01200190012405E0002001A941F870
:1093B0002400601CC4B2072CF7DB012405E0002167
:1093C0000DF122000155601CC4B2C82CF7DB01204E
:1093D0008DF8EA009DF82200ADF8200001AAE821EE
:1093E0004FF4C04004F05AFA3BB030BD30B5BBB0CA
:1093F0000446E82101A807F0B3F9C4B901AAE8219D
:109400004FF4C04004F061FA601101A951F8200046
:1094100004F01F0201219140084020B10120FFF714
:10942000AAFF3BB030BD0020FFF7A5FFF9E7AFF280
:10943000AF2340F2DC520021084602F06DFB01AA86
:10944000E8214FF4C04004F040FA601101A951F83E
:10945000200004F01F02012191400840A8B36011D0
:1094600001A951F8200004F01F0201219140884316
:10947000611101AA42F82100BDF820100DF122006F
:10948000005D081A80B2ADF8200000210DF1220025
:1094900001559DF8EA500EE0681101A951F820002D
:1094A00005F01F0201219140084010B18DF8EA50EB
:1094B00003E0681EC5B2002DEEDC00BF01AAE82162
:1094C0004FF4C04004F0EAF9ABE7FFE70120A8E75A
:1094D0007047704701207F494871704700207D49DF
:1094E000487170471CB57CA103C9CDE90001052472
:1094F00000208DF804007A480078202806DA02223D
:109500002146684600F00DFB75490870012071493D
:10951000C870002008711CBD30B589B0002424211A
:10952000684607F01DF900254FF400510220FDF7B1
:1095300036FB08BB4FF480410220FDF730FBD8B961
:109540006848007890B920210120FDF70FFB66489C
:10955000007AC01E4FF47A7100FB01F2634B0021C8
:10956000084602F0D9FA01205E49087001206049DE
:1095700008705D4988710CE000205A4908705C4809
:109580000078012805D10B20FFF773FB0020584914
:10959000087055488079022803D156490870FFF7B2
:1095A00099FF4C48807A012802D100205149087067
:1095B0004848407928B900204E490870FEF73EFE21
:1095C00001E0FEF741FE4C48007820B101280ED0A2
:1095D00002286AD120E03F48807A012806D1454917
:1095E0000870FFF777FF00203A4988725EE0052097
:1095F00000F017FB0C20FFF73CFBAFF217133222F1
:109600000021084602F088FAFEF70CFEFEF7E1FFA3
:1096100002203849087049E00521684600F0C2FA86
:109620000546002D40DD022D0AD19DF800404FF681
:10963000FF7000EA04249DF80100204484B20BE08E
:10964000042D09D19DF802404FF6FF7000EA042472
:109650009DF80300204484B214B32849CC70084616
:10966000C37801220321104601F08CFB012002F097
:1096700064FF0120FFF7FDFA20480079012806D198
:109680001449087AFFF736F8002012498872FEF76D
:10969000A0FF00240F484079012802D1FFF722FFE4
:1096A00002E000201349087000E000BF00BF094835
:1096B0000079012808D10020064908710846407940
:1096C000012801D1FFF70EFF0A4800780A49087007
:1096D00009B030BD52020020FD0002100000000061
:1096E0004B0000205600002048020020BB850008E7
:1096F0005700002055000020540000206800002082
:10970000704701460D20704701460D2070472049E3
:109710004870704710B50446E078052801DD0E203A
:1097200010BDE078FFF7F3FFFFF777FB0D20F7E7B9
:109730000346012008701648407810700D207047CD
:1097400010B5082802DA124B987002E00723104C7B
:10975000A3700F4BD9701A7110BD10B50446E07894
:10976000072801DD0E2010BD62792179E078FFF72E
:10977000E7FFFFF752FB1120FFF77BFA0120F2E72A
:10978000034601200870024880781070012070475D
:10979000480200200D20704710B5BAB004466A4652
:1097A000E8214FF4C04004F090F8FFF78FFBFFF77B
:1097B00093F9FEF723FD4FF4E1314820FEF7AEFFA9
:1097C000FEF736FD00F00DFD3AB010BD10B50446B1
:1097D000FFF733FB10BD10B50446A0781A2801D955
:1097E0000F2010BDAC4802F009FAFFF722FBFEF78C
:1097F000F0FEE078A9494870A94B41F2707200214F
:10980000084602F089F9A74B42F6F82200210846E3
:1098100002F082F9A44B42F6F8220021084602F039
:109820007BF9E278A078801EC1B2201DFFF7BDFC55
:10983000D7E710B5044699480078012801D10320E4
:1098400010BD954802F0DAF9FFF7F3FAFEF7C1FE12
:10985000E07892494870924B41F2707200210846BC
:1098600002F05AF98F4B42F6F8220021084602F026
:1098700053F98D4B42F6F8220021084602F04CF9CC
:10988000E078FFF7B3FDDBE703460120087083486B
:10989000C07810700120704710B50446E078642845
:1098A00001DD0E2010BDE07880490870FFF7B5FAA1
:1098B0001120FFF7DEF90120F4E770B506460C46EB
:1098C000154601202070794A0A214FF4B84003F070
:1098D000FCFF764800782870012070BD10B5044662
:1098E000A0781A2801D90F2010BD6C4800780128F3
:1098F00001D10320F8E7FFF79CFAFEF76AFE6A4BF6
:1099000041F270720021084602F006F9654B42F6FA
:10991000F8220021084602F0FFF800205F49487055
:10992000A078401EC1B20022E01CFFF73EFCDBE73E
:1099300070B5BAB006460C461546FEF77FFE012804
:1099400002D11B203AB070BD6A46E8214FF4C040F6
:1099500003F0BBFF9DF81E00022804DD9DF81E00E9
:10996000801E207001E00020207021782A4646F2F7
:10997000E80003F0AAFF0120E4E770B504464B4875
:109980008579FEF75BFE012801D11B2070BDA07810
:10999000012801D00F20F9E7E078022801DD0E2030
:1099A000F4E7E078414988710846807901280CD0B5
:1099B000FFF798FD3D48807918B90520FFF759F960
:1099C00006E00720FFF755F902E00620FFF751F9FE
:1099D00036488079022802D0FFF780FD04E0FFF7C7
:1099E00079FD01203249887230488079A84201D03F
:1099F000FFF713FA1120FFF73CF90120C6E770B515
:109A000006460C461546FEF719FE012803D12070C4
:109A100028701B2070BD0120207024488079287098
:109A20000120F7E710B50446A078012801D00F20E7
:109A300010BDE0781D490872FFF7EFF9FFF748FD08
:109A40001120FFF716F90120F2E703460120087004
:109A50001648007A10700120704770B506460D4612
:109A6000144601202870FEF7E9FD012801D120707D
:109A700001E000202070012070BD03460120087025
:109A80000B48007A642802DD6420107002E0084868
:109A9000007A107001207047819100086800002052
:109AA000B78F0008AD8F00082B8E000848020020F9
:109AB000520200206149624A116000200CE0411C02
:109AC00001EB41015D4A02EB011100EB40025B4BEF
:109AD00003EB02121160401C1F28F0D3002100EBA1
:109AE0004002564B03EB02121160704770B5002420
:109AF00000255448007820B9FFF7DCFF01205149C8
:109B000008704F48006850B14D4805680068041D52
:109B10004B48006800684A490860002028602046D9
:109B200070BD2DE9F04781460D469246002700247E
:109B3000A04600264448076804E008F1010000F050
:109B4000FF08BF6AB86A0028F7D1232D02DD40461E
:109B5000BDE8F087232D17DAFFF7C8FF04469CB154
:109B6000BC620020A062257084F824A0002605E0D5
:109B700019F80610601C8155701CC6B2AE42F7DBA6
:109B800008F1010000F0FF084046E1E70146084601
:109B9000002231B1001F0246294B1B681360284B7D
:109BA0001A6070472DE9F047074688460024A14611
:109BB00000250026A2462548007800282FDD2248EF
:109BC0000468D0F8009000BFA146A46A94F824006D
:109BD000404502D14FF0010A02E0A06A0028F3D10B
:109BE00000BFBAF1010F1AD12578C5B1002604E0F3
:109BF000601C805DB855701CC6B2AE4201DA232DE0
:109C0000F6DBA06AC9F828002046FFF7BFFF0F481F
:109C10000078401E0D4908702846BDE8F0870020F6
:109C2000FBE710B589B0044600BF21466846FFF740
:109C3000B9FF0028F9D109B010BD00006002002072
:109C4000580000205C000020700000204B00002025
:109C5000FEB507460C4615461E46002000900190B2
:109C60000290FD208DF8000000208DF801000620F4
:109C70008DF802001E208DF803008DF80470E0B20C
:109C800000128DF80500E0B28DF80600E8B200126F
:109C90008DF80700E8B28DF808008DF809600222FF
:109CA0000A216846FEF790FDFEBD10B51021002088
:109CB000FCF767FF10BD10B510210020FCF756FF20
:109CC00010BD10B58AB0242101A806F049FDF9485D
:109CD000007818BBF848007800281FDDF6480078A7
:109CE00000280BDD022101A8FFF75CFF0446002CD1
:109CF00004DD0222214601A8FEF766FDEE48007849
:109D000000280BDD042101A8FFF74CFF0446002CBE
:109D100004DD0222214601A8FEF756FD0AB010BD5F
:109D200010B5E64801F06AFFE54801F067FFE54835
:109D300001F064FFAFF2750001F060FF0120DD4922
:109D40000870FEF775FA20210020FCF71AFF642046
:109D500000F078FE20210020FCF708FF0020DA49FF
:109D60008870DA4B4FF47A720021022001F0D4FEA1
:109D700010BD08B5D6A000680090CE480078B8B9EC
:109D8000022204216846FEF71FFDCA48807860B9A8
:109D9000D04801780078401CCE4A1070022904DDBA
:109DA000FFF7BEFF0020CB4908700020C149887032
:109DB00008BD10B5C8480078401CC749087008465F
:109DC0000078032803DCC0488078012847D10020B0
:109DD000C1490870FFF729F8FEF724FAFFF765FF7D
:109DE000FEF72CFC012803D1B749087AFEF782FC64
:109DF000BA48007828B90020FEF73BFF0120B74998
:109E00000870AE4B11220021022001F085FEAC4B00
:109E100014220021022001F07FFEFFF7A8F8AFF224
:109E2000AD034FF47A720021022001F075FEAFF20B
:109E30006D130D220021022001F06EFEA8488079EA
:109E4000012801D0FFF74EFBAFF2990001F0D6FEDA
:109E500002234FF47A6211460320FFF7F9FE10BD8A
:109E6000F0B504460D46002600210DE0605CAF5DB4
:109E7000B84206D1701CC0B20646984202D10846CC
:109E8000F0BD0026481CC1B29142EFDB0020F7E78D
:109E900070B590B0242107A806F062FC002006905F
:109EA000002690A0006805908FA000680490002410
:109EB0008EA0006803908EA103C9CDE901010121A4
:109EC00007A8FFF76FFE0546002D7DD003232A4625
:109ED00003A907A8FFF7C4FF0446002C7ADD601C25
:109EE000A84277DC07A9085C02280CDD601C085C2E
:109EF000082808DA0020804908708870487001201E
:109F00007149087166E007A9601C085C4F2803D1FD
:109F10000C206D49C8715DE007A9601C085C4A28E7
:109F200005D10B206849C8710120887052E007A94B
:109F3000601C085C312820D1704801F05FFE704839
:109F400001F05CFE5B484078002803DD1120FEF73D
:109F500090FE02E00D20FEF78CFE6A4B14220021D9
:109F6000084601F0D9FD5848407918B95C48807915
:109F700001282FD0FFF7B6FA2CE007A9601C085C77
:109F8000322827D160480078401C5F4908705B4840
:109F900001F034FE5C480078022802DAFFF70BF883
:109FA0000DE0574801F02AFEFFF700F8554B142248
:109FB0000021084601F0B0FD0020534908704248D6
:109FC000407928B9464800E009E18079012801D0AC
:109FD000FFF788FA07232A4601A907A8FFF740FFE1
:109FE0000446002C0FDD601CA8420CDA07A9085CAF
:109FF000422808D03448407918B939488079012876
:10A0000001D0FFF76FFA04232A4605A907A8FFF736
:10A0100027FF0446002C79DD601CA84276DC07A9E6
:10A02000085C3549C8700846C0782D4909788842CF
:10A0300078DB0120304908704870887007A9A01C9F
:10A04000085C2D49C8800846C0884FF6FF7101EAB8
:10A0500000202949C8800846C18807AAE01C105C76
:10A0600008442549C88007A9201D085C224988802A
:10A07000084680884FF6FF7101EA00201E4988805B
:10A0800008468188601D105C08441B498880A01C1C
:10A090001118042206A800F00BF9042606480078DF
:10A0A000202835DA0522314606A8FFF73AFD024995
:10A0B000087030E0680000204B000020199500086F
:10A0C000E58C0008739D000852020020B39D000833
:10A0D000FD000121770000207400002075000020A1
:10A0E00048020020FC000601FC000402FC00010004
:10A0F000FC000141FC00010060000020B78F000857
:10A10000AD8F00082B8E00087600002010E009E0DB
:10A110000520FFF786FD5F48808848B901205E4929
:10A12000887205E05D488079012801D0FFF7DAF9EF
:10A1300004232A4604A907A8FFF792FE0446002C30
:10A140004DDD601CA8424ADC07A9085C5149C87073
:10A150000846C07851490978884240DB01204D49C2
:10A160000870002048700120887007A9A01C085CB6
:10A170004849C8800846C0884FF6FF7101EA0020B0
:10A180004449C8800846C18807AAE01C105C0844FE
:10A190004049C88007A9A01C085C8DF81800E01C85
:10A1A000085C8DF8190002263D480078202807DA5F
:10A1B0000522314606A8FFF7B4FC3949087002E0D1
:10A1C0000520FFF72EFD35488079012807D0FFF7DD
:10A1D00089F93048C08810B901202F49887210B021
:10A1E00070BD10B50024022220210020FCF790FC55
:10A1F00020210020FCF7BAFCFFF778FC2949086011
:10A20000002009688862274909680870254909689B
:10A2100081F824002322002122480068401C00F01D
:10A2200069F80020204948708870C87001200870C3
:10A2300000BF06E000211B480068401C0155601C5F
:10A24000C4B2142CF6DB194B05220021022001F0C8
:10A2500063FCAFF2C33332220021022001F05CFC28
:10A26000AFF2B1434FF47A720021022001F054FCA6
:10A2700010BD30B503460C46002107E0585C655C14
:10A28000A84201D0002030BD481CC1B29142F5DB8C
:10A290000120F8E760000020520200204802002060
:10A2A0004B00002070000020680000204388000858
:10A2B00030B5884209D003460C4604E014F8015B2F
:10A2C00003F8015B521E002AF8D130BDF0B50346F9
:10A2D0008B420DD01D460C4608E015F8016B14F8B2
:10A2E000017BBE4201D00120F0BD521E002AF4D1F4
:10A2F0000020F9E710B5034602E003F8011B521EE7
:10A30000002AFAD110BD70B588420AD203460C4625
:10A3100004E014F8015B03F8015B521E002AF8D137
:10A320000DE088420BD983188C1806E0651E2C4678
:10A330002E785D1E2B462E70521E002AF6D170BD5F
:10A34000F0B505460C4616462F46314614E011F886
:10A3500001CB387884450DD1012200E0521CA24285
:10A3600004D211F801CBB85C8445F7D0A24201D1E8
:10A37000881AF0BD5B1E491C002BE8D10020F8E7CD
:10A3800070B5044600260E70254610460AE010F807
:10A39000016B05F8016B0E78761C0E70067806B915
:10A3A00070BD5B1E002BF2D100260E7000BFF7E7D8
:10A3B00070B505460C46607810B1012824D113E031
:10A3C0002946A01DD4F80C219047C0B2207000B9D6
:10A3D0001FE000206071A078012802D1B248007A05
:10A3E00000E00120E07000BF62792178A01DD4F860
:10A3F0000831984720B1E078401EC0B2E07010B13B
:10A400000120607005E000BFFDF79DFD0020607039
:10A4100000BF00BF70BD10B5A449A548FFF7C8FF35
:10A42000A449A548FFF7C4FF10BD2DE9F04104463B
:10A430000E46174625463146284604F0ECFE012814
:10A4400005D12878032800D100E000BF00BF01201B
:10A45000BDE8F0810146881E0C280FD2DFE800F02D
:10A46000060E0E0A0E070E080E0B0E0C00BF00BFE4
:10A470000320704700BF00BF0620FAE700BF00BFFF
:10A480000020F6E7F8B504460D26607800EB800062
:10A490008A4901EB8000C568002700200090FDF785
:10A4A000E7FD6178884262DD00BFA17828688842B4
:10A4B00049D12078022808D02078042805D02078B7
:10A4C000072802D02078092827D1A86818B3607817
:10A4D00000EB80007A4901EB4000807920B9092621
:10A4E000607802F02AF82DE00121601C05F06EFA78
:10A4F000601CA96888470646022E23D12868CF2809
:10A5000000D90126E07800909DF80020211D601DF3
:10A51000FFF7F9FE16E00A2614E02078052805D09A
:10A5200020780B2802D020780D280AD1E86830B1B5
:10A53000621D6946601CEB689847064602E00B26E0
:10A5400000E00C2612E0617801EB81015B4A02EB2E
:10A55000810108698047791CC9B20F46884205DD30
:10A5600005F1140005460068FF289ED900BF9DF83C
:10A570000000401CE07026713046F8BD2DE9F8431C
:10A5800005460F469046AC1D05F11B0004F1110372
:10A59000621C39460090284604F085FB06460128D7
:10A5A00025D104F11100FFF76DFF0646032E1ED0E2
:10A5B000FCF712FD607C022812D0607C05280FD0C9
:10A5C000607C072802D0607C0B2801D1012E07D0C7
:10A5D000607C092802D0607C0D2808D1012E06D0AD
:10A5E000607CFFF737FF6074204604F0B7F9012064
:10A5F000BDE8F88310B54FF480623249324800F06C
:10A6000057FA4FF480623149294800F051FA00BFEF
:10A6100000202F494870887008712E48C1F8080141
:10A620002D48C1F80C0100BF00BF00201F49487031
:10A6300001208870002008712848C1F808012848C6
:10A64000C1F80C0100BF80222649274800F030FAEB
:10A6500080222649184800F02BFA00BF0020244928
:10A6600048708870012008712248C1F8080122480A
:10A67000C1F80C0100BF00BF00200E494870012046
:10A68000887008711548C1F808011B48C1F80C0111
:10A6900000BF1A4B05220021022001F03DFA10BD37
:10A6A0000249C1F8080170470019002090110020EC
:10A6B00070080020D0140020B0120020780E01088D
:10A6C000100200208008002060080020800C00207C
:10A6D000801000207DA5000857A900081B7B0008FA
:10A6E0008FA80008C0120020A012002040130020F4
:10A6F000C01300202BA4000821A7000817A40008FD
:10A7000010B504460622C749204600F01FFA10BDC6
:10A7100010B504460622C449204600F017FA10BDC1
:10A720002DE9F04106460C4600BF04B967E000BFC2
:10A7300000BF204600F0D2F9012800D15FE000BF41
:10A740000622B849204600F0B1FA0546A56000BFD0
:10A75000204600F0C3F9012800D150E000BF0725D2
:10A76000A0682844401E6168B0FBF1F201FB1200B2
:10A770002168085C0830054400BFFA2D00D935E097
:10A7800000BF00BF204600F0D2F9A84200D236E058
:10A7900000BF00BFA0682844801F6168B0FBF1F2D1
:10A7A00001FB12070623A04A3946204600F0ACFA06
:10A7B00000B91BE000BF00BF2A463146204600F02A
:10A7C000FAF900B91BE000BFB57900BFA81C81B23F
:10A7D000F01D03F0C9FA00B111E000BF2A46F11DD7
:10A7E0003046FFF790FD2846BDE8F081A068801D47
:10A7F0006168B0FBF1F201FB1200A06000BF002015
:10A80000F2E72DE9F04106460F46154600BF06B9AE
:10A810003BE000BF00BF06228249304600F096F9B7
:10A8200000B932E000BFA9B2384603F09DFA0446F1
:10A8300000BFE9B2304600F0FCF900B925E000BFE6
:10A8400000BF2A463946304600F080F900B91CE0C6
:10A8500000BF00BF2112304600F0EBF900B914E050
:10A8600000BF00BFE1B2304600F0E3F900B90CE0F0
:10A8700000BF00BF06226C49304600F067F900B9FE
:10A8800003E000BF0120BDE8F0810020FBE72DE9D7
:10A89000F04106460C4600BF04B95AE000BF00BFB5
:10A8A000204600F044F9062800D852E000BF0622F6
:10A8B0005C49204600F0FAF90546A56000BF204635
:10A8C00000F00CF9012800D143E000BFA068801D12
:10A8D0006168B0FBF1F201FB120021680D5C00BF62
:10A8E000012D00D12CE000BF0C3500BFFA2D00D99E
:10A8F00026E000BF00BF204600F019F9A84200D2B0
:10A9000027E000BF00BFA0682844801F6168B0FB3B
:10A91000F1F201FB12070623434A3946204600F0B4
:10A92000F3F900B90CE000BF00BF2A4631462046CB
:10A9300000F041F900B90CE000BF2846BDE8F08105
:10A94000A068801D6168B0FBF1F201FB1200A060FD
:10A9500000BF0020F2E770B504460E46314620469F
:10A96000FFF795FF054665B1A01D03F05EF940B9FC
:10A97000A07E00F11D05601906222B49FFF798FC07
:10A98000AD1D284670BDF0B5C1B006460F46144651
:10A9900000BF06B944E000BF00BFFA2C00D93FE079
:10A9A00000BF2246394601A8FFF782FCA1B201A8E8
:10A9B00003F0DAF9054600BF06221A49304600F0D6
:10A9C000C5F800B92CE000BF2A122046641C01A97A
:10A9D0000A542046641C0D5400BFE1B201A803F0E4
:10A9E000FCF800B91CE000BF9DF8044000BFFA2C41
:10A9F00000D915E000BF00BF224601A9304600F093
:10AA0000A5F800B90CE000BF00BF06220649304699
:10AA100000F09CF800B903E000BF012041B0F0BD98
:10AA20000020FBE7D40F0108DA0F0108014604E01B
:10AA30000A2000E0401E0028FCD10A1EA1F10101FD
:10AA4000F6D1704710B5044605E0FDF7ADFA40F2C7
:10AA5000E630FFF7EBFF201EA4F10104F5D110BD95
:10AA600070B506460C46154626B1012E09D0022EB9
:10AA700012D109E0022001F0F2FC0C4801F0BEF80E
:10AA80000BE0FDF7B9FA08E02DB12B4605220021B5
:10AA9000084601F041F800E000BF00BF24B1012CDE
:10AAA00002D0204601F0F7FE70BD0000A36F000841
:10AAB000034600BF0BB90020704700BF19605A6001
:10AAC0000020D86098600120F6E700BF00B9704709
:10AAD00000BF00218160C16000BFF8E70146D1E9F5
:10AAE0000202904201D1012070470020FCE701469C
:10AAF000C868401C4A68B0FBF2F302FB13008A6886
:10AB0000904201D1012070470020FCE70146D1E9C5
:10AB10000202904204D9D1E90202801A401E704715
:10AB2000D1E901021044CA68801A401EF7E70146C5
:10AB3000D1E90220904205D24A68C86810448A6868
:10AB4000801A7047D1E90220801AFAE72DE9F04116
:10AB500004460F46154600BF14B90020BDE8F08139
:10AB600000BF00BF2046FFF7D1FFA84201D200205E
:10AB7000F4E700BFE1686068401AA84203D2E168C8
:10AB80006068401A00E028460646E2682168881896
:10AB900032463946FFF78CFBAA1BB9192068FFF72C
:10ABA00087FBE06828446168B0FBF1F201FB12000A
:10ABB000E0600120D2E72DE9F04104460E4615463B
:10ABC00000BF14B90020BDE8F08100BF00BF2046DF
:10ABD000FFF784FF012801D10020F4E700BF00BF88
:10ABE0002046FFF7A4FFA84201D20020EBE700BFF8
:10ABF000D4E90101401AA84203D2D4E90101401A64
:10AC000000E028460746A268206881183A46304688
:10AC1000FFF74EFBEA1BF0192168FFF749FBA0681C
:10AC200028446168B0FBF1F201FB1200A060012032
:10AC3000C9E770B504460D4600BF0CB9002070BDD1
:10AC400000BF00BF2046FFF752FF012801D10020BE
:10AC5000F5E700BFE16820684554E068401C616882
:10AC6000B0FBF1F201FB1200E0600120E7E710B554
:10AC700003460C4600BF0BB9002010BD00BF00BF4B
:10AC80001846FFF72BFF012801D10020F5E700BF90
:10AC900099681868405C20709868401C5968B0FB3F
:10ACA000F1F201FB120098600120E6E7F0B50346DF
:10ACB0000C46154600BF0BB104B10DB90020F0BD24
:10ACC00000BF9968002212E01868405CA65CB042A0
:10ACD00005D1501C0246A84202D1521E0AE00022B1
:10ACE000481C5E68B0FBF6F706FB17000146D86803
:10ACF0008842E9D100BF58680844801A5E68B0FBFA
:10AD0000F6F706FB1700DAE7F0B504460D4600BF7C
:10AD1000206800B10AB90020F0BD00BF00210EE09C
:10AD200068186668B0FBF6F706FB17002668365C05
:10AD300012F8017BBE4201D00020EDE7491C994288
:10AD4000EED30120E8E7000010B580222349244813
:10AD5000FFF7AEFE10BD1CB5072269462048FFF77D
:10AD60002AFF58B1DDF803309DF802209DF801104C
:10AD70009DF8000003F088FA01201CBDFFF7E4FFF6
:10AD80000020FAE72DE9FC4105460C4616461F4611
:10AD900005EB8500134901EB4000807918B9C72CF9
:10ADA00016DDDD2C14DA8DF800508DF801408DF899
:10ADB0000260CDF80370072269460948FFF7C6FE16
:10ADC000AFF26D03C8220021032000F0A5FE02E0CF
:10ADD000284601F0B2FBBDE8FC810000F015002020
:10ADE000E01500201002002010B5044662480078EB
:10ADF00008B1122010BD01205F490870D4F803008B
:10AE00005E490860072000594860E07A0872217B9B
:10AE10005A4841720D20015B58484181584B4FF40C
:10AE20007A720021084600F077FE0120E2E75348DD
:10AE3000006870475148007A704703460D2008703B
:10AE40004E48006810604D48406850604B48007A9A
:10AE500010724A48407A50724848408950814648AA
:10AE6000007810730120704770B5044600254248F1
:10AE70000078012801D0122070BD02203E490870E0
:10AE8000D4F803003D490860072000594860E07A83
:10AE90000872217B394841720D20015B374841819E
:10AEA0000120FCF7B5F9374B41F288320021084602
:10AEB00000F032FEFCF7B3F905463048007A421C38
:10AEC00000212846FFF716FA0120D5E703460D209A
:10AED00008702A4800681060284840685060274879
:10AEE000007A10722548407A507224484089508177
:10AEF0002148007810730120704710B50446214B9B
:10AF000041F288320021084600F006FEE078FF2872
:10AF100012D11948007802280ED11A4800F06EFEAE
:10AF200004F053FB184B4FF47A720021084600F0EE
:10AF3000F3FD002010490870012010BD70B50646D1
:10AF40000C46154601202070FCF76BF92870012093
:10AF500070BD10B504460020074908700B4800F08A
:10AF60004DFE012010BD0346012008700248007804
:10AF70001070012070470000A1010020881D0020F2
:10AF8000AFF50008CBF50008D5F5000861F500081D
:10AF90002820704710B5002001F061FA10BD10B5EF
:10AFA000044601F04AFC04F067FB03F0E1F801F00D
:10AFB000D6FEFFF7C9FEFA4802F062FE0022072122
:10AFC0000220FFF74DFDAFF233034FF47A720021F8
:10AFD000084600F0A1FD10BD2DE9F05F83460C4648
:10AFE0001546002602F0B6FE0746D7F810A0D7F89F
:10AFF0000080D7F804900020207042F2D8702178A9
:10B0000068522078801C20702178DAF80800685097
:10B010002078001D2070E349D9F80000884201D152
:10B02000C01701E0D9F80400217868502078001D8D
:10B0300020702178D8F8000068502078001D20701A
:10B0400008F1240605E031782278501C2070A954BC
:10B05000761C30785A2802DC30783028F3DA012068
:10B06000BDE8F09F2DE9F04105460C46164602F07A
:10B0700071FE8046D8F81070A87850B1B5F803106A
:10B080007868884205D0B5F803004FF6FF71884212
:10B0900010D100202070B888217870522078801C50
:10B0A00020702178B86870502078001D2070012031
:10B0B000BDE8F0811220FBE710B50446A078042813
:10B0C00001DCA07808B90F2010BDD4F80300B44902
:10B0D000091F0860042001F0F9FB08B91020F3E70C
:10B0E0000120F1E70346AE48001F0068106004200D
:10B0F00008700120704770B504466568E67815B1A0
:10B10000B5F1FF3F01D10E2070BD3146284601F058
:10B1100015FCF9E770B506460C46154601F048FCEB
:10B12000286004202070012070BD03469C48001F49
:10B1300040681060042008700120704710B5044674
:10B14000E078052801DCE07808B90F2010BDE07830
:10B150009349091F08720831012001F0B7FB08B9B3
:10B160001020F3E70120F1E703468D48001F007A25
:10B17000107001200870704770B50546A87819282E
:10B1800006DCA878052190FBF1F201FB120008B162
:10B190000F2070BDA878052190FBF1F0C6B2002405
:10B1A0000EE004EB8401E81C405C28B104EB840150
:10B1B000E81C405C052801DD0E20EAE7601CC4B2F3
:10B1C000B442EEDB002410E004EB8400401CE91CD8
:10B1D0000A5804EB8401E81C405C401E7049891D3C
:10B1E00001EB80000260601CC4B2B442ECDB6C492D
:10B1F000891D142001F06AFB08B91020C9E701205D
:10B20000C7E7F0B503460C460025D878FF2827D1BC
:10B2100000202070002120E06148801D00EB8100AB
:10B220000068C0B15E48801D00EB81000068401CD2
:10B2300088B1481C05EB850690555948801D00EBE8
:10B240008100066805EB8507501CC6512078401D1B
:10B250002070681CC5B2481CC1B20529DCDB13E0B4
:10B26000D87810B1D878052801DD0F20F0BDD87846
:10B270001070D878401E4A4EB61D06EB800000685C
:10B28000C2F80100052020700120EFE710B5044648
:10B29000E07808B1012000E000204149091F8877CB
:10B2A0001E31012001F012FB08B9102010BD012051
:10B2B000FCE703463A48001F807F012800D100E0E8
:10B2C0000020107001200870704770B50446A07807
:10B2D000052801DCA07808B90F2070BDE078C0B95E
:10B2E000012511E005EB85012F4A606842F8110045
:10B2F00005EB850002EB4001042001F007FB08B9D3
:10B300001020EAE7681CC5B2FCF7B2FEA842E9DCEF
:10B3100018E0FCF7ADFEE178884201DC0E20DCE7A6
:10B32000E17801EB8101204A606842F81100E07881
:10B3300000EB800002EB4001042001F0E7FA08B9BD
:10B340001020CAE70120C8E72DE9F04104460D4668
:10B350001646A078032801DCA07810B90F20BDE8BC
:10B36000F081E078A0B90127002028700BE007EBFE
:10B3700087000D4951F81000297870502878001D79
:10B380002870781CC7B2FCF773FEB842EFDC16E0F9
:10B39000FCF76EFEE178884208DC0E20DFE7000053
:10B3A00004190020558778AA10020020E07800EBED
:10B3B0008000F74951F81000306004202870012007
:10B3C000CDE770B50446A078032801DCA07808B961
:10B3D0000F2070BDE078D0B9012513E0A08805EBFF
:10B3E0008501EB4A02EB4101888005EB850002EB09
:10B3F0004000011D022001F089FA08B91020E8E799
:10B40000681CC5B2FCF734FEA842E7DC1AE0FCF782
:10B410002FFEE178884201DC0E20DAE7A088E1788F
:10B4200001EB8101DA4A02EB41018880E07800EB10
:10B43000800002EB4000011D022001F067FA08B90C
:10B440001020C6E70120C4E72DE9F04104460D466F
:10B450001646A078032801DCA07810B90F20BDE8BB
:10B46000F081E078A8B90127002028700CE007EBF4
:10B470008700C74901EB40008088297870522878FE
:10B48000801C2870781CC7B2FCF7F2FDB842EEDCD5
:10B4900010E0FCF7EDFDE178884201DC0E20DEE7EC
:10B4A000E07800EB8000BA4901EB400080883080F2
:10B4B000022028700120D2E770B50446A078022847
:10B4C00001DCA07808B90F2070BDE078D0B9012563
:10B4D00013E0207905EB8501AD4A02EB4101C8710B
:10B4E00005EB850002EB4000C11D012001F00EFAC2
:10B4F00008B91020E8E7681CC5B2FCF7B9FDA842FE
:10B50000E7DC1AE0FCF7B4FDE178884201DC0E20AC
:10B51000DAE72079E17801EB81019D4A02EB4101F4
:10B52000C871E07800EB800002EB4000C11D0120F3
:10B5300001F0ECF908B91020C6E70120C4E72DE9B5
:10B54000F04104460D461646A078022801DCA0789A
:10B5500010B90F20BDE8F081E078A8B901270020DC
:10B5600028700CE007EB8700894901EB4000C079A7
:10B57000297870542878401C2870781CC7B2FCF7D2
:10B5800077FDB842EEDC10E0FCF772FDE17888420E
:10B5900001DC0E20DEE7E07800EB80007C4901EB67
:10B5A0004000C0793070012028700120D2E770B5CA
:10B5B0000446A078032801DCA07808B90F2070BDEC
:10B5C000E07808BB01251AE0207905EB8501704A77
:10B5D00002EB41010872607905EB850102EB410144
:10B5E000487205EB850002EB400000F108010220E3
:10B5F00001F08CF908B91020E1E7681CC5B2FCF72E
:10B6000037FDA842E0DC22E0FCF732FDE178884219
:10B6100001DC0E20D3E72079E17801EB81015C4A5F
:10B6200002EB410108726079E17801EB810102EBE4
:10B6300041014872E07800EB800002EB400000F12D
:10B640000801022001F062F908B91020B7E70120D3
:10B65000B5E72DE9F04104460D461646A0780328CB
:10B6600002DD0F20BDE8F081E07808B1A078F0B9E4
:10B6700001270020287015E007EB8700444901EB03
:10B680004000007A2978705407EB8700404901EBAD
:10B690004000417A2878401C31542878801C28705A
:10B6A000781CC7B2FCF7E4FCB842E5DC17E0FCF715
:10B6B000DFFCE178884201DC0E20D3E7E07800EB84
:10B6C0008000334901EB4000007A3070E07800EBF5
:10B6D000800001EB4000407A707002202870012049
:10B6E000C0E770B50446A078052801DCA07808B949
:10B6F0000F2070BDE078D0B9012513E0207905EB6B
:10B700008501234A02EB4101887105EB850002EBBC
:10B710004000811D012001F0F9F808B91020E8E788
:10B72000681CC5B2FCF7A4FCA842E7DC1AE0FCF7F1
:10B730009FFCE178884201DC0E20DAE72079E1788D
:10B7400001EB8101124A02EB41018871E07800EBC4
:10B75000800002EB4000811D012001F0D7F808B9FC
:10B760001020C6E70120C4E72DE9F04104460D464C
:10B770001646A078032802DD0F20BDE8F081E078AE
:10B7800008B1A078C0B90127002028700FE00000A0
:10B790001002002007EB8700B04901EB40008079E0
:10B7A000297870542878401C2870781CC7B2FCF7A0
:10B7B0005FFCB842EEDC10E0FCF75AFCE17888420E
:10B7C00001DC0E20D9E7E07800EB8000A34901EB13
:10B7D000400080793070012028700120CDE72DE9EC
:10B7E000F04104460D461746E178207901EB002030
:10B7F00086B26079822802DD0E20BDE8F081B6F5C0
:10B80000004F01DB1120F8E760793044B0F5004FBC
:10B8100002DD7042287001E06079287029783A468C
:10B82000304602F0D9FA08B91020E6E70120E4E733
:10B8300010B50446A07810B900F0F8FF08E0A07831
:10B84000052805D1E1788800221D042102F000FBC3
:10B85000012010BD70B506460C4615462946204607
:10B8600001F029F8012070BD10B50446A078012828
:10B8700001DD0F2010BDA078012805D1E07818B9AE
:10B88000022000F0B8FF1CE0A07818B9012000F0F9
:10B89000B2FF16E0FCF7ECFBE17888420FDDE078C0
:10B8A00000F04CFFE07800F02AFFE07800F0FFFEA7
:10B8B000E07801F066FAE07802F0D8FF01E00E20AF
:10B8C000D8E70120D6E770B50446D4F80360A07825
:10B8D000042810D1FCF734FB4FF47A717143B0FBAC
:10B8E000F1F201FB12055E4B2A460021084600F0EA
:10B8F00013F9012070BD0F20FCE770B50446A07855
:10B9000008B90F2070BDE078022804D003280ED0BB
:10B9100005281FD114E02079611D02F033FE054691
:10B92000012D02D1A0700220ECE72846EAE76179F8
:10B93000207902F0DAFE012800D1E3E71520E1E7E3
:10B9400061792079A21D02F058FE012800D1D9E7C3
:10B950001620D7E700BF00BF0E20D3E770B504461E
:10B960000D461646E078012802D0042814D109E0DB
:10B970006179207933462A4602F065FE012800D11C
:10B9800070BD0AE06179207933462A4602F091FEC3
:10B9900008B10120F4E700E000BF00BF1520EFE789
:10B9A00070B50446A07808B90F2070BDE078022871
:10B9B00004D003280ED005281FD114E02079611D82
:10B9C00002F0B5FE0546012D02D1A0700220ECE781
:10B9D0002846EAE76179207902F087FE012800D144
:10B9E000E3E71520E1E761792079A21D02F0F9FE75
:10B9F000012800D1D9E71620D7E700BF00BF0E20ED
:10BA0000D3E710B50446A07808B90F2010BDE07840
:10BA100018B9012002F078FD05E0E07802F026FF79
:10BA200008B91720F2E70120F0E77CB506460D467D
:10BA3000144600200190FF200090694601A8FAF703
:10BA4000AEFE012808D1019820609DF80000207109
:10BA50000520287001207CBD1220FCE71002002088
:10BA600023C600080020C9490860704730B5034666
:10BA70000C4619460AE00846491CC44D2D1D05EB2D
:10BA80000010C068904201D1C8B230BDA142F2D3CB
:10BA90000020FAE77FB50546BC4A1288BB4B5B889D
:10BAA000D118BA4A10882A46FFF7E0FF044694B33B
:10BAB000B6480088201A012824D9601EB34A121DF6
:10BAC00002EB001110226846FEF7F2FBAF4B1B8819
:10BAD000E31A1A01AD4B1E881B1D03EB06111B1F39
:10BAE0001B885B1CA94E361D06EB0310FEF70BFCF2
:10BAF000311F0A88091D01EB021010226946FEF76A
:10BB0000D7FB00BFA1480088401CA0490880084618
:10BB10004088401E48807FBD2DE9F0410746884699
:10BB200015461E4600BF9948008898494988084430
:10BB3000142802DB0020BDE8F08100BF9348008894
:10BB4000924A5288811832460020FFF78FFF00BBCF
:10BB50008E4B5B881A018D4BB3F800C01B1D03EBA5
:10BB60000C111B1F1B885B1CDFF820C20CF1040C9E
:10BB70000CEB0310FEF7C7FB844804880088401CC8
:10BB80008249088000218148001D00EB04100170EB
:10BB90000CE03046FFF77EFF7C4800887B4A5288E5
:10BBA000811832460020FFF761FF441E7748001DD0
:10BBB00000EB041047707548001D00EB0410C660D0
:10BBC0004FB905B96D1C4FF0010800216F48001DE9
:10BBD00000EB041001706D48001D00EB0410A0F88C
:10BBE00002806A48001D00EB041045600021674890
:10BBF000001D00EB0410816001209CE770B5054634
:10BC000062480088614A528881182A460020FFF75E
:10BC10002DFF044604B35D4B1B885C4E768833448D
:10BC20001B1B1A01594B1B1D03EB0411631E574EBE
:10BC3000361D06EB0310FEF766FB301F0088A0429E
:10BC400005D2301F4088401E311F488004E04F4815
:10BC50000088401E4D49088070BD7FB505464B48A1
:10BC600001882A460020FFF701FF044654B3601EF6
:10BC7000464A121D02EB001110226846FEF718FB1F
:10BC8000424B1B881B1B1A01404B1B1D03EB04116D
:10BC9000631E3E4E361D06EB0310FEF734FB311FCC
:10BCA0000988491E8AB2311F0A80091D01EB021062
:10BCB00010226946FEF7FCFA301F4088401C311FF5
:10BCC000488000BF7FBD70B50024304C241D27E0A4
:10BCD000207820B3E56800202070607830B101281A
:10BCE00007D002280FD0032816D10EE001202070C3
:10BCF00000BF6188481E608021B92846FFF77EFF9B
:10BD0000103C0AE000BFA84707E0A84718B928463A
:10BD1000FFF774FF103C00E000BF00BF00BF10340D
:10BD20001A480188001D00EB0110A042D0D870BD58
:10BD30001648001D0AE08168491C816042689142F2
:10BD400003D3002181600121017010300F490A885E
:10BD5000091D01EB02118142EDD8704770B5044610
:10BD60000A480088094A5288811822460020FFF7B5
:10BD70007DFE05460DB9002070BD04480088801C7A
:10BD8000A84201DD0120F7E70220F5E77016002048
:10BD9000F0B5A1B00446A07800282ADDA778E51CFC
:10BDA00021E0A878802802DD0F2021B0F0BD02201C
:10BDB0008DF80400A878C21C29460DF10500FEF795
:10BDC00077FA01A8FEF75EFB0646012E08D0BDF803
:10BDD0000500A4F8030066710320A0700220E4E7C8
:10BDE000A878C01C0544E01C3844A842D9D80120DA
:10BDF000DBE70F20D9E770B588B00446A0780028AB
:10BE000026DDA678E51C1DE0A8780D2802DD0F20B0
:10BE100008B070BDA87800F1080229466846FEF710
:10BE200047FA684603F06FFF48B9BDF80100A4F86F
:10BE300003001C2161710320A0700220E8E7A878AC
:10BE400008300544E01C3044A842DDD80120DFE77B
:10BE50000F20DDE72DE9F043C1B007460C4616463A
:10BE600000202070B878002840DD97F8029001A8E3
:10BE700000EB090580464A46F91C4046FEF718FAD1
:10BE80002EE00520287018F8010B687018F8010BD7
:10BE9000A8700020E8702846FEF7F4FA01281FD1A8
:10BEA00069782278501C2070B154A9782278501CEF
:10BEB0002070B154E878401EC1B2E9702278501C5D
:10BEC0002070B154EA7821788819691DFEF7F0F9DD
:10BED0002078E978084420702078C82800DD03E045
