:020000040800F2
:200000006802002095010008990100089B0100089D0100089F010008A1010008000000007A
:20002000000000000000000000000000A3010008A501000800000000A7010008A901000804
:20004000AB010008AB010008AB010008AB010008AB010008AB010008AB010008AB01000800
:20006000AB010008AB010008AB010008AB010008AB010008AB010008AB010008AB010008E0
:20008000AB010008AB010008AB010008AB010008AB010008AB010008AB010008AB010008C0
:2000A000AB010008AB010008AB010008AB010008AB010008AB010008AB010008AB010008A0
:2000C000AB010008AB010008AB010008AB010008AB010008AB010008AB010008AB01000880
:2000E000AB010008AB010008AB01000800F002F800F03CF80AA090E8000C82448344AAF180
:200100000107DA4501D100F031F8AFF2090EBAE80F0013F0010F18BFFB1A43F001031847CF
:200120005C0100007C010000103A24BF78C878C1FAD8520724BF30C830C144BF04680C606D
:20014000704700000023002400250026103A28BF78C1FBD8520728BF30C148BF0B607047BF
:200160001FB500F084F81FBD10B510BD00F043F81146FFF7F5FF00F030F800F061F803B44D
:20018000FFF7F2FF03BC00F06BF8000080F308887047000008480047FEE7FEE7FEE7FEE781
:2001A000FEE7FEE7FEE7FEE7FEE7FEE703480449024A044B70470000ED000008680000207A
:2001C000680200206800002070B5044625462868FFF7DCFF6868804770BD10B5034909688C
:2001E0008868FFF7F1FF002010BD000000000020704770477047754600F028F8AE46050033
:200200006946534620F00700854618B020B5FFF7CDFFBDE820404FF000064FF000074FF086
:2002200000084FF0000B21F00701AC46ACE8C009ACE8C009ACE8C009ACE8C0098D46704763
:200240000446AFF300802046FFF799FF004870470400002001487047704700BF080000207D
:2002600001491820ABBEFEE726000200704710B5FFF7F0FF4FF00001016010BD9C02000811
:20028000000000200400000028010008A0020008040000206402000044010008000400087C
:10030000409C000000000000170BDF0705171100DC
:100310004645562D30312D4C61726B3733313800E4
:1004000030000000204E000000080008000000003E
:100420005300000000000000000000000000000079
:020000040800F2
:10080000F02600206D0B0008750B0008770B000820
:10081000790B00087B0B00087D0B0008000000002E
:100820000000000000000000000000007F0B000836
:10083000810B000800000000830B0008C1200008A5
:10084000870B0008870B0008870B0008870B000840
:10085000870B0008870B0008870B0008870B000830
:10086000870B0008870B0008870B0008870B000820
:10087000870B0008870B0008870B0008870B000810
:10088000870B0008870B0008870B0008870B000800
:10089000870B0008870B0008870B0008870B0008F0
:1008A000870B0008870B0008870B0008870B0008E0
:1008B000870B0008870B0008870B0008870B0008D0
:1008C000870B0008870B0008870B0008870B0008C0
:1008D000870B0008870B00087F250008870B00089E
:1008E000971C0008870B0008870B000800F002F82F
:1008F00000F03AF80AA090E8000C82448344AAF180
:100900000107DA4501D100F02FF8AFF2090EBAE87D
:100910000F0013F0010F18BFFB1A43F00103184733
:10092000EC7600000C770000103A24BF78C878C13C
:10093000FAD8520724BF30C830C144BF04680C60E5
:10094000704700000023002400250026103A28BF2D
:1009500078C1FBD8520728BF30C148BF0B60704731
:100960001FB51FBD10B510BD06F094FD1146FFF771
:10097000F7FF01F007FC06F0B2FD03B4FFF7F2FF4A
:1009800003BC06F0B7FD00000CB5002001900090FC
:100990006C48006840F480306A49086000BF6948CC
:1009A000006800F4003000900198401C019000980D
:1009B00018B90198B0F5A06FF1D16248006800F451
:1009C000003010B10120009001E00020009000985C
:1009D000012843D15C48006840F010005A49086083
:1009E0000846006820F0030008600846006840F0F0
:1009F0000200086053484068524948600846406811
:100A000048600846406840F4806048600846406896
:100A100020F47C1048600846406840F4E8104860C4
:100A20000846006840F08070086000BF45480068D4
:100A300000F000700028F9D04248406820F0030020
:100A4000404948600846406840F00200486000BFE6
:100A50003C48406800F00C000828F9D10CBD10B5E6
:100A6000FFF792FF10BD10B53648006840F0010056
:100A700034490860084640683449084031494860B4
:100A800008460068324908402E4908600846006858
:100A900020F4802008600846406820F4FE0048608A
:100AA0004FF41F008860FFF7DAFF2A4800682A49E0
:100AB000086010BD10B5002100200022214B5B68AA
:100AC00003F00C0121B1042906D0082928D107E040
:100AD000224B234C236027E0204B214C236023E052
:100AE000184B5B6803F47010164B5B6803F480329C
:100AF000022303EB904022B91A4B4343184C236066
:100B00000DE0104B5B6803F4003323B1154B4343F6
:100B1000134C236003E0114B4343114C236003E06B
:100B20000E4B0F4C236000BF00BF064B5B68C3F346
:100B300003130D4CE15C0A4B1B68CB40084C23604F
:100B400010BD000000100240002002400000FFF82D
:100B5000FFFFF6FE0804000808ED00E000127A002E
:100B60000000002000093D000400002009488047E3
:100B700009480047FEE7FEE7FEE7FEE7FEE7FEE77F
:100B8000FEE7FEE7FEE7FEE704480549034A054B9A
:100B900070470000670A0008ED080008F01A0020FE
:100BA000F0260020F01A002008B54021012000F0B6
:100BB0007EF9D0B91A4801680068401C184A1060D4
:100BC00029B9184B14220021022004F000F814481F
:100BD0000068FA2811D114A000680090022004F0E7
:100BE00066FC684604F00AFA07E00D48006820B188
:100BF00000F004F800200A49086008BD10B508227A
:100C00004021012000F00CF94021012000F036F9CC
:100C1000044B4FF4FA620021022003F0D8FF10BD0C
:100C200014000020A90B0008005A010079487A49F5
:100C300048607A48486070477748006940F0800013
:100C40007549086170477448C06800F0200020B101
:100C500020207149C860012070470020FCE7014650
:100C600000E0491E29B16C48C06800F0010000286E
:100C7000F7D109B9012070476748C06800F0140037
:100C800020B11420644AD0600120F4E70020F2E78C
:100C900070B505464FF40050FFF7E1FF0446B4B9C4
:100CA0005D48006940F002005B4908610846456103
:100CB000006940F0400008614FF40050FFF7CFFF9B
:100CC00004465548006920F002005349086114B9F0
:100CD000FFF7B9FF0446204670BD70B505460E46C5
:100CE0004FF44050FFF7BBFF04468CB94A480069F7
:100CF00040F00100484908612E804FF44050FFF752
:100D0000AEFF04464448006920F0010042490861F2
:100D10001CB9FFF798FF00B10124204670BD70B5E3
:100D200005460C4616464FF44050FFF798FFF0B9C1
:100D30003948006940F00100374908610EE0308809
:100D40002880B61CAD1CA41E4FF44050FFF787FF4F
:100D500018B9FFF778FF08B902E001E0002CEED1E6
:100D600000BF2D48006920F001002B4908610CB933
:100D7000012070BD0020FCE710B500244FF4405066
:100D8000FFF76DFFD8B9FFF751FF2348006940F026
:100D90002000214908610846006940F040000861D0
:100DA0004FF44050FFF75BFF18B9FFF74CFF00B15D
:100DB00001241948006920F02000174908612046E5
:100DC00010BD70B504460D4600264FF44050FFF7A5
:100DD00046FFE0B9FFF72AFF0F48006940F0100016
:100DE0000D4908610846006940F04000086125701F
:100DF0004FF44050FFF733FF18B9FFF724FF00B15D
:100E000001260548006920F02000034908613046AA
:100E100070BD00002301674500200240AB89EFCD83
:100E2000F0B503461446254D05EB8322244DAD69EC
:100E30009E1C0127B7403D43214EB56100201AE0BA
:100E400001F00105ADB1C50852F825504607F70E6F
:100E50000F26BE40B543C60842F82650C50852F8D2
:100E600025504607F60E04FA06F63543C60842F842
:100E700026504910401C0029E2DCF0BD02460B461A
:100E80000E4800EB8221C8681843C860C86880B269
:100E900070470A4B03EB8022D3688B43D3607047C3
:100EA000064B03EB8022D3684B40D3607047024669
:100EB000024800EB82239868084070470008014010
:100EC00000100240002107E0052101E04A1E91B216
:100ED0000029FBDC421E90B20028F5DC704710B5FB
:100EE000032211020120FFF79BFF4FF44071012004
:100EF000FFF7C4FF032280210120FFF791FF80212B
:100F00000120FFF7BBFF10BD10B54FF400710120A9
:100F1000FFF7B4FF4FF480710120FFF7AFFF02200D
:100F2000FFF7D0FF4FF400710120FFF7B2FF02205E
:100F3000FFF7C8FF4FF480710120FFF7AAFF10BD33
:100F400010B54FF400710120FFF7A3FF0220FFF757
:100F5000B9FF4FF480710120FFF790FF0220FFF7E7
:100F6000B1FF4FF400710120FFF788FF0220FFF767
:100F7000A9FF10BD10B504464FF480710120FFF7A2
:100F800088FF0220FFF79EFF2CB14FF40071012073
:100F9000FFF774FF04E04FF400710120FFF779FFC1
:100FA0000220FFF78FFF4FF480710120FFF766FFEB
:100FB0000220FFF787FF4FF480710120FFF769FFE0
:100FC00010BD10B50024082291010120FFF728FF71
:100FD0004FF400710120FFF751FF0220FFF772FF6D
:100FE0004FF480710120FFF749FF0220FFF76AFFED
:100FF00012E0601C80B20446B0F5FA7F0CDD0322DB
:101000004FF400710120FFF70BFF4FF40071012036
:10101000FFF734FF002010BD4FF400710120FFF7EF
:1010200046FF0028E5D14FF480710120FFF731FF22
:101030000220FFF747FF03224FF400710120FFF762
:10104000EFFE4FF400710120FFF718FF0220FFF7B9
:1010500039FF0120DFE770B504464FF480710120AD
:10106000FFF717FF0220FFF72DFF002524E004F013
:10107000800028B14FF400710120FFF7FFFE04E06B
:101080004FF400710120FFF704FF6006040E0220F8
:10109000FFF718FF4FF480710120FFF7EFFE0220E9
:1010A000FFF710FF4FF480710120FFF7F2FE0220DE
:1010B000FFF708FF681CC5B2082DD8DBFFF781FFDA
:1010C00070BD70B506460024082291010120FFF78B
:1010D000A7FE4FF400710120FFF7D0FE00251EE0AF
:1010E0004FF480710120FFF7D4FE0220FFF7EAFEE3
:1010F0004FF480710120FFF7C1FE0220FFF7E2FEEE
:101100006006040E4FF400710120FFF7D0FE08B115
:10111000601CC4B20220FFF7D5FE681CC5B2082DC2
:10112000DEDB4FF480710120FFF7B3FE0220FFF7F2
:10113000C9FE03224FF400710120FFF771FE4FF446
:1011400000710120FFF79AFE0220FFF7BBFE304638
:10115000FFF710FF204670BD70B505460C4600BF76
:10116000FFF7D2FE2846FFF776FF10B9601E040095
:10117000F6D1FFF7E5FE0CB1012070BD0020FCE7C1
:101180002DE9F04107460E4615461C46FFF7BCFE0A
:101190003846FFF760FFF0B13012FFF75CFFD0B1C7
:1011A000F0B2FFF758FFB0B1FFF7AEFE47F0010015
:1011B000FFF751FF78B106E00020FFF782FF05F846
:1011C000010B601EC4B2012CF6DC601EC4B201200B
:1011D000FFF777FF2870FFF7B3FE14B90120BDE8D1
:1011E000F0810020FBE72DE9F04107460D46164649
:1011F0001C4680210120FFF74CFEFFF785FE384694
:10120000FFF729FF98B12812FFF725FF78B1E8B260
:10121000FFF721FF58B107E016F8010BFFF71BFF9E
:1012200000B903E0601EC4B2002CF5DC00BFFFF77C
:1012300087FE80210120FFF721FE14B90120BDE8BF
:10124000F0810020FBE72DE9F04107460D461646E8
:101250001C4680210120FFF71CFEFFF755FE384693
:10126000FFF7F9FE90B12812FFF7F5FE70B1E8B272
:10127000FFF7F1FE50B106E03046FFF7ECFE00B993
:1012800003E0601EC4B2002CF6DC00BFFFF758FE7E
:1012900080210120FFF7F2FD14B90120BDE8F081A3
:1012A0000020FBE710B54FF480710020FFF7E6FD4A
:1012B00010BD10B54FF480710020FFF7EAFD0F4B11
:1012C00002220021084603F082FC10BD10B5022264
:1012D000D1010020FFF7A4FDAFF22903FA2210216B
:1012E000012003F074FC10BD10B5AFF23903642285
:1012F0001421012003F06BFC10BD0000A5120008B2
:1013000070B505460C46FFF791FC03E0A4F5806438
:1013100005F580652846FFF7BBFC10B1B4F5806F7A
:10132000F4D8FFF789FCB4F5806F01D8012070BDB7
:101330000020FCE72DE9F04106460C46174604F074
:10134000010000B1641CFFF771FC3A4621463046AB
:10135000FFF7E5FC0546FFF76FFC2846BDE8F08186
:10136000034604E018681060121D1B1D091F0029A8
:10137000F8D1012070474FF0FF30704708B10121CC
:1013800000E00021FE4A11707047FE487047FE4899
:101390000078704770B505460C464FF48051012027
:1013A000FFF777FD284600F007FD204600F004FD1A
:1013B00006464FF480510120FFF760FD304670BDB6
:1013C00010B5F248006820F48060F04908600222FD
:1013D000C9140120FFF724FD0222D1020120FFF7EA
:1013E0001FFD042211020120FFF71AFD0422510201
:1013F0000020FFF715FD4FF480610120FFF73EFD4F
:101400004FF400610020FFF739FD00F000FD0420DB
:1014100000F050FD10BD0120DD490870704710B587
:1014200005218720FFF7B6FF02218E20FFF7B2FFCC
:1014300002218820FFF7AEFF00218820FFF7AAFFD6
:1014400013218520FFF7A6FF80218620FFF7A2FF4A
:1014500000210320FFF79EFF00210420FFF79AFFE1
:10146000CA48006840F48060C849086010BD10B5E3
:10147000C648006820F48060C449086000218E20BE
:10148000FFF788FF01218720FFF784FF00218520D7
:10149000FFF780FF00218620FFF77CFF002103205B
:1014A000FFF778FF00210420FFF774FF022002F00D
:1014B000CBFC10BD10B50446B64A2146022002F00E
:1014C000D1FC10BD10B500212620FFF763FF0446B4
:1014D000B1480078A04203DAAF480078201A02E051
:1014E000AD480078001B08284EDA6410AA4800783E
:1014F00004EB6000A84908700846C078401CC0B2E0
:10150000C870142860DD084600780A2803DB084606
:101510000078DC2803DD0420FFF7CCFF30E09E4894
:10152000007814309D49087008460178A720FFF71D
:1015300031FF9B480068F8B100F0BFFD9849096889
:10154000884205D200F0B9FD95490968081A04E0FF
:1015500000F0B3FD92490968401A9249884206D2C8
:101560000420FFF7A7FF00208D49086008E000F085
:10157000A4FD8B49086003E000F09FFD88490860E6
:1015800000208949086010BD83484078A04203DAF2
:1015900081484078201A02E07F484078001B3228BA
:1015A0000DDA7D488078401CC0B27B4988700428E1
:1015B0000ADD084604700020C870887004E0764890
:1015C000447000207449887077480068401C764950
:1015D0000860B0F5167F06D9002008600420FFF7E8
:1015E00069FF0020CFE70120CDE710B5FFF7E8FE47
:1015F0004FF480510120FFF741FC4FF400610120BE
:10160000FFF73CFC022002F01FFC4FF400610120B8
:10161000FFF73FFC322002F017FC00210320FFF708
:10162000B9FE00210420FFF7B5FE80218720FFF7D7
:10163000B1FE022002F008FC00218720FFF7AAFE7D
:1016400000218520FFF7A6FE00218620FFF7A2FEDD
:1016500000210320FFF79EFE00210420FFF79AFEE1
:1016600079218920FFF796FE06218A20FFF792FE56
:10167000EA218B20FFF78EFEEA218C20FFF78AFEFD
:10168000FC218D20FFF786FE00218E20FFF782FED1
:10169000464801789C20FFF77DFE444841789D2014
:1016A000FFF778FE414881789E20FFF773FE3F48A0
:1016B000C1789F20FFF76EFE3C480179A020FFF71C
:1016C00069FE3A484179A120FFF764FE37488179E5
:1016D000A220FFF75FFE3548C179A320FFF75AFE2D
:1016E0003248017AA420FFF755FE3048417AA52000
:1016F000FFF750FE2D48817AAA20FFF74BFEAC2160
:10170000B020FFF747FE0021B220FFF743FE022181
:10171000B320FFF73FFE1021B420FFF73BFE282146
:10172000B520FFF737FE2D21B620FFF733FED42179
:10173000B720FFF72FFE0021B820FFF72BFE002176
:10174000B920FFF727FE4221BA20FFF723FE4521EB
:10175000BB20FFF71FFE5321BC20FFF71BFE5421C7
:10176000BD20FFF717FE4221BF20FFF713FE4521E2
:10177000C020FFF70FFE5321C120FFF70BFE17E03B
:101780001B0000206400002018000020000401401D
:1017900019000020EB150008240000201A0000208A
:1017A0002C000020A068060028000020A47A000871
:1017B0005421C220FFF7EEFDFF21C320FFF7EAFD11
:1017C000FF21C420FFF7E6FDFF21C520FFF7E2FD62
:1017D000FF21C620FFF7DEFDFE48C17AD820FFF7C3
:1017E000D9FDFC48017BE920FFF7D4FDF948417B96
:1017F000EE20FFF7CFFDF748817BEF20FFF7CAFD12
:10180000F448C17BF020FFF7C5FDF248017CF120D0
:10181000FFF7C0FDEF48417CF220FFF7BBFD03F06E
:1018200012FD04462146F520FFF7B4FDE948C17CCE
:10183000F620FFF7AFFDE748017DF720FFF7AAFD8F
:101840000021F320FFF7A6FD0021F420FFF7A2FD01
:101850000021F920FFF79EFD0021FA20FFF79AFDF5
:101860000721ED20FFF796FDDB480178A720FFF761
:1018700091FDDA4B4FF4C8720021032003F0A7F961
:101880001E21FC20FFF786FD0C21FD20FFF782FDC5
:101890003221FE20FFF77EFD01220A21104600F0D2
:1018A00088FB022328220021184600F039FBCC488F
:1018B000006820F48060CA490860FFF7D8FDFFF790
:1018C000AEFDFFF7A8FD10BD10B503218820FFF77E
:1018D00061FD08218820FFF75DFD01218E20FFF7C3
:1018E00059FD10BD2DE9F04106460C4690460025F5
:1018F000FFF7BDFDFFF7E8FF2146BE20FFF74AFDD9
:101900001DE04FF4805503E0142002F091FA6D1EA3
:1019100000210320FFF73EFD00F0200008B9002D54
:10192000F2D1002707E016F8011BFF20FFF732FD78
:10193000601EC4B27F1C322F01D2002CF3D1002CC8
:10194000DFD109218720FFF725FD4FF4C87002F091
:101950006FFA4FF4805506E0681E050003D104209D
:10196000FFF7A8FD08E000210320FFF713FD00F0BA
:10197000040008B9002DEFD100BFFFF778FDFFF795
:101980004EFDBDE8F0810EB596A207CA8DE80700AE
:1019900001231A460A21684600F0D8FC0EBD1FB587
:1019A00093A30FCB8DE80F0001F0BAFA02220D21AC
:1019B000684600F0D4FD1FBD00B587B01C2290A181
:1019C000684605F00BFD02221B21684600F0C7FDAA
:1019D00007B000BD2DE9F04391B007464FF0000974
:1019E0004FF0010846E14846411C01F0FF09052877
:1019F00006DD0520FFF75EFD00208849087041E103
:101A000000210320FFF7C6FC044600210420FFF755
:101A1000C1FC054605F0800028B100212620FFF713
:101A2000B9FC7F49087004F0010018B100207B491F
:101A3000087027E104F01000002853D0002607E0CA
:101A400000217F20FFF7A6FC01A98855701CC6B2B3
:101A5000322EF5DB9DF81D00F0282FD17149049836
:101A6000496888422AD100F06AFF00F008FF012887
:101A700013D16D4801780078401C6B4A1070032028
:101A800091FBF0F200FB1210F0B9AFF20513052242
:101A90000021084603F09BF816E0AFF2FD03052293
:101AA0000021084603F093F8604803F012F932224F
:101AB00001A9384602F04CFA804605E0322201A91D
:101AC000384602F045FA804654480078CD2803DDB8
:101AD000002052490870D5E05048007832304F4914
:101AE000087000BF04F00200002871D05048007850
:101AF000D0BB00214B20FFF74DFC04461FE0002126
:101B00007F20FFF747FC45490978322291FBF2F329
:101B100002FB131101AA505440480078322190FB77
:101B2000F1F201FB120001A90E5C3146384602F0C9
:101B300082FA804639480078401C38490870374896
:101B40000078A042DBDB9DF81D00F3280BD135495E
:101B500004984968884206D1AFF2A31305220021F8
:101B6000084603F034F879E0FFE700214B20FFF747
:101B700011FC04460020294908700CE000217F2058
:101B8000FFF708FC01A9254A1278885423480078F9
:101B9000401C2249087021480078A042EEDB9DF8E5
:101BA0001D00B2280FD19DF81F00BB280BD102F0F9
:101BB00037FBDDF81610884205D1194800789DF8EA
:101BC00020101C4A505402F02BFBDDF8161033E0B5
:101BD00050E00000A47A00081A000020C514000894
:101BE00000040140C9FDBCB6C7EBB3E4B5E7000093
:101BF000FD000A0101D5FDD4DAC9FDBCB600000024
:101C0000FD00180101C9FDBCB6B3C9B9A6A3ACC992
:101C1000E8B1B8D5FDD4DAD6D8C6F4001C0000204F
:101C200018000020C01100201D0000201D29000800
:101C30001B00002064000020884206D0524890F823
:101C40005000401C504981F85000224601A93846F6
:101C500002F07EF980464D4803F03BF800204C49E5
:101C60000870B8F1000F04D100220321022002F015
:101C7000F9F800BF4FF480610120FFF718F9002840
:101C80003FF4B1AE00BF4248007808B9FFF7C7FB88
:101C900011B0BDE8F08310B53E48FFF79BFE4FF44E
:101CA00080603D49086010BD10B504463B4800887F
:101CB00070B9082C00D3012400F0FFF9384931F83D
:101CC0001410B0FBF1F201FB1200801C33490880B4
:101CD0004FF400610020FFF7EAF8F0B92F480088C0
:101CE000401E80B22D49088070BB2E480088401CE1
:101CF00080B22C490880642808DD002008802A4B27
:101D00004FF4C8720021032002F061FF0020234934
:101D1000088026490880012010BD00201F49088046
:101D20002049088021480088401C80B21F49088053
:101D3000B0F57A7F08DD002008801B4B4FF4C87295
:101D40000021032002F043FF0020E5E770B50546BF
:101D50000E46144616480078012813D12046FFF796
:101D6000A3FF78B1002231462846FFF7BBFD0020D3
:101D70000F4908700F4BC8220021084602F027FFC8
:101D8000012070BD0020FCE7640000201D29000830
:101D90001C000020FC04002014040140220000204C
:101DA000BA7A000820000020C51400081E00002098
:101DB00019000020171400080146002208E0104610
:101DC000531C9AB24FF6FE73984201DB0020704715
:101DD0004348008800F002000028F0D04048001D71
:101DE0000180002208E01046531C9AB24FF6FE73A1
:101DF000984201DB0020EAE73948008800F0010042
:101E00000028F0D03648001D0088C0B2DFE700B5DA
:101E10003448006940F4804032490861084600694E
:101E200020F4804008610846806940F0080088611D
:101E30000846C06940F48040C8612B480068C0F380
:101E400013002949086008460068284908432649C4
:101E5000086025480830006840F460402249083195
:101E600008601F48083800881D490839088008465E
:101E7000008840F4007008800846008840F48070B4
:101E800008800846008840F0040008800846008862
:101E900008800846008840F018000880084600883E
:101EA00008800846008840F040000880FF20FFF7C7
:101EB00083FF00BD00F007000949083909884FF683
:101EC000C7721140064A083A11801146098841EA52
:101ED000C00111801146098841F04001118070470E
:101EE0000838004000100240040C01400000B0BB64
:101EF000544A0A400243544B1A6070470146072374
:101F000023EA01021202504B1B1D18684FF6FF0313
:101F100018404E4B184310434B4B1B1D1860704725
:101F20002DE9F0478046894614461D462046E117B4
:101F300004EB9171C1F3870AE11704EB91718910E9
:101F4000A4EB8101CFB2042000EBC700C7B2284642
:101F5000FFF7D4FFC5F1040008FA00F60F2028416E
:101F600000EA0900064306F00F06202C09DA38487B
:101F700001680120A04001434FF0E020C0F80011AB
:101F80000BE03348001D0068A4F1200101228A40C3
:101F900010434FF0E021C1F804012E4810F80A0068
:101FA00006FA07F10843C1B22A4800F80A10BDE852
:101FB000F08770B504460B46CE1701EB9676C6F354
:101FC0008700CE1701EB9676B610A1EB8606B60613
:101FD000350E214B9B6943F001031F4EB3614FEA5D
:101FE000B63353F820300F26AE40B3431B4E46F8AD
:101FF0002030334653F8203004FA05F61E43174BC1
:1020000043F82060164B1B6801268E403343144E64
:10201000336002F0010343B1114B0C331B680126FE
:102020008E4033430E4E0C36336002F0020343B150
:102030000B4B08331E6801238B401E43084B0833AB
:102040001E6070BD80FFFF1F08ED00E00000FA0574
:1020500000E100E000E400E0001002400800014060
:102060000004014010B5482000F012F8FEF737FFD9
:10207000FFF7BBFA10BD014604480068884202D051
:102080000248006870470020FCE70000F0F7FF1FDF
:102090004FF0E021096921F004014FF0E0221161C5
:1020A0004FF47A714143C9085161002191610321C4
:1020B000116100210B4A116070470A48006870479F
:1020C00010B5084800680849B0FBF1F201FB1200A6
:1020D0000449086008460068401C0860086802F06F
:1020E000A3FE10BD300000200084D71710B50822D1
:1020F00011030220FEF794FE4FF400410220FEF788
:10210000BDFE00200149086010BD00003400002021
:1021100010B54AF6AA201A49086089140020FEF773
:10212000BFFE10BD70B505460C4645F2555014492A
:1021300008600846456084604AF6AA2008604CF6AC
:10214000CC400860022289140020FEF769FEAFF23D
:102150003F034FF448720021022002F038FD70BDA9
:1021600010B5AFF2530002F0B4FD10BD10B5044637
:10217000042291020020FEF753FE012010BD000052
:102180000030004002F0BAFCFFF76CFF4FF4FA6138
:102190000520FFF7C7FF01F01CFDFFF797F8FEF7DA
:1021A0002DFDFFF7A3FF00F00FF805E003490448F9
:1021B00001F00CFC02F003FEF8E700001C0D00200B
:1021C000FC0400200220704710B502240A490220B6
:1021D00003F0E4F90DE0601EC0B20446074901EBCC
:1021E0000010006828B1084600EB04100168204682
:1021F0008847002CEFD110BDC8000020C47A000829
:1022000010B5002419E004EB44024D4B03EB4202ED
:10221000518804EB440213F812000822FEF700FE76
:1022200004EB4402464B03EB4202518804EB4402A8
:1022300013F81200FEF722FE641C002CE3D010BD40
:1022400070B50124002516E0641E6D0004EB440205
:102250003B4B03EB4202518804EB440213F812009B
:10226000FEF725FE04EB4401354A02EB4101898863
:10227000884200D16D1C002CE6D1284670BD10B5F7
:102280000146012018E0421E1046012303FA02F223
:102290000A408AB100EB4002294B03EB42029288CC
:1022A00000EB4003264C04EB43035B885A4000EBF1
:1022B000400304EB43039A800028E4D110BD10B51D
:1022C000FFF7BEFF1F490978884217D01E480078E3
:1022D00004280BDD1C480078962807DA00201A49EC
:1022E00008701848007840F0400010BD00201649E2
:1022F0000870FFF7A5FF134908701EE01148007829
:10230000D8B111480078401CC0B20F490870C821EC
:1023100090FBF1F201FB120038B10B4800789621D6
:1023200090FBF1F201FB120038B9962006490870C3
:102330000448007840F08000D7E70020D5E700008F
:10234000380000203E0000203F000020F0B599B08A
:1023500005460C4616461F46FD208DF8000000205D
:102360008DF801008DF803608DF80470FF2C08D102
:1023700001208DF8020004226946414801F0DEFC8C
:102380000EE0A01CC0B28DF80200224629460DF1D5
:10239000050001F08DFA621D6946394801F0CEFC56
:1023A0003848C078401C3749C8700846C0780128B2
:1023B00008D108460079092801D000F0B1FD0020BD
:1023C0003049087119B0F0BD00B589B024222EA1A2
:1023D000684605F003F800F0A3FD022221216846BB
:1023E00000F0BDF809B000BD1FB530A30FCB8DE8DC
:1023F0000F0000F095FD02220D21684600F0AFF8B5
:102400001FBD10B50446A4F141000F2834D2DFE807
:1024100000F0122F3333163333333008311C2B3294
:102420000E0001201749087100F0DCFD25E00020B6
:102430001449087121E00420124908711DE00520AB
:1024400010490871FFF7D0FF17E009200D49087106
:102450000846407828B100F070FD00200949487016
:1024600001E000F04BFF08E00A200649087104E093
:1024700003E002E001E000E000BF00BF10BD00008B
:10248000D80400204B000020FD001E0101BBB6D384
:10249000ADCAB9D3C3B1B4B6E0B8A3D3EFD2F4CACE
:1024A000B6B1F0B2A5B1A8C6F7000000FD000A0160
:1024B00001BDD3CAD5CAA7B0DC00000070B505467F
:1024C0000C463E48006940F400303C49086108462B
:1024D000006920F4003008610846C06940F400300B
:1024E000C8610B2204210020FEF79AFC0822114645
:1024F0000020FEF795FC324868434008B0FBF4F03A
:1025000030490880081D008842F20C1108432D490B
:10251000091D08800846008840F02000088002233A
:10252000262201211846FFF7FBFC70BD0246002160
:1025300000E0491C23480838008800F0400018B922
:1025400044F620608142F4D344F62060814204D2F4
:102550001C48001F0280012070470020FCE730B5B6
:1025600003460C46154603E013F8010BFFF7DEFFA8
:102570002000A4F10101CCB2F6D1012030BD10B58C
:1025800010480838008800F02000A8B10D48001F4E
:102590000088FC2803D00C484078012806D109495E
:1025A000091F0988C8B200F0B5FE05E00549091FFA
:1025B0000988C8B2FFF725FF10BD000000100240D7
:1025C00040420F0008440040F204002010B5544877
:1025D000C06840F400705249C8600846C06820F4E2
:1025E0000070C8600846806940F40070886100226D
:1025F00002211046FEF714FC4948406820F4404090
:10260000474948600846406840F4004048604548F3
:10261000006845490840434908600846006808606A
:102620000846006820F480700860081D006820F0EB
:102630000200091D08600846006820F46020086058
:102640000846006840F4602008600846006840F4CE
:10265000801008600846006820F400600860314877
:102660002830006820F470002E49283108600846A0
:102670000068002008602B480C3000686FF30B00E6
:1026800028490C3108600846006840F038000860AE
:102690002448001D006840F001002249091D08601F
:1026A0000846006840F00800086000BF1D48001D93
:1026B000006800F008000028F8D11A48001D0068E2
:1026C00040F004001749091D086000BF1548001DAF
:1026D000006800F004000028F8D110BD1148303027
:1026E000006820F01F000F4930310860084600687C
:1026F00040F0010008600B48001D006840F48000B5
:102700000849091D086000BF0648001F006800F066
:1027100002000028F8D003484830006880B27047B3
:102720000010024004240140FFFFF0002DE9F041B9
:10273000FFF7D4FF04463F480088844203DD3D484C
:102740000088201A02E03B480088001B322805DD83
:10275000384804800020384908700EE03548008869
:102760004010344908800846008800EB6400088067
:1027700031480078401C304908702F4800780A28FA
:102780004BDD2C48008804F092FF054600222B4BBD
:1027900004F0A0FF074604F05DFF264908800024EE
:1027A00009E0274830F8140022490988884200DAF5
:1027B00003E0601C84B20B2CF3D300BF002C1ADDA5
:1027C000601E1F4931F8100031F81410401A1C49DE
:1027D00031F81410174A1288511A01EB810149008F
:1027E00091FBF0F0C4F10A0101EB810100EB410023
:1027F0001449487102E0642012494871C4F10A008A
:1028000000EB041084B2E0B200F0CEF9AFF2E300C6
:1028100002F05FFA002008490870BDE8F08110B5A9
:10282000FFF7D4FEAFF2FB0302220021104602F0B4
:10283000CEF910BD4200002040000020009DF73F6F
:10284000E67A00084B00002010B508229102022011
:10285000FEF7E6FA0822D1020220FEF7E1FA4FF471
:1028600000510220FEF715FB4FF480410220FEF7D5
:1028700010FB022220210120FEF7D2FA10BD10B574
:102880004FF400510220FEF712FB70B94FF4804163
:102890000220FEF70CFB40B901203D4908703D497C
:1028A000C8712021FEF7EAFA02E0002038490870DA
:1028B00039480078401CC0B237490870012808DD4B
:1028C0003348007835490978884202D03448354980
:1028D00008602F480078314908702D48007810BDF5
:1028E00010B520210120FEF7D4FA10BD00B587B045
:1028F00018222DA101A804F071FD00F011FB0222A5
:10290000152101A8FFF72BFEAFF22B0340F6B832DA
:102910000021084602F05BF907B000BD0EB528A201
:1029200007CA8DE8070001231A460A216846FFF707
:102930000DFD012025498871002088700EBD10B55D
:10294000FFF79DFF88B920210120FEF7A2FA114868
:10295000407AC01E4FF47A7100FB01F2AFF24303DC
:102960000021084602F033F910E020210120FEF793
:1029700085FA0848407AC01E4FF47A7100FB01F2D4
:10298000AFF297030021084602F021F910BD0000C4
:1029900045000020E80400204600002044000020FC
:1029A0000400FA050CED00E0FD00120101BCB4BD0D
:1029B000ABBDF8C8EBD0DDC3DFC4A3CABD000000C7
:1029C000C7EBBCA4BBEEC9E8B1B800004B000020C7
:1029D00010B50120774908707748006940F002007F
:1029E000754908610846006920F002000861084640
:1029F000C06940F00200C8610B2203210120FEF7EC
:102A00000FFA42F20F706D4908804720091F0880B5
:102A10006A481038008847F678010843674910393A
:102A20000880081D008840F48850091D0880812016
:102A300062492C39088010BD30B50B4600F0F00417
:102A400024B100F00F040CB1C82200E0642200F0B1
:102A50000F0404EB201102FB03F4B4FBF1F10411A9
:102A60004C43564D10352C8000F00F044C43C4F3FA
:102A70004F042D1D2C8030BD10B55148007800F05A
:102A8000800080B14E4801780078401C4C4A10709C
:102A90004C484078803081420FDD4A484078401EE3
:102AA0001146087009E046480078401EC0B244490B
:102AB0000870022801DA81200870414A127802F079
:102AC0007F01404A1078FFF7B7FF10BD10B53E48B0
:102AD00002F02EF810BD3B480078132803D13120B6
:102AE0003849087002E0132036490870142035492F
:102AF0004870704710B50446334B782200210220FD
:102B000002F065F80B2C4CD2DFE804F01007220627
:102B1000324B4B4B4B4B420000BF132029490870EE
:102B200014204870294802F0D4F83BE013202549CE
:102B300008701420487008464078C0EB001005214A
:102B4000C1EB0012214B0021022002F040F829E0E5
:102B50001E4802F0F3F8174800781A490870282038
:102B60004870194B3C220021022002F030F819E095
:102B7000154802F0E3F864210E480078FFF75CFF87
:102B8000134B4FF496720021084602F020F809E03A
:102B90000C4908780021FFF74FFF0B4802F099F825
:102BA00000BF00BF00BF10BD024908700549087092
:102BB0007047000049000020001002402C04004033
:102BC0004A00002047000020792A0008D72A000880
:102BD000CD2A000810B5FFF772FB04000FD00020CB
:102BE0000D49887104F08100812806D00120887089
:102BF0000846C07808B900F0A0F9FFF7A0FE10BDA4
:102C000010B5FFF7FDFAAFF23303142200210220C2
:102C100001F0DDFF10BD00004B00002010B54FF4A7
:102C2000E1314820FFF74AFC4FF48062664967486B
:102C300001F040F910BD00B58BB0282264A101A8B5
:102C400004F0CCFB01231A46252101A8FFF77EFBE7
:102C50000BB000BD2DE9F04106460C4600BF04B99B
:102C600075E000BF00BF204601F03AF9012800D10D
:102C70006DE000BF06226049204601F019FA0546C2
:102C8000A56000BF204601F02BF9012800D15EE0CD
:102C900000BF062500BF204601F04BF9A84200D234
:102CA00055E000BFA0682844801C6168B0FBF1F2C9
:102CB00001FB12002168085CC01C054400BF4F489E
:102CC0000078854200D942E000BF00BF204601F0F5
:102CD00030F9A84200D231E000BF00BFA06828440C
:102CE000801C6168B0FBF1F201FB12070623444A25
:102CF0003946204601F00AFA00B91FE000BFAD1FB7
:102D000000BF06223146204601F057F900B91EE007
:102D100000BF00BFAA1C3146204601F04EF900B9A1
:102D200015E000BF00BFA81C81B2304601F048F892
:102D300000B10CE000BF2846BDE8F081A068801D0E
:102D40006168B0FBF1F201FB1200A06000BF00203F
:102D5000F2E710B59AB0642101A804F071FB29488C
:102D6000007900282DD1194901A8FFF773FFC4B2DB
:102D7000BCB12448C078401E2249C8700846C078BB
:102D800048B90846C078401CC8701F4801F0A1FF30
:102D90001E4801F09EFF0222214601A8FFF7DFFB3B
:102DA0000FE01848C07801280BD11648C078401EA3
:102DB0001449C87000F093FA1248807908B9FFF7F7
:102DC000BEFD1AB010BD0000D8000020D8040020BD
:102DD000C9E8B1B8C0E0D0CDA3BA4945563031A357
:102DE000ACC9E8B1B8C3FBB3C6A3BAD3EFD2F4CA37
:102DF000B6B1F0C6F7000000FC7A0008E47A0008DB
:102E0000027B00084B000020E1280008ED280008A4
:102E10001CB5FEA103C9CDE90001FE4800790728D1
:102E200010D101231A4608216846FFF78FFAF948A6
:102E3000037801220321104601F0A6F902F071FA8D
:102E4000FFF77DFD1CBD10B5F34A0A214FF4B840D1
:102E500002F035FE10BD00B5BBB0E82101A804F0BA
:102E6000EFFA5020EC4948700A20C870052008711C
:102E70000A2048710120C8710F204872FFF7E3FF54
:102E800001AAE8214FF4C04002F019FE3BB000BD9A
:102E900010B50020E1490870FFF7D6FCDE4A0A2190
:102EA0004FF4B84002F022FEDB48C0780A2801DD6A
:102EB000FFF7D1FFFFF7E3FC012805D1FFF7AFFCD7
:102EC0000120D549C87102E0C820D24948710120CB
:102ED000D049887000200871FFF731FDFFF790FEA0
:102EE000FFF7CDFCCE4B32220021022001F06FFE15
:102EF00010BD10B5082210210020FDF791FF082217
:102F000020210020FDF78CFF10210020FDF7C1FFDC
:102F100020210020FDF7B2FF0120BE49487010BDFE
:102F200008B5C0A000680090022204216846FFF79F
:102F300016FB642000F088FF08BD00B587B0BAA179
:102F400003C9CDE90501B348407914280BDA1422EE
:102F5000B7A1684604F042FA01231A4614216846D4
:102F6000FFF7F4F900BFAB48807950B1B5A207CAAA
:102F700002AB07C301231A460A2102A8FFF7E6F9AC
:102F800000BF01231A46062105A8FFF7DFF907B0A5
:102F900000BD30B5BBB00546E82101A804F050FAE9
:102FA000C5B101AAE8214FF4C04002F09FFD012005
:102FB0000190012405E0002001A941F82400601CD3
:102FC000C4B2072CF7DB01208DF8EA009DF822003F
:102FD000ADF8200001AAE8214FF4C04002F06FFDD7
:102FE0003BB030BD30B5C1B0FF250D213DA804F088
:102FF00027FA974903C9CDE93B0101AAE8214FF41B
:10300000C04002F073FD0546002D07D09DF8EA0090
:1030100028B909207F490871FFF78FFF7FE09DF8ED
:10302000EA00FF2808D10020FFF7B3FF0920794903
:103030000871FFF782FF72E08648006820F4806024
:1030400084490860844801F079FE754801F076FEF5
:10305000824801F073FEFFF763FFBDF820109DF872
:10306000EA00C01C084480B2ADF82000BDF8200082
:1030700000128DF8ED00BDF82000C0B28DF8EE0012
:10308000022205213BA8FFF76AFA002433E0601111
:1030900001A951F8200004F01F02012191400840CD
:1030A000D8B10DF12202115D04EB840246F2E8036F
:1030B00003EB82003BAA02F019FD7C210DF12200F6
:1030C000005D3BAA11540DF12200005D401CC1B20D
:1030D00002223BA8FFF743FA0BE07C208DF8EC00BE
:1030E0000DF12200005D401CC1B202223BA8FFF797
:1030F00036FA601CC4B29DF8EA00401CA042C6DC4F
:10310000554801F015FD464801F012FD534801F005
:103110000FFD5048006840F480604E49086041B09F
:1031200030BD70B5BAB006460D461446AFF24B132B
:103130004FF4FA720021084601F049FD6A46E82181
:103140004FF4C04002F0D2FC60115DF8200004F0A2
:103150001F0201219140084361114DF82100BDF883
:103160001C100DF11E00005D081A284480B2ADF855
:103170001C000DF11E0005559DF8E600A04201DA85
:103180008DF8E6400DF11E02115D04EB840246F25B
:10319000E80303EB8200324602F091FC6A46E82124
:1031A0004FF4C04002F08BFC3AB070BD30B5BBB0FC
:1031B0000446C4B901AAE8214FF4C04002F096FCCD
:1031C000601101A951F8200004F01F020121914073
:1031D000084020B10120FFF7DCFE3BB030BD0020ED
:1031E000FFF7D7FEF9E7AFF203234FF4FA7200219D
:1031F000084601F0ECFC01AAE8214FF4C04002F0BF
:1032000075FC601101A951F8200029E0CAB6B1F09F
:10321000B3C9B9A64B000020E804002052000020EA
:10322000112E0008FD00011FC7EBD6B8CABE000072
:10323000B5E7C1BFB9FDB5CDA3ACC7EBBCB0CAB152
:10324000B3E4B5E7C9E8B1B8D2D1BCA4BBEE000085
:10325000087B000800040140532D0008D52B00080E
:1032600004F01F02012191400840A8B3601101A998
:1032700051F8200004F01F020121914088436111A0
:1032800001AA42F82100BDF820100DF12200005DD6
:10329000081A80B2ADF8200000210DF1220001557E
:1032A0009DF8EA500EE0681101A951F8200005F0E0
:1032B0001F0201219140084010B18DF8EA5003E04F
:1032C000681EC5B2002DEEDC00BF01AAE8214FF454
:1032D000C04002F0F4FB80E7FFE701207DE71CB56A
:1032E00044A103C9CDE90001444840788DF80400A9
:1032F000022205216846FFF732F91CBD1CB540A12A
:1033000003C9CDE9000101231A4608216846FFF7E9
:103310001DF81CBD10B5044601203B494870084605
:1033200001780078401C384A1070901C4454801E6C
:103330000079012802D003283DD10AE03248007804
:10334000032805DDFFF7CBFF00202F4948700870E8
:1033500031E02D48007805282CDD2C4880780128A4
:1033600007D02648C079022803D02848407965282C
:103370000ADA2548C079254908700720087100201D
:1033800021494870087015E01F48C07980B91B4872
:10339000C07968B900201D49887101208870092012
:1033A0000871FFF7CAFD002017494870087001E056
:1033B000FFF795FF00BF00BF10BD00201449087043
:1033C000704710B51248007830B90C48C07902280F
:1033D00002D001200E4908700848C079022807D0A1
:1033E000AFF2290342F210720021084601F0EFFB10
:1033F00010BD0000FD00021050000000E804002095
:10340000B2D9D7F7B3C9B9A6F20400204B00002007
:103410005200002010B5FFF76CFDFFF7FFFB864B55
:103420004FF4FA720021022001F0D1FB10BD10B55B
:103430000446A078401EC1B201231A46E01CFEF7E4
:1034400085FF012010BD38B504467CA000680090BF
:103450004FF480627A497B4800F02CFD0123022260
:10346000FF216846FEF772FF00207749C8700120EF
:1034700038BD1CB50446754903C9CDE90001E078A3
:10348000052801DD0E201CBDE078714988700846D2
:10349000807860B933208DF802005D208DF803003C
:1034A00001231A4604216846FEF750FF11E035203B
:1034B0008DF80200664880783030C0B28DF8030085
:1034C0005D208DF8040001231A4605216846FEF7A9
:1034D0003DFFFFF7B8FC0120D5E703460120087047
:1034E0005B4880781070012070471CB5044657492E
:1034F000083103C9CDE90001E0780A2805DC20790C
:103500000A2802DC60790A2801DD0E201CBDE07863
:103510004F49C87020790871607948710846C078B1
:103520000A2812D176208DF8010031208DF8020092
:1035300030208DF803005D208DF8040001231A4629
:1035400005216846FEF702FF11E076208DF80100A4
:103550003F48C0783030C0B28DF802005D208DF851
:10356000030001231A4604216846FEF7EFFE38489F
:1035700000790A2812D174208DF8010031208DF8CD
:10358000020030208DF803005D208DF80400012337
:103590001A4605216846FEF7D9FE11E074208DF821
:1035A00001002B4800793030C0B28DF802005D2058
:1035B0008DF8030001231A4604216846FEF7C6FE73
:1035C000234840790A2812D173208DF80100312058
:1035D0008DF8020030208DF803005D208DF8040086
:1035E00001231A4605216846FEF7B0FE11E073205C
:1035F0008DF80100164840793030C0B28DF80200D5
:103600005D208DF8030001231A4604216846FEF769
:103610009DFEFFF718FC012078E7034603200870A1
:103620000B48C07810700A480079507008484079FB
:103630009070012070470000532D0008FD0001022A
:10364000D8000020D80400204B000020107B000888
:10365000E804002010B50446FFF7DCFEFFF718FC75
:1036600010BD10B50446FFF7F6FB10BD10B50446BB
:10367000A078132801D90F2010BDE278A078801E11
:10368000C1B2201DFFF74DFDF6E710B50446E07806
:10369000FFF78CFD10BD0346012008706C480078D0
:1036A00010700120704710B50446E078642801DDF1
:1036B0000E2010BDE07867494870FFF7C4FB012079
:1036C000F7E7034601200870624840781070012037
:1036D000704710B50446A078132801D90F2010BDFB
:1036E000A078401EC1B20022E01CFFF71AFDF6E7E9
:1036F00070B5BAB006460C46154655484079C828FC
:1037000002D01B203AB070BD6A46E8214FF4C04099
:1037100002F0ECF99DF81E00207021782A4646F24E
:10372000E80002F0E3F90120ECE710B588B00446A8
:1037300047484079C82802D01B2008B010BDA078A7
:10374000012801D00F20F8E7E078022801DD0E20E3
:10375000F3E7E0783F49C8710846C07958B920229C
:103760003DA1684603F03AFE01231A46202168462F
:10377000FEF7ECFD00BF3748C07901280BD11C22B1
:103780003DA101A803F02AFE01231A461A2101A82F
:10379000FEF7DCFD00BF2F48C07902280BD11C22A8
:1037A0003CA101A803F01AFE01231A461A2101A820
:1037B000FEF7CCFD00BFFFF746FBFFF7FEFD012043
:1037C000BBE7034622484079C82804D0012008708E
:1037D00010701B207047012008701E48C0791070BF
:1037E0000120F7E710B50446A078012801D00F208A
:1037F00010BDE07817494872FFF725FBFFF79FF8E7
:103800000120F5E70346012008701248407A107045
:10381000012070470346012008700D484079652853
:1038200002DA0120107001E00020107001207047C2
:1038300003460120087006484079652803DA0448E9
:103840004079107001E06420107001207047000082
:103850004B000020E8040020B9A4D7F7C4A3CABDD8
:10386000D2D1C9E8D6C3CEAAA3BAD3EFD2F4BACD87
:10387000B4A5C3FEBCA4BBEEB9A4D7F7C4A3CABD0C
:10388000D2D1C9E8D6C3CEAAA3BAB4A5C3FEBCA4FC
:10389000BBEE0000B9A4D7F7C4A3CABDD2D1C9E812
:1038A000D6C3CEAAA3BACAB1CAB1BCA4BBEE0000AB
:1038B00030B5884209D003460C4604E014F8015B99
:1038C00003F8015B521E002AF8D130BDF0B5034663
:1038D0008B420DD01D460C4608E015F8016B14F81C
:1038E000017BBE4201D00120F0BD521E002AF4D15E
:1038F0000020F9E710B5034602E003F8011B521E51
:10390000002AFAD110BD70B588420AD203460C468F
:1039100004E014F8015B03F8015B521E002AF8D1A1
:103920000DE088420BD983188C1806E0651E2C46E2
:103930002E785D1E2B462E70521E002AF6D170BDC9
:10394000F0B505460C4616462F46314614E011F8F0
:1039500001CB387884450DD1012200E0521CA242EF
:1039600004D211F801CBB85C8445F7D0A24201D152
:10397000881AF0BD5B1E491C002BE8D10020F8E737
:1039800070B5044600260E70254610460AE010F871
:10399000016B05F8016B0E78761C0E70067806B97F
:1039A00070BD5B1E002BF2D100260E7000BFF7E742
:1039B0000146B1F1883F01D1022070479948006863
:1039C000884201D10320F8E70020F6E770B50546EC
:1039D0000C46607810B1012826D115E02946601DFB
:1039E00000F038F9C0B2207000B920E0A0780128BA
:1039F00002D18D48007A00E00120E070D4F8110077
:103A0000FFF7D6FF207100BF22792178601DD4F81E
:103A10000431984720B1E078401EC0B2E07010B188
:103A20000120607003E000BF0020607000BF00BF95
:103A300070BD10B57D497E48FFF7C8FF10BD014637
:103A4000881E0C280FD2DFE800F0060E0E0A0E07C3
:103A50000E080E0B0E0C00BF00BF0320704700BF06
:103A600000BF0620FAE700BF00BF0020F6E7F8B568
:103A700004460D2660786F4901EB0010C5680020F0
:103A80000090FEF79FFB6178884252DD00BFA1786D
:103A90002868884242D12078022808D0207804285B
:103AA00005D02078072802D02078092820D1A868DE
:103AB000E0B16078604901EBC000807918B909264F
:103AC00001F02FFC29E0601CA96888470646022EF9
:103AD00023D12868CF2800D90126E07800909DF8EE
:103AE0000020211D601DFFF70EFF16E00A2614E0DE
:103AF0002078052805D020780B2802D020780D28C2
:103B00000AD1E86830B1621D6946601CEB689847CD
:103B1000064602E00B2600E00C2609E005F1100045
:103B2000296805460068814202D22868FF28AED97C
:103B300000BF9DF80000401CE07026713046F8BDC3
:103B40002DE9F8430746884614461E4604F1110342
:103B5000621C41463846009602F00BFE05460128DD
:103B600025D104F11100FFF782FF0546032D1ED079
:103B7000FDF7BAFB607C022812D0607C05280FD0CC
:103B8000607C072802D0607C0B2801D1012D07D072
:103B9000607C092802D0607C0D2808D1012D06D058
:103BA000607CFFF74CFF6074204602F01FFCBDE80C
:103BB000F8832DE9F04104460D461746A61D04F191
:103BC0001B03324629462046FFF7BAFF0120BDE815
:103BD000F08110B54FF480621849194800F06AF975
:103BE0004FF480621749124800F064F9002016492A
:103BF00048708870AFF24500C1F8040100200B49FD
:103C00004870012088701148C1F80401104B03224C
:103C10000021022000F0DBFF10BD0449C1F80401BF
:103C2000704700005C000020C0110020240E00201E
:103C30000C050020C47A0008C80000201C050020E4
:103C4000FC0400201C0900201C0D00204D1D000854
:103C5000333A00082DE9F04106460C4600BF04B98E
:103C60006AE000BF00BF204600F03AF9012800D109
:103C700062E000BF06225049204600F019FA0546CE
:103C8000A56000BF204600F02BF9012800D153E0C9
:103C900000BF1B2500BF204600F04BF9A84200D210
:103CA0004AE000BFA0682844401E6168B0FBF1F202
:103CB00001FB12002168085C0830054400BFFF2D9D
:103CC00000D930E000BF00BF204600F032F9A84222
:103CD00000D231E000BF00BFA0682844801F6168A7
:103CE000B0FBF1F201FB12070623344A39462046A5
:103CF00000F00CFA00B916E000BF00BF2A463146BA
:103D0000204600F05AF900B916E000BF00BFA5F147
:103D10000C0081B2B01D00F053F800B10CE000BF00
:103D20002846BDE8F081A068801D6168B0FBF1F213
:103D300001FB1200A06000BF0020F2E72DE9F04176
:103D400005460E46174600BF05B933E000BF00BF69
:103D500006221949284600F0FBF800B92AE000BF06
:103D6000B9B2304600F02CF8044600BF3A4631465E
:103D7000284600F0EDF800B91CE000BF00BF21129A
:103D8000284600F058F900B914E000BF00BFE1B2C6
:103D9000284600F050F900B90CE000BF00BF062231
:103DA0000649284600F0D4F800B903E000BF01201E
:103DB000BDE8F0810020FBE7F07B0008F67B0008FF
:103DC00070B503460C460025002600210DE0585C26
:103DD00080EA0502154810F8120080EA060513482B
:103DE00030F812000612481C81B2A142EFDB46EA0D
:103DF000052070BDF0B504460D46002600271612BA
:103E0000D7B200210DE0605C80EA0603074810F895
:103E1000130080EA0706054830F813000712481C13
:103E200081B2A942EFDB47EA0620F0BDFC7B000827
:103E3000014604E00A2000E0401E0028FCD10A00F0
:103E4000A1F10101F6D1704710B5044605E0FEF777
:103E50005FF940F2E630FFF7EBFF2000A4F1010428
:103E6000F5D110BD70B506460C46154626B1012E9B
:103E700009D0022E12D109E0022001F025FA0C48E7
:103E800000F027FF0BE0FEF76BF908E02DB12B46A1
:103E900005220021084600F09AFE00E000BF00BFA6
:103EA00024B1012C02D0204601F051FB70BD00006E
:103EB000B3120008034600BF0BB90020704700BFD3
:103EC00019605A600020D86098600120F6E700BFB2
:103ED00000B9704700BF00218160C16000BFF8E7F2
:103EE0000146D1E90202904201D101207047002031
:103EF000FCE70146C868401C4A68B0FBF2F302FBCD
:103F000013008A68904201D1012070470020FCE72D
:103F10000146D1E90202904204D9D1E90202801A95
:103F2000401E7047D1E901021044CA68801A401E41
:103F3000F7E70146D1E90220904205D24A68C868F5
:103F400010448A68801A7047D1E90220801AFAE783
:103F50002DE9F04104460F46154600BF14B9002074
:103F6000BDE8F08100BF00BF2046FFF7D1FFA842A7
:103F700001D20020F4E700BFE1686068401AA8425F
:103F800003D2E1686068401A00E028460646E2680D
:103F90002168881832463946FFF78AFCAA1BB919EE
:103FA0002068FFF785FCE06828446168B0FBF1F207
:103FB00001FB1200E0600120D2E72DE9F041044648
:103FC0000E46154600BF14B90020BDE8F08100BFC1
:103FD00000BF2046FFF784FF012801D10020F4E74D
:103FE00000BF00BF2046FFF7A4FFA84201D2002077
:103FF000EBE700BFD4E90101401AA84203D2D4E99B
:104000000101401A00E028460746A268206881188E
:104010003A463046FFF74CFCEA1BF0192168FFF7DF
:1040200047FCA06828446168B0FBF1F201FB120074
:10403000A0600120C9E770B504460D4600BF0CB969
:10404000002070BD00BF00BF2046FFF752FF0128CF
:1040500001D10020F5E700BFE16820684554E06821
:10406000401C6168B0FBF1F201FB1200E06001202E
:10407000E7E710B503460C4600BF0BB9002010BDA2
:1040800000BF00BF1846FFF72BFF012801D1002019
:10409000F5E700BF99681868405C20709868401C7C
:1040A0005968B0FBF1F201FB120098600120E6E7CD
:1040B000F0B503460C46154600BF0BB104B10DB96F
:1040C0000020F0BD00BF9968002212E01868405C33
:1040D000A65CB04205D1501C0246A84202D1521E35
:1040E0000AE00022481C5E68B0FBF6F706FB1700EA
:1040F0000146D8688842E9D100BF58680844801A50
:104100005E68B0FBF6F706FB1700DAE7F0B5044689
:104110000D4600BF206800B10AB90020F0BD00BF05
:1041200000210EE068186668B0FBF6F706FB170082
:104130002668365C12F8017BBE4201D00020EDE714
:10414000491C9942EED30120E8E7000010B5802217
:1041500021492248FFF7AEFE10BD1CB50722694673
:104160001E48FFF72AFF58B1DDF803309DF8022002
:104170009DF801109DF8000001F020FF01201CBDFA
:10418000FFF7E4FF0020FAE72DE9FC4105460C4665
:1041900016461F46124800EBC500807918B9C72C97
:1041A00016DDDD2C14DA8DF800508DF801408DF805
:1041B0000260CDF80370072269460848FFF7C8FE81
:1041C000AFF26903C8220021032000F000FD01E0E6
:1041D00001F0A7F8BDE8FC813C0F00202C0F002067
:1041E000C800002010B504464E48007808B11220DF
:1041F00010BD01204B490870D4F803004A490860FB
:10420000072000594860E07A0872217B46484172D5
:104210000D20015B4448418102F0FBFD0120E7E7EE
:1042200041480068704703460D2008703E4800680A
:1042300010603D48406850603B48007A10723A4830
:10424000407A50723848408950813648007810735F
:104250000120704770B504460025324800780128D7
:1042600001D0122070BD02202E490870D4F803003E
:104270002D490860072000594860E07A0872217BC8
:10428000294841720D20015B274841810120FDF73B
:1042900075F8FDF77AF805462348007A421C00219C
:1042A0002846FFF727FB0120DCE703460D200870B6
:1042B0001D48006810601C48406850601A48007A29
:1042C00010721948407A5072174840895081154839
:1042D000007810730120704710B50446E078FF287D
:1042E0000FD11048007802280BD10020FDF746F8C6
:1042F0000E4BC8220221012000F069FC0020094970
:104300000870012010BD01460020064A10700120EF
:1043100070470346012008700248007810700120A1
:104320007047000061000020201300202F6E00085D
:1043300010B5044601F0DDF802F0C4FD01F0B2FD55
:10434000FFF704FF002207210220FFF78BFD00206A
:1043500000F0BAFF10BD70B504460020087042F2AC
:1043600081700D7850530878801C0870F7480068F9
:104370000D7850510878001D0870F448001D006841
:104380000D7850510878001D08704FF00060D0F88B
:1043900000030D7850510878001D0870EB4BF43B7A
:1043A00005E01D780E78701C087095555B1C187818
:1043B0005A2802DC18783028F3DA012070BD10B5D5
:1043C0000346987860B1E148001F0068B3F80340E5
:1043D000A04205D0B3F803004FF6FF74A04212D1FB
:1043E00000200870D948001F00880C781053087806
:1043F000801C0870D54800680C7810510878001DA2
:104400000870012010BD1220FCE710B50446A0780A
:10441000042801DCA07808B90F2010BDD4F80300EF
:10442000CB490860042001F0ADF808B91020F4E78A
:104430000120F2E70346C6480068106004200870B7
:10444000012070470346C24840681060042008708D
:104450000120704710B50446E078052801DCE078BB
:1044600008B90F2010BDE078B94908720831012061
:1044700001F088F808B91020F4E70120F2E70346BC
:10448000B348007A107001200870704770B5054677
:10449000A878192806DCA878052190FBF1F201FB29
:1044A000120008B10F2070BDA878052190FBF1F033
:1044B000C6B200240EE004EB8401E81C405C28B185
:1044C00004EB8401E81C405C052801DD0E20EAE7CE
:1044D000601CC4B2B442EEDB002410E004EB8400A4
:1044E000401CE91C0A5804EB8401E81C405C401E97
:1044F00097490A3101EB80000260601CC4B2B442EB
:10450000ECDB93490A31142001F03CF808B9102083
:10451000C9E70120C7E7F0B503460C460025D87867
:10452000FF2827D100202070002120E088480A3091
:1045300000EB81000068C0B185480A3000EB8100C3
:104540000068401C88B1481C05EB850690558048E2
:104550000A3000EB8100066805EB8507501CC65148
:104560002078401D2070681CC5B2481CC1B20529C6
:10457000DCDB13E0D87810B1D878052801DD0F20F6
:10458000F0BDD8781070D878401E714E0A3606EB10
:1045900080000068C2F80100052020700120EFE7CC
:1045A00010B50446E07808B1012000E00020684919
:1045B00088771E31012000F0E5FF08B9102010BDFA
:1045C0000120FCE703466248807F012800D100E01B
:1045D0000020107001200870704770B50446A07864
:1045E000052801DCA07808B90F2070BDE078A8B9D3
:1045F00001250EE05749606841F83500084600EB98
:10460000C501042000F0DCFF08B91020EDE7681CAC
:10461000C5B2FDF7D7FDA842ECDC14E0FDF7D2FDF2
:10462000E178884201DC0E20DFE7E178494A6068E2
:1046300042F83100E07802EBC001042000F0C0FF36
:1046400008B91020D1E70120CFE72DE9F041044659
:104650000D461646A078032801DCA07810B90F207B
:10466000BDE8F081E07890B901270020287009E0CA
:10467000384850F83700297870502878001D287085
:10468000781CC7B2FDF79EFDB842F1DC0DE0FDF7E6
:1046900099FDE178884201DC0E20E1E7E0782D49C0
:1046A00051F830003060042028700120D8E770B540
:1046B0000446A078032801DCA07808B90F2070BD5B
:1046C000E078B8B9012510E0A088224901EBC501C6
:1046D0008880204800EBC500011D022000F070FF1B
:1046E00008B91020EBE7681CC5B2FDF76BFDA842C6
:1046F000EADC16E0FDF766FDE178884201DC0E2079
:10470000DDE7A088E178134A02EBC1018880E078F8
:1047100002EBC000011D022000F052FF08B910207A
:10472000CDE70120CBE72DE9F04104460D461646C2
:10473000A078032801DCA07810B90F20BDE8F08133
:10474000E078C8B901270020287010E004040008B0
:10475000C0110020C8000020E74800EBC700808897
:10476000297870522878801C2870781CC7B2FDF711
:1047700029FDB842F0DC0EE0FDF724FDE178884227
:1047800001DC0E20DAE7E078DB4901EBC00080882D
:104790003080022028700120D0E770B50446A07850
:1047A000022801DCA07808B90F2070BDE078B8B904
:1047B000012510E02079D04901EBC501C871CE4830
:1047C00000EBC500C11D012000F0FAFE08B9102061
:1047D000EBE7681CC5B2FDF7F5FCA842EADC16E081
:1047E000FDF7F0FCE178884201DC0E20DDE720795E
:1047F000E178C14A02EBC101C871E07802EBC00068
:10480000C11D012000F0DCFE08B91020CDE7012019
:10481000CBE72DE9F04104460D461646A078022864
:1048200001DCA07810B90F20BDE8F081E07898B9DC
:104830000127002028700AE0AF4800EBC700C079CC
:10484000297870542878401C2870781CC7B2FDF76E
:10485000B9FCB842F0DC0EE0FDF7B4FCE178884228
:1048600001DC0E20E0E7E078A34901EBC000C0794D
:104870003070012028700120D6E770B50446A0787A
:10488000052801DCA07808B90F2070BDE078B8B920
:10489000012510E02079984901EBC50188719648FF
:1048A00000EBC500811D012000F08AFE08B9102030
:1048B000EBE7681CC5B2FDF785FCA842EADC16E010
:1048C000FDF780FCE178884201DC0E20DDE72079ED
:1048D000E178894A02EBC1018871E07802EBC000FF
:1048E000811D012000F06CFE08B91020CDE70120E9
:1048F000CBE72DE9F04104460D461646A078032883
:1049000002DD0F20BDE8F081E07808B1A07898B909
:104910000127002028700AE0774800EBC700807963
:10492000297870542878401C2870781CC7B2FDF78D
:1049300049FCB842F0DC0EE0FDF744FCE178884227
:1049400001DC0E20DEE7E0786B4901EBC0008079E6
:104950003070012028700120D4E72DE9F041044691
:104960000D461746E178207901EB002086B2607988
:10497000822802DD0E20BDE8F081B6F5004F01DB94
:104980001120F8E760793044B0F5004F02DD704245
:10499000287001E06079287029783A46304601F0A5
:1049A000BFF808B91020E6E70120E4E710B5044697
:1049B00000F098FD012010BD70B506460C46154666
:1049C0002946204600F0D3FD012070BD10B50446F5
:1049D000A078012801DD0F2010BDA078012805D1A5
:1049E000E07818B9022000F062FD1CE0A07818B948
:1049F000012000F05CFD16E0FDF7E4FBE178884261
:104A00000FDDE07800F00AFDE07800F0ECFCE078E3
:104A100000F0C1FCE07800F024FFE07801F0A0FC99
:104A200001E00E20D8E70120D6E770B50446A07853
:104A300008B90F2070BDE078022804D003280ED0FA
:104A400005281FD114E02079611D01F0F1FB054616
:104A5000012D02D1A0700220ECE72846EAE7617937
:104A6000207901F066FC012800D1E3E71520E1E799
:104A700061792079A21D01F00AFC012800D1D9E753
:104A80001620D7E700BF00BF0E20D3E770B504465D
:104A90000D461646E078012802D0042814D109E01A
:104AA0006179207933462A4601F00FFC012800D1B4
:104AB00070BD0AE06179207933462A4601F01DFC79
:104AC00008B10120F4E700E000BF00BF1520EFE7C8
:104AD00010B50446A07808B90F2010BDE07818B9C9
:104AE000012001F067FB05E0E07801F039FC08B92E
:104AF0001720F2E70120F0E7C80000200020D64987
:104B00000860704730B503460C4619460CE008466D
:104B1000491C00EB4005D048001D00EB8500806873
:104B2000904201D1C8B230BDA142F0D30020FAE7D3
:104B3000FEB50546C84A1288C74B5B88D118C64ADD
:104B400010882A46FFF7DEFF0446002C3ED0C248FC
:104B50000088201A012830D9601E00EB4002BE48B0
:104B6000001D00EB82010C226846FEF7A1FEBA4B45
:104B70001B88E31A03EB43039A00B74B1B8803EB34
:104B80004306B54B1B1D03EB86011B1F1B885B1CDB
:104B900003EB4306B04B1B1D03EB8600FEF7B3FE91
:104BA000AD49098801EB4102AB49091D01EB8200C7
:104BB0000C226946FEF77CFE00BFA7480088401C17
:104BC000A549088008464088401E4880FEBD2DE962
:104BD000F0410746884615461E4600BF9E4800889D
:104BE0009D4949880844142802DB0020BDE8F08173
:104BF00000BF99480088984A5288811832460020A0
:104C0000FFF780FF28BB944B5B8803EB43039A00BC
:104C1000914B1B8803EB430C8F4B1B1D03EB8C014B
:104C20001B1F1B885B1C03EB430C8B4B1B1D03EBF7
:104C30008C00FEF768FE884804880088401C86497E
:104C40000880002104EB44028348001D00F8221074
:104C50000CE03046FFF76CFF7F4800887E4A5288A0
:104C6000811832460020FFF74DFF441E04EB44013B
:104C70007948001D00EB8100477004EB4401764841
:104C8000001D00EB8100866097B905B96D1CFDF72A
:104C900014FA28447149B0FBF1F201FB12054FF000
:104CA0000108002104EB44026B48001D00F82210AB
:104CB00004EB44016848001D00EB8100A0F802806D
:104CC00004EB44016448001D00EB810045600120B5
:104CD0008CE770B50546604800885F4A52888118A5
:104CE0002A460020FFF70EFF044604B35A4B1B88E8
:104CF000594E768833441B1B03EB43039A0004EBA5
:104D00004406554B1B1D03EB8601631E03EB430654
:104D1000514B1B1D03EB8600FEF7F5FD4E48008846
:104D2000A04205D24C484088401E4B49488004E0D0
:104D300049480088401E4849088070BDFEB50546B8
:104D4000454801882A460020FFF7DCFE0446ACB344
:104D5000601E00EB40024048001D00EB82010C2267
:104D60006846FEF7A5FD3C4B1B881B1B03EB43036A
:104D70009A0004EB4406384B1B1D03EB8601631EAF
:104D800003EB4306344B1B1D03EB8600FEF7BBFD14
:104D900031490988491E89B22F4A118001EB41022D
:104DA0002D49091D01EB82000C226946FEF780FDAA
:104DB00029484088401C2849488000BFFEBD70B586
:104DC000254C241D25E0207810B3A5680020207014
:104DD000607830B1012807D002280ED0032814D102
:104DE0000DE00120207000BF6188481E608019B965
:104DF0002846FFF76EFF09E000BFA84706E0A84776
:104E000010B92846FFF765FF00E000BF00BF00BFF4
:104E10000C341148008800EB40010F48001D00EBE6
:104E20008100A042CFD870BD01460B48001D08E0AC
:104E30004268B1FBF2F302FB13120AB901220270BD
:104E40000C30054A128802EB4203034A121D02EBA2
:104E500083028242ECD87047BC0F00200084D71731
:104E6000F0B585B00446A07800282ADDA778E51CB7
:104E700021E0A878102802DD0F2005B0F0BD022047
:104E80008DF80000A878C21C29460DF10100FEF73C
:104E90000FFD6846FEF7EBFD0646012E08D0BDF873
:104EA0000100A4F8030066710320A0700220E4E76B
:104EB000A878C01C0544E01C3844A842D9D8012079
:104EC000DBE70F20D9E72DE9F043C1B080460C465F
:104ED00016460020207098F80200002841DD98F85E
:104EE000029001A800EB090501AF4A4608F1030151
:104EF0003846FEF7DDFC2EE00520287017F8010B80
:104F0000687017F8010BA8700020E8702846FEF7BB
:104F1000AEFD01281FD169782278501C2070B15451
:104F2000A9782278501C2070B154E878401EC1B294
:104F3000E9702278501C2070B154EA7821788819E1
:104F4000691DFEF7B5FC2078E978084420702078C8
:104F50005A2800DD03E001A84844B842CCD800BF7D
:104F600048E0FDF72FF907463EE0404800EB071008
:104F7000C56800BF287901282BD18DF800712878E9
:104F80008DF8010100208DF80201E86808B320784F
:104F9000C01C82190DF2031140A8EB689847012844
:104FA00017D12178481C2070775429782278501C1A
:104FB0002070B1549DF803112278501C2070B15418
:104FC00020789DF803110844207020785A2800DDCD
:104FD00009E005F11000296805460068814202D207
:104FE0002868FF28C6D900BF3800A7F10101CFB259
:104FF000BBD100BF012041B0BDE8F08370B50446CD
:10500000FDF7E0F80546A078012801D00F2070BD1B
:10501000E078A84201D30E20F9E7E07888B9FDF7DF
:10502000D1F805460AE06D1E104800EB05108068B7
:1050300020B10E4901EB051188688047002DF2D19F
:105040000BE0E078094901EB0010806828B1E178B5
:10505000064A02EB011188688047054B3222C821BD
:105060000120FFF7B4FD0120D1E70000C47A000859
:10507000B312000803460868984202D810689842A4
:1050800001D2002070470120FCE72DE9F0410646DF
:105090000D4606F0030010B10020BDE8F081804805
:1050A0000088402808D0802809D0B0F5807F09D03A
:1050B000B0F5007F0CD108E04FF4F8440AE04FF45B
:1050C0003C4407E04FF4C83404E04FF4483401E0B6
:1050D000002400BF00BFE8687043A04201D900204F
:1050E000DBE77048067070492868086068684860A7
:1050F000A8688860E868C860002705E000206B4960
:1051000041F82700781CC7B2402FF7D3664988685A
:105110002146FCF7F5F8C0E72DE9F04104460D46BD
:1051200017466148C068A04201D3C82D01DDBDE823
:10513000F08160095D4951F8200004F01F0201214F
:1051400091400840F0B9584880685649097804FBF6
:1051500001063A4629463046FCF7ECF868B160098A
:10516000524951F8200004F01F02012191400843E8
:1051700061094E4A42F8210004E04D480078401C85
:105180004B49087000BFD2E730B502460B460021FC
:105190000020107013E04809444C54F8200001F03E
:1051A0001F050124AC40204040B923F8021B1078B1
:1051B000801C10701078642800DD04E0491C3A4817
:1051C000C0688842E7D800BF107808B9012030BD18
:1051D0000020FCE770B505460C46A9B2324A90683B
:1051E000FEF7EEFD201A84B20CB9012070BD00203C
:1051F000FCE738B5054600952E4C0BE0FCF7BBF8F4
:105200002168884205D16A4604212046FCF792F8BD
:1052100038BD241DB4F1082FF0D3234A10212548AE
:105220002038FCF79DF84FF4806122482038FCF7C5
:1052300067F81D4A10211F482038FCF77BF82846E4
:10524000FFF7D7FFE4E710B51A4C0FE0FCF793F82F
:105250002168884209D1241F2068512802D3206880
:10526000562800D905E0207810BD241DB4F1082F80
:10527000ECD300BF5320F7E770B50446FFF7E3FF18
:1052800005464FF480612046FCF73AF8064A1021A3
:105290002046FCF74FF82846FFF7ABFF70BD000033
:1052A000E0F7FF1F53000020B0100020C0100020C6
:1052B000540000202004000810B5254B0122FF21D6
:1052C000002001F02FF910BD70B50546204805708B
:1052D000012D02D14FF47A7400E005241D4B2246C3
:1052E00000210846FFF773FC70BD00B5B3B0002085
:1052F0008DF8060002AA911E01A8FFF7E4FD8DF8C3
:1053000007009DF80600401CC0B28DF806009DF80D
:1053100006200DF107030021084601F0E4F833B040
:1053200000BD10B5FCF7C9FE4FF49671B0FBF1F269
:1053300001FB120000EB800040F6C41101EB4004B9
:10534000054B224600210846FFF741FC10BD000036
:1053500055000020B9520008EB52000810B5002299
:1053600020214FF43F6000F053FC10BD10B5012424
:105370000AE004EB8401090101F58060002250215C
:1053800000F046FC601CC4B2FCF71CFFA042F0DC3D
:10539000FFF7E4FF10BD2DE9F05F8246504602F0B2
:1053A00086F980460022F94B02F094F90646002265
:1053B0004FF0814302F0A6F8044602F04BF9834611
:1053C00000220A2100F024FCBDE8F09F10B5012462
:1053D00004E02046FFF7DFFF601CC4B2FCF7F2FEDA
:1053E000A042F6DC10BD10B50446E94800EB0410FD
:1053F000406828B1E64800EB041041682046884721
:1054000010BD10B5002404E02046FFF7ECFF601C3F
:10541000C4B2FCF7D7FEA042F6DC10BD10B50446BE
:105420004FF0FF30DB4941F83400002001EBC401AC
:1054300088800120D74901EBC40188710020D5493B
:1054400001EBC401C871D34901EBC402210101F190
:105450008000082100F0A0FB10BD10B5002404E07E
:105460002046FFF7DBFF601CC4B2FCF7ABFEA04296
:10547000F6DC10BD10B54FF0FF30C74908600020C2
:10548000FCF7F9FDC4494860022008720020487208
:1054900014220021C0480A30FEF72CFA0020BE4931
:1054A00088770A461F21402000F076FB10BD38B5F2
:1054B0000446BAA000680090FFF7DCFFFFF7CDFFBD
:1054C000FFF79FFFFFF782FFFFF750FF012000F07B
:1054D00071FE022C02D1684600F0A4FC0120FFF707
:1054E000F3FE38BD10B500224021104600F090FBBD
:1054F00010BD10B5A84A1F21402000F011FBA6499D
:105500004868FCF7B8FDC0B1AFF2190332220021A0
:105510000846FFF75CFBA2480078401CC0B2A049D7
:105520000870032812DDAFF23500FFF7D2FBFFF75A
:10553000D9FF0120FFF7BBFF08E099480078002859
:1055400004DD002096490870FCF73EFE10BD38B51A
:105550000446A0006A46042100F0E2FA0098401CCC
:105560000090A0006A46042100F016FB38BD70B51B
:1055700004460D464020207021782A46002000F085
:10558000CFFA70BD70B505460C468349611A01F12A
:1055900040002246294600F0FFFA70BD70B504466F
:1055A0000D4607E005EBC402210101F1800008214E
:1055B00000F0B6FA2000A4F10101CCB2F2D170BD26
:1055C00070B505460C467348261AF108090180316A
:1055D00006F0070288182246294600F0DDFA70BD61
:1055E0002DE9F74F86B089461446484602F05FF829
:1055F000054600224FF0804302F06CF882468B464D
:10560000069802F054F807460022604B02F062F858
:10561000054600224FF0814301F074FF52465B467D
:10562000CDE9000101F06EFFCDE9020102F012F8B0
:1056300005AA0221049000F073FA102C0CDA012064
:10564000A040BDF81410084030B10120A040BDF8C2
:1056500014108143059107E0FF2C02D10020059032
:1056600002E009B0BDE8F08F484602F020F8054698
:1056700000224FF0804302F02DF882468B460698B8
:1056800002F015F807460022404B02F023F80546C9
:1056900000224FF0814301F035FF52465B46CDE9D1
:1056A000000101F02FFFCDE9020101F0D3FF05AAAF
:1056B0000221049000F070FA00BFD2E72DE9F74F05
:1056C00086B089461446484601F0F1FF054600229F
:1056D0004FF0804301F0FEFF82468B46069801F0B2
:1056E000E6FF07460022294B01F0F4FF05460022A1
:1056F0004FF0814301F006FF52465B46CDE90001C1
:1057000001F000FFCDE9020101F0A4FF05AA02218A
:10571000049000F005FA102C34DA0120A040BDF806
:105720001410084070BB0120A040BDF814100843BD
:1057300080B20590484601F0BAFF054600224FF0BE
:10574000804301F0C7FF82468B46069801F0AFFF09
:10575000074600220D4B01F0BDFF054600224FF029
:10576000814301F0CFFE52465B46CDE9000101F0D6
:10577000C9FECDE9020101F06DFF05AA02210490E6
:1057800000F00AFA09B0BDE8F08F000000002440E4
:10579000C47A0008C8000020C011002000F801539E
:1057A000560000202DE9F74F86B00C469146204662
:1057B00001F07DFF054600224FF0804301F08AFF93
:1057C000CDE90201069801F072FF07460022D34B93
:1057D00001F080FF054600224FF0814301F092FE68
:1057E000CDE90001DDE9022301F08CFE824601F0E3
:1057F00031FF05AA0221049000F092F9012000FA7D
:1058000009F0BDF81410084018B1012009B0BDE836
:10581000F08F0020FAE738B504462546E11704EB7F
:105820005171C91001F53F606A46012100F078F915
:105830002046E11704EB5171C910A4EBC10201210C
:1058400091409DF800208A4300922546E11704EB21
:105850005171C91001F53F606A46012100F09CF9C1
:1058600038BD30B595B0054605EB8501090101F558
:10587000806001AA502100F053F9002408E001A83B
:10588000005D18B101A9085DFFF7C5FF601CC4B237
:10589000502CF4DB05EB8501090101F58060002245
:1058A000502100F0B5F915B030BDF8B504460D46ED
:1058B000164604EB8401090101F58061102202FB08
:1058C0000511012202FB06106A46012100F028F9A9
:1058D0009DF8000090B104EB8401090101F580619D
:1058E000102202FB0511012202FB061000220121F9
:1058F00000F08EF99DF80000FFF78DFFF8BD01461E
:105900004FF44060802902DA00EBC10014E000F59A
:105910008060A1F18002D1B2402902DA00EB0110CF
:105920000AE000F58060A1F14002D1B2402902DA1C
:1059300000EB411000E000BF704770B505460C4613
:105940002078411C2246284600F026F970BD014609
:10595000082901DA01207047102901DA8020FAE7CE
:10596000202901DAC020F6E74FF48070F3E770B524
:1059700088B006460D466A4620214FF43F6000F08D
:10598000CFF83046FFF7E3FF04460020287023E0FD
:10599000684600EBD400007804F007020121914032
:1059A0000840C0B92C70684600EBD400007804F0C1
:1059B0000702012191400843694601EBD4010870B8
:1059C000694601EBD4024FF43F6101EBD4000121A1
:1059D00000F0E2F802E0641CFF2CD9D900BF08B047
:1059E00070BD2DE9F84305460E4617461C4605EBEB
:1059F0008501090101F58061102202FB06110122D7
:105A000002FB07106A46012100F08AF82078FFF7B0
:105A10009EFF9DF80010884205D99DF80000FFF711
:105A2000FAFE002000909DF80000C0B92078694679
:105A3000FFF79DFF9DF8000010B91120BDE8F88325
:105A400005EB8501090101F58061102202FB0611B9
:105A5000012202FB07106A46012100F09DF89DF823
:105A60000000FFF74CFF80462146FFF766FF01204C
:105A7000E4E72DE9F84305460E4617461C4605EBBC
:105A80008501090101F58061102202FB0611012246
:105A900002FB07106A46012100F042F89DF8000061
:105AA00048B19DF80000FFF72AFF804622462021DA
:105AB00000F036F801E000202070BDE8F88370B5F2
:105AC00004460D4616466019B0F5004F02D8B4F5ED
:105AD000405F01D2112070BD32462946204600F0B9
:105AE0005BF808B91020F6E70120F4E770B504462A
:105AF0000D4616466019B0F5004F02D8B4F5405F68
:105B000001D2112070BD32462946204600F008F827
:105B100008B91020F6E70120F4E700000000244057
:105B20002DE9F04104460D46174628E0B4F5004F34
:105B300003D247F69C70854202D90020BDE8F0816F
:105B400004F03F00C0F14000A84204D204F03F003E
:105B5000C0F1400000E028460646F3B2A1B23A4642
:105B6000A020FBF70DFB00B90BE03444AD1B37441C
:105B70004FF0FF31A020FBF7EFFA00B901E0002D54
:105B8000D4D100BF0DB90120D8E70022114610463C
:105B9000FEF768F90020D1E72DE9F04104460D46F3
:105BA000174628E0B4F5004F03D247F69C708542B3
:105BB00002D90020BDE8F08104F03F00C0F14000B0
:105BC000A84204D204F03F00C0F1400000E02846A3
:105BD0000646F3B2A1B23A46A020FBF704FB00B997
:105BE0000BE03444AD1B37446FF07041A020FBF74D
:105BF000B3FA00B901E0002DD4D100BF0DB90120E6
:105C0000D8E7002211461046FEF72CF90020D1E714
:105C10002DE9F04104460D46174627E0B4F5004F44
:105C200003D247F69C70854202D90020BDE8F0817E
:105C300004F03F00C0F14000A84204D204F03F004D
:105C4000C0F1400000E028460646F3B2A1B23A4651
:105C5000A020FBF7F8FA00B90AE03444AD1B6FF05E
:105C60007041A020FBF778FA00B901E0002DD5D1F2
:105C700000BF0DB90120D9E7002211461046FEF7FA
:105C8000F1F80020D2E700001FB504467C4904F17A
:105C900009020868611DFFF7EDF900284DD0B4F83E
:105CA000030000900D20005B039020690190744870
:105CB000001D0068B0F1082F1FD1552071490870F0
:105CC00071480088402808D0802809D0B0F5807F2E
:105CD00009D0B0F5007F0CD108E06C4802900BE0D1
:105CE0006B48029008E06B48029005E06A48029019
:105CF00002E06648029000BF05E0AA2061490870F2
:105D00004FF008200290E07B6946FFF7BEF998B19A
:105D1000F120624908700720A0705948001F0088D0
:105D2000A4F8030056480168C4F8051055480178E6
:105D30006172022004B010BD00BF0E20FAE710B55A
:105D40000446FCF7E5F955480078F1280DD1E078D4
:105D50004C490978884206D1A278D21ED1B2A088D7
:105D6000A21DFFF7D9F9012010BD4C480078F22898
:105D700001D10120F8E70020484908700320F3E72B
:105D800070B506460C461546FCF7C2F94348007844
:105D9000F1280BD129462046FFF7F6F920B1F22071
:105DA0003E490870012070BD0020FCE73B480078A8
:105DB000F22801D10120F6E70020384908700320BD
:105DC000F1E710B5044635480078F2281FD1E07994
:105DD000217A4840E071207AE17948402072E079E8
:105DE000217A4840E0710722115BD4F80300FFF7E5
:105DF000F1F9012811D12248001FFFF73DFA60B1E7
:105E0000F32026490870FCF7ABF9012010BD2348A8
:105E10000078F32801D10120F8E700201F4908701D
:105E20001220F3E710B50446A078012801D00F2016
:105E300010BDE078512802DBE078562801DD0E2005
:105E4000F6E7FFF700FAE17888420CD0E078FFF738
:105E5000D0F908B91220EBE7114B4FF4487200213A
:105E60000846FEF7B4FE0120E2E770B506460C4690
:105E70001546FFF7E8F928700120207070BD00007A
:105E80000404000858000020E0F7FF1F0084000809
:105E900000C40008009801080028030857000020EB
:105EA000EB15000810B501F030F910BD10B501F088
:105EB0000DF910BD10B50446092C3AD2DFE804F004
:105EC00039050B11171D23293100994201DA0120F0
:105ED00010BD0020FCE7994201DC0120F8E700201A
:105EE000F6E7994201DD0120F2E70020F0E7994250
:105EF00001DB0120ECE70020EAE7994201D1012013
:105F0000E6E70020E4E7994201D00120E0E7002025
:105F1000DEE7994203DC9A4201DB0120D8E700204A
:105F2000D6E7994201DC9A4201DA0120D0E700204D
:105F3000CEE70020CCE70146092916D2DFE801F0C0
:105F400015090F0D0B0507111300062070470520DA
:105F5000FCE70420FAE70120F8E70220F6E7032037
:105F6000F4E70820F2E70720F0E70020EEE7034619
:105F7000092B1ED2DFE803F01D05060A0B1D1D0FBD
:105F8000160000BF0868401C086014E000BF0868E5
:105F9000401E08600FE00868401C08601068401E42
:105FA000106008E00868401C08601068401E10601F
:105FB00001E00020704700BF0120FBE72DE9FE4F04
:105FC00005460E4617469846002484E004EB44102C
:105FD0004549085C01287CD1012F79D14FF0000997
:105FE00004EB44100844007A010604EB44103E4AD6
:105FF0001044C07901EB004104EB44101044807957
:1060000001EB002004EB44111144497900EB010934
:1060100004EB4410114608448078A84257D104EBA1
:1060200044100844C078B04251D104EB44111144EB
:106030000879434600224946FFF73CFFE8B304EBEA
:10604000441029490844007B010604EB4410264A09
