:020000040800F2
:200000006802002095010008990100089B0100089D0100089F010008A1010008000000007A
:20002000000000000000000000000000A3010008A501000800000000A7010008A901000804
:20004000AB010008AB010008AB010008AB010008AB010008AB010008AB010008AB01000800
:20006000AB010008AB010008AB010008AB010008AB010008AB010008AB010008AB010008E0
:20008000AB010008AB010008AB010008AB010008AB010008AB010008AB010008AB010008C0
:2000A000AB010008AB010008AB010008AB010008AB010008AB010008AB010008AB010008A0
:2000C000AB010008AB010008AB010008AB010008AB010008AB010008AB010008AB01000880
:2000E000AB010008AB010008AB01000800F002F800F03CF80AA090E8000C82448344AAF180
:200100000107DA4501D100F031F8AFF2090EBAE80F0013F0010F18BFFB1A43F001031847CF
:200120005C0100007C010000103A24BF78C878C1FAD8520724BF30C830C144BF04680C606D
:20014000704700000023002400250026103A28BF78C1FBD8520728BF30C148BF0B607047BF
:200160001FB500F084F81FBD10B510BD00F043F81146FFF7F5FF00F030F800F061F803B44D
:20018000FFF7F2FF03BC00F06BF8000080F308887047000008480047FEE7FEE7FEE7FEE781
:2001A000FEE7FEE7FEE7FEE7FEE7FEE703480449024A044B70470000ED000008680000207A
:2001C000680200206800002070B5044625462868FFF7DCFF6868804770BD10B5034909688C
:2001E0008868FFF7F1FF002010BD000000000020704770477047754600F028F8AE46050033
:200200006946534620F00700854618B020B5FFF7CDFFBDE820404FF000064FF000074FF086
:2002200000084FF0000B21F00701AC46ACE8C009ACE8C009ACE8C009ACE8C0098D46704763
:200240000446AFF300802046FFF799FF004870470400002001487047704700BF080000207D
:2002600001491820ABBEFEE726000200704710B5FFF7F0FF4FF00001016010BD9C02000811
:20028000000000200400000028010008A0020008040000206402000044010008000400087C
:10030000409C000000000000020CDF0712380A00C9
:100310004645562D30312D4C61726B3733313800E4
:1004000030000000214E000000080008000000003D
:100420005300000000000000000000000000000079
:020000040800F2
:10080000402700206D0B0008750B0008770B0008CF
:10081000790B00087B0B00087D0B0008000000002E
:100820000000000000000000000000007F0B000836
:10083000810B000800000000830B0008B5200008B1
:10084000870B0008870B0008870B0008870B000840
:10085000870B0008870B0008870B0008870B000830
:10086000870B0008870B0008870B0008870B000820
:10087000870B0008870B0008870B0008870B000810
:10088000870B0008870B0008870B0008870B000800
:10089000870B0008870B0008870B0008870B0008F0
:1008A000870B0008870B0008870B0008870B0008E0
:1008B000870B0008870B0008870B0008870B0008D0
:1008C000870B0008870B0008870B0008870B0008C0
:1008D000870B0008870B000853250008870B0008CA
:1008E0008D1C0008870B0008870B000800F002F839
:1008F00000F03AF80AA090E8000C82448344AAF180
:100900000107DA4501D100F02FF8AFF2090EBAE87D
:100910000F0013F0010F18BFFB1A43F00103184733
:100920004077000060770000103A24BF78C878C193
:10093000FAD8520724BF30C830C144BF04680C60E5
:10094000704700000023002400250026103A28BF2D
:1009500078C1FBD8520728BF30C148BF0B60704731
:100960001FB51FBD10B510BD06F0C2FD1146FFF743
:10097000F7FF01F001FC06F0E0FD03B4FFF7F2FF22
:1009800003BC06F0E5FD00000CB5002001900090CE
:100990006C48006840F480306A49086000BF6948CC
:1009A000006800F4003000900198401C019000980D
:1009B00018B90198B0F5A06FF1D16248006800F451
:1009C000003010B10120009001E00020009000985C
:1009D000012843D15C48006840F010005A49086083
:1009E0000846006820F0030008600846006840F0F0
:1009F0000200086053484068524948600846406811
:100A000048600846406840F4806048600846406896
:100A100020F47C1048600846406840F4E8104860C4
:100A20000846006840F08070086000BF45480068D4
:100A300000F000700028F9D04248406820F0030020
:100A4000404948600846406840F00200486000BFE6
:100A50003C48406800F00C000828F9D10CBD10B5E6
:100A6000FFF792FF10BD10B53648006840F0010056
:100A700034490860084640683449084031494860B4
:100A800008460068324908402E4908600846006858
:100A900020F4802008600846406820F4FE0048608A
:100AA0004FF41F008860FFF7DAFF2A4800682A49E0
:100AB000086010BD10B5002100200022214B5B68AA
:100AC00003F00C0121B1042906D0082928D107E040
:100AD000224B234C236027E0204B214C236023E052
:100AE000184B5B6803F47010164B5B6803F480329C
:100AF000022303EB904022B91A4B4343184C236066
:100B00000DE0104B5B6803F4003323B1154B4343F6
:100B1000134C236003E0114B4343114C236003E06B
:100B20000E4B0F4C236000BF00BF064B5B68C3F346
:100B300003130D4CE15C0A4B1B68CB40084C23604F
:100B400010BD000000100240002002400000FFF82D
:100B5000FFFFF6FE0804000808ED00E000127A002E
:100B60000000002000093D000400002009488047E3
:100B700009480047FEE7FEE7FEE7FEE7FEE7FEE77F
:100B8000FEE7FEE7FEE7FEE704480549034A054B9A
:100B900070470000670A0008ED080008401B0020AD
:100BA00040270020401B002008B54021012000F014
:100BB0007EF9D0B91A4801680068401C184A1060D4
:100BC00029B9184B14220021022004F033F81448EC
:100BD0000068FA2811D114A000680090022004F0E7
:100BE00072FC684604F016FA07E00D48006820B170
:100BF00000F004F800200A49086008BD10B508227A
:100C00004021012000F00CF94021012000F036F9CC
:100C1000044B4FF4FA620021022004F00BF810BDDF
:100C200014000020A90B0008005A010079487A49F5
:100C300048607A48486070477748006940F0800013
:100C40007549086170477448C06800F0200020B101
:100C500020207149C860012070470020FCE7014650
:100C600000E0491E29B16C48C06800F0010000286E
:100C7000F7D109B9012070476748C06800F0140037
:100C800020B11420644AD0600120F4E70020F2E78C
:100C900070B505464FF40050FFF7E1FF0446B4B9C4
:100CA0005D48006940F002005B4908610846456103
:100CB000006940F0400008614FF40050FFF7CFFF9B
:100CC00004465548006920F002005349086114B9F0
:100CD000FFF7B9FF0446204670BD70B505460E46C5
:100CE0004FF44050FFF7BBFF04468CB94A480069F7
:100CF00040F00100484908612E804FF44050FFF752
:100D0000AEFF04464448006920F0010042490861F2
:100D10001CB9FFF798FF00B10124204670BD70B5E3
:100D200005460C4616464FF44050FFF798FFF0B9C1
:100D30003948006940F00100374908610EE0308809
:100D40002880B61CAD1CA41E4FF44050FFF787FF4F
:100D500018B9FFF778FF08B902E001E0002CEED1E6
:100D600000BF2D48006920F001002B4908610CB933
:100D7000012070BD0020FCE710B500244FF4405066
:100D8000FFF76DFFD8B9FFF751FF2348006940F026
:100D90002000214908610846006940F040000861D0
:100DA0004FF44050FFF75BFF18B9FFF74CFF00B15D
:100DB00001241948006920F02000174908612046E5
:100DC00010BD70B504460D4600264FF44050FFF7A5
:100DD00046FFE0B9FFF72AFF0F48006940F0100016
:100DE0000D4908610846006940F04000086125701F
:100DF0004FF44050FFF733FF18B9FFF724FF00B15D
:100E000001260548006920F02000034908613046AA
:100E100070BD00002301674500200240AB89EFCD83
:100E2000F0B503461446254D05EB8322244DAD69EC
:100E30009E1C0127B7403D43214EB56100201AE0BA
:100E400001F00105ADB1C50852F825504607F70E6F
:100E50000F26BE40B543C60842F82650C50852F8D2
:100E600025504607F60E04FA06F63543C60842F842
:100E700026504910401C0029E2DCF0BD02460B461A
:100E80000E4800EB8221C8681843C860C86880B269
:100E900070470A4B03EB8022D3688B43D3607047C3
:100EA000064B03EB8022D3684B40D3607047024669
:100EB000024800EB82239868084070470008014010
:100EC00000100240002107E0052101E04A1E91B216
:100ED0000029FBDC421E90B20028F5DC704710B5FB
:100EE000032211020120FFF79BFF4FF44071012004
:100EF000FFF7C4FF032280210120FFF791FF80212B
:100F00000120FFF7BBFF10BD10B54FF400710120A9
:100F1000FFF7B4FF4FF480710120FFF7AFFF02200D
:100F2000FFF7D0FF4FF400710120FFF7B2FF02205E
:100F3000FFF7C8FF4FF480710120FFF7AAFF10BD33
:100F400010B54FF400710120FFF7A3FF0220FFF757
:100F5000B9FF4FF480710120FFF790FF0220FFF7E7
:100F6000B1FF4FF400710120FFF788FF0220FFF767
:100F7000A9FF10BD10B504464FF480710120FFF7A2
:100F800088FF0220FFF79EFF2CB14FF40071012073
:100F9000FFF774FF04E04FF400710120FFF779FFC1
:100FA0000220FFF78FFF4FF480710120FFF766FFEB
:100FB0000220FFF787FF4FF480710120FFF769FFE0
:100FC00010BD10B50024082291010120FFF728FF71
:100FD0004FF400710120FFF751FF0220FFF772FF6D
:100FE0004FF480710120FFF749FF0220FFF76AFFED
:100FF00012E0601C80B20446B0F5FA7F0CDD0322DB
:101000004FF400710120FFF70BFF4FF40071012036
:10101000FFF734FF002010BD4FF400710120FFF7EF
:1010200046FF0028E5D14FF480710120FFF731FF22
:101030000220FFF747FF03224FF400710120FFF762
:10104000EFFE4FF400710120FFF718FF0220FFF7B9
:1010500039FF0120DFE770B504464FF480710120AD
:10106000FFF717FF0220FFF72DFF002524E004F013
:10107000800028B14FF400710120FFF7FFFE04E06B
:101080004FF400710120FFF704FF6006040E0220F8
:10109000FFF718FF4FF480710120FFF7EFFE0220E9
:1010A000FFF710FF4FF480710120FFF7F2FE0220DE
:1010B000FFF708FF681CC5B2082DD8DBFFF781FFDA
:1010C00070BD70B506460024082291010120FFF78B
:1010D000A7FE4FF400710120FFF7D0FE00251EE0AF
:1010E0004FF480710120FFF7D4FE0220FFF7EAFEE3
:1010F0004FF480710120FFF7C1FE0220FFF7E2FEEE
:101100006006040E4FF400710120FFF7D0FE08B115
:10111000601CC4B20220FFF7D5FE681CC5B2082DC2
:10112000DEDB4FF480710120FFF7B3FE0220FFF7F2
:10113000C9FE03224FF400710120FFF771FE4FF446
:1011400000710120FFF79AFE0220FFF7BBFE304638
:10115000FFF710FF204670BD70B505460C4600BF76
:10116000FFF7D2FE2846FFF776FF10B9601E040095
:10117000F6D1FFF7E5FE0CB1012070BD0020FCE7C1
:101180002DE9F04107460E4615461C46FFF7BCFE0A
:101190003846FFF760FFF0B13012FFF75CFFD0B1C7
:1011A000F0B2FFF758FFB0B1FFF7AEFE47F0010015
:1011B000FFF751FF78B106E00020FFF782FF05F846
:1011C000010B601EC4B2012CF6DC601EC4B201200B
:1011D000FFF777FF2870FFF7B3FE14B90120BDE8D1
:1011E000F0810020FBE72DE9F04107460D46164649
:1011F0001C4680210120FFF74CFEFFF785FE384694
:10120000FFF729FF98B12812FFF725FF78B1E8B260
:10121000FFF721FF58B107E016F8010BFFF71BFF9E
:1012200000B903E0601EC4B2002CF5DC00BFFFF77C
:1012300087FE80210120FFF721FE14B90120BDE8BF
:10124000F0810020FBE72DE9F04107460D461646E8
:101250001C4680210120FFF71CFEFFF755FE384693
:10126000FFF7F9FE90B12812FFF7F5FE70B1E8B272
:10127000FFF7F1FE50B106E03046FFF7ECFE00B993
:1012800003E0601EC4B2002CF6DC00BFFFF758FE7E
:1012900080210120FFF7F2FD14B90120BDE8F081A3
:1012A0000020FBE710B54FF480710020FFF7E6FD4A
:1012B00010BD10B54FF480710020FFF7EAFD0F4B11
:1012C00002220021084603F0B5FC10BD10B5022231
:1012D000D1010020FFF7A4FDAFF22903FA2210216B
:1012E000012003F0A7FC10BD10B5AFF23903642252
:1012F0001421012003F09EFC10BD0000A51200087F
:1013000070B505460C46FFF791FC03E0A4F5806438
:1013100005F580652846FFF7BBFC10B1B4F5806F7A
:10132000F4D8FFF789FCB4F5806F01D8012070BDB7
:101330000020FCE72DE9F04106460C46174604F074
:10134000010000B1641CFFF771FC3A4621463046AB
:10135000FFF7E5FC0546FFF76FFC2846BDE8F08186
:10136000034604E018681060121D1B1D091F0029A8
:10137000F8D1012070474FF0FF30704708B10121CC
:1013800000E00021FE4A11707047FE487047FE4899
:101390000078704770B505460C464FF48051012027
:1013A000FFF777FD284600F001FD204600F0FEFC27
:1013B00006464FF480510120FFF760FD304670BDB6
:1013C00010B5F248006820F48060F04908600222FD
:1013D000C9140120FFF724FD0222D1020120FFF7EA
:1013E0001FFD042211020120FFF71AFD0422510201
:1013F0000020FFF715FD4FF480610120FFF73EFD4F
:101400004FF400610020FFF739FD00F0FAFC0420E2
:1014100000F04AFD10BD0120DD490870704710B58D
:1014200005218720FFF7B6FF02218E20FFF7B2FFCC
:1014300002218820FFF7AEFF00218820FFF7AAFFD6
:1014400013218520FFF7A6FF80218620FFF7A2FF4A
:1014500000210320FFF79EFF00210420FFF79AFFE1
:10146000CA48006840F48060C849086010BD10B5E3
:10147000C648006820F48060C449086000218E20BE
:10148000FFF788FF01218720FFF784FF00218520D7
:10149000FFF780FF00218620FFF77CFF002103205B
:1014A000FFF778FF00210420FFF774FF022002F00D
:1014B00001FD10BD10B50446B64A2146022002F0D7
:1014C00007FD10BD10B500212620FFF763FF04467D
:1014D000B1480078A04203DAAF480078201A02E051
:1014E000AD480078001B08284EDA6410AA4800783E
:1014F00004EB6000A84908700846C078401CC0B2E0
:10150000C870142860DD084600780A2803DB084606
:101510000078DC2803DD0420FFF7CCFF30E09E4894
:10152000007814309D49087008460178A720FFF71D
:1015300031FF9B480068F8B100F0B9FD984909688F
:10154000884205D200F0B3FD95490968081A04E005
:1015500000F0ADFD92490968401A9249884206D2CE
:101560000420FFF7A7FF00208D49086008E000F085
:101570009EFD8B49086003E000F099FD88490860F2
:1015800000208949086010BD83484078A04203DAF2
:1015900081484078201A02E07F484078001B3228BA
:1015A0000DDA7D488078401CC0B27B4988700428E1
:1015B0000ADD084604700020C870887004E0764890
:1015C000447000207449887077480068401C764950
:1015D0000860B0F5167F06D9002008600420FFF7E8
:1015E00069FF0020CFE70120CDE710B5FFF7E8FE47
:1015F0004FF480510120FFF741FC4FF400610120BE
:10160000FFF73CFC022002F055FC4FF40061012082
:10161000FFF73FFC322002F04DFC00210320FFF7D2
:10162000B9FE00210420FFF7B5FE80218720FFF7D7
:10163000B1FE022002F03EFC00218720FFF7AAFE47
:1016400000218520FFF7A6FE00218620FFF7A2FEDD
:1016500000210320FFF79EFE00210420FFF79AFEE1
:1016600079218920FFF796FE06218A20FFF792FE56
:10167000EA218B20FFF78EFEEA218C20FFF78AFEFD
:10168000FC218D20FFF786FE00218E20FFF782FED1
:10169000464801789C20FFF77DFE444841789D2014
:1016A000FFF778FE414881789E20FFF773FE3F48A0
:1016B000C1789F20FFF76EFE3C480179A020FFF71C
:1016C00069FE3A484179A120FFF764FE37488179E5
:1016D000A220FFF75FFE3548C179A320FFF75AFE2D
:1016E0003248017AA420FFF755FE3048417AA52000
:1016F000FFF750FE2D48817AAA20FFF74BFEAC2160
:10170000B020FFF747FE0021B220FFF743FE022181
:10171000B320FFF73FFE1021B420FFF73BFE282146
:10172000B520FFF737FE2D21B620FFF733FED42179
:10173000B720FFF72FFE0021B820FFF72BFE002176
:10174000B920FFF727FE4221BA20FFF723FE4521EB
:10175000BB20FFF71FFE5321BC20FFF71BFE5421C7
:10176000BD20FFF717FE4221BF20FFF713FE4521E2
:10177000C020FFF70FFE5321C120FFF70BFE17E03B
:101780001B00002060000020180000200004014021
:1017900019000020EB150008240000201A0000208A
:1017A0002C000020A068060028000020007B000814
:1017B0005421C220FFF7EEFDFF21C320FFF7EAFD11
:1017C000FF21C420FFF7E6FDFF21C520FFF7E2FD62
:1017D000FF21C620FFF7DEFDFE48C17AD820FFF7C3
:1017E000D9FDFC48017BE920FFF7D4FDF948417B96
:1017F000EE20FFF7CFFDF748817BEF20FFF7CAFD12
:10180000F448C17BF020FFF7C5FDF248017CF120D0
:10181000FFF7C0FDEF48417CF220FFF7BBFD03F06E
:101820001EFD04462146F520FFF7B4FDE948C17CC2
:10183000F620FFF7AFFDE748017DF720FFF7AAFD8F
:101840000021F320FFF7A6FD0021F420FFF7A2FD01
:101850000021F920FFF79EFD0021FA20FFF79AFDF5
:101860000721ED20FFF796FDDB480178A720FFF761
:1018700091FDDA4B4FF4C8720021032003F0DAF92E
:101880001E21FC20FFF786FD0C21FD20FFF782FDC5
:101890003221FE20FFF77EFD01220A21104600F0D2
:1018A00082FB022328220021184600F033FBCC489B
:1018B000006820F48060CA490860FFF7D8FDFFF790
:1018C000AEFDFFF7A8FD10BD10B503218820FFF77E
:1018D00061FD08218820FFF75DFD01218E20FFF7C3
:1018E00059FD10BD2DE9F04106460C4690460025F5
:1018F000FFF7BDFDFFF7E8FF2146BE20FFF74AFDD9
:101900001DE04FF4805503E0142002F0C7FA6D1E6D
:1019100000210320FFF73EFD00F0200008B9002D54
:10192000F2D1002707E016F8011BFF20FFF732FD78
:10193000601EC4B27F1C322F01D2002CF3D1002CC8
:10194000DFD109218720FFF725FD4FF4C87002F091
:10195000A5FA4FF4805506E0681E050003D1042067
:10196000FFF7A8FD08E000210320FFF713FD00F0BA
:10197000040008B9002DEFD100BFFFF778FDFFF795
:101980004EFDBDE8F0810EB596A207CA8DE80700AE
:1019900001231A460A21684600F0D2FC0EBD1FB58D
:1019A00093A30FCB8DE80F0001F02EFB02220D2137
:1019B000684600F0BEFD1FBD00B587B0182290A19B
:1019C00001A805F039FD0222172101A800F0B1FDA0
:1019D00007B000BD2DE9F04391B007464FF0000974
:1019E0004FF0010841E14846411C01F0FF0905287C
:1019F00006DD0520FFF75EFD0020874908703CE109
:101A000000210320FFF7C6FC044600210420FFF755
:101A1000C1FC054605F0800028B100212620FFF713
:101A2000B9FC7E49087004F0010018B100207A4921
:101A3000087022E104F0100000284CD0002607E0D6
:101A400000217F20FFF7A6FC01A98855701CC6B2B3
:101A5000322EF5DB9DF81D00F02828D1704904983E
:101A60004968884223D100F023FF00F04DFF012890
:101A70000ED16C4801780078401C6A4A107003202F
:101A800091FBF0F200FB1210B8B9FFF77CFF14E0F5
:101A9000FFF785FF644803F03FF9644803F03CF921
:101AA000322201A9384602F089FA804605E0322246
:101AB00001A9384602F082FA804657480078CD28BE
:101AC00003DD002054490870D7E0534800783230D5
:101AD0005149087000BF04F00200002878D0544833
:101AE0000078D0BB00214B20FFF754FC04461FE0D8
:101AF00000217F20FFF74EFC47490978322291FBF5
:101B0000F2F302FB131101AA50544348007832212A
:101B100090FBF1F201FB120001A90E5C3146384640
:101B200002F0BFFA80463C480078401C3A490870F1
:101B300039480078A042DBDB9DF81D00F3280BD16B
:101B4000374904984968884206D1FFF735FF0020DD
:101B50003849887201F0C2F97BE0FFE700214B2091
:101B6000FFF718FC044600202B4908700CE0002108
:101B70007F20FFF70FFC01A9274A127888542648D6
:101B80000078401C2449087023480078A042EEDB0E
:101B90009DF81D00B2280FD19DF81F00BB280BD166
:101BA00002F074FBDDF81610884205D11B4800785E
:101BB0009DF82010204A505402F068FBDDF8161002
:101BC00088423DD01C4890F85000401C1A4935E02E
:101BD0004BE00000007B00081A000020C51400083C
:101BE00000040140C9FDBCB6C7EBB3E4B5E7000093
:101BF000FD000A0101D5FDD4DAC9FDBCB600000024
:101C0000FD00140101C9FDBCB6B3C9B9A6A3ACD58A
:101C1000FDD4DAD6D8C6F4001C000020180000203D
:101C20000C1200201D0000208F280008992B0008AE
:101C30001B000020E40400206000002081F8500018
:101C4000224601A9384602F0B9F980464C4803F013
:101C500063F800204B490870B8F1000F04D100224E
:101C60000321022002F034F900BF4FF4806101200B
:101C7000FFF71DF900283FF4B6AE00BF41480078D9
:101C800008B9FFF7CCFB11B0BDE8F08310B53E48B2
:101C9000FFF7A0FE4FF480603C49086010BD10B50E
:101CA00004463B48008870B9082C00D3012400F09A
:101CB000FEF9384931F81410B0FBF1F201FB1200C3
:101CC000801C334908804FF400610020FFF7EFF8D3
:101CD000F0B92F480088401E80B22D49088070BBA3
:101CE0002D480088401C80B22B490880642808DDFC
:101CF00000200880294B4FF4C8720021032002F015
:101D000099FF00202249088025490880012010BD44
:101D100000201F4908802049088021480088401C75
:101D200080B21F490880B0F57A7F08DD0020088066
:101D30001A4B4FF4C8720021032002F07BFF0020F1
:101D4000E5E770B505460E461446164800780128AA
:101D500013D12046FFF7A3FF78B100223146284671
:101D6000FFF7C0FD00200F4908700F4BC82200216B
:101D7000084602F05FFF012070BD0020FCE7000074
:101D80008F2800081C000020F804002014040140E3
:101D900022000020167B000820000020C514000847
:101DA0001E00002019000020171400080146002220
:101DB00008E01046531C9AB24FF6FE73984201DBBE
:101DC000002070474348008800F002000028F0D04F
:101DD0004048001D0180002208E01046531C9AB2C2
:101DE0004FF6FE73984201DB0020EAE7394800888D
:101DF00000F001000028F0D03648001D0088C0B275
:101E0000DFE700B53448006940F48040324908619A
:101E10000846006920F4804008610846806940F067
:101E2000080088610846C06940F48040C8612B48BA
:101E30000068C0F313002949086008460068284973
:101E400008432649086025480830006840F460408F
:101E50002249083108601F48083800881D490839A0
:101E600008800846008840F4007008800846008812
:101E700040F4807008800846008840F00400088024
:101E80000846008808800846008840F0180008804E
:101E90000846008808800846008840F04000088016
:101EA000FF20FFF783FF00BD00F007000949083954
:101EB00009884FF6C7721140064A083A1180114648
:101EC000098841EAC00111801146098841F04001AA
:101ED000118070470838004000100240040C014097
:101EE0000000B0BB544A0A400243544B1A6070478A
:101EF0000146072323EA01021202504B1B1D1868FA
:101F00004FF6FF0318404E4B184310434B4B1B1D1D
:101F1000186070472DE9F0478046894614461D46F3
:101F20002046E11704EB9171C1F3870AE11704EB36
:101F300091718910A4EB8101CFB2042000EBC7009E
:101F4000C7B22846FFF7D4FFC5F1040008FA00F62F
:101F50000F20284100EA0900064306F00F06202C56
:101F600009DA384801680120A04001434FF0E02021
:101F7000C0F800110BE03348001D0068A4F12001F7
:101F800001228A4010434FF0E021C1F804012E489D
:101F900010F80A0006FA07F10843C1B22A4800F80F
:101FA0000A10BDE8F08770B504460B46CE1701EB6A
:101FB0009676C6F38700CE1701EB9676B610A1EBA6
:101FC0008606B606350E214B9B6943F001031F4E72
:101FD000B3614FEAB63353F820300F26AE40B34317
:101FE0001B4E46F82030334653F8203004FA05F6ED
:101FF0001E43174B43F82060164B1B6801268E408A
:102000003343144E336002F0010343B1114B0C33E0
:102010001B6801268E4033430E4E0C36336002F0AF
:10202000020343B10B4B08331E6801238B401E4350
:10203000084B08331E6070BD80FFFF1F08ED00E0F5
:102040000000FA0500E100E000E400E000100240BA
:10205000080001400004014010B5482000F012F8CB
:10206000FEF73DFFFFF7C1FA10BD014604480068C6
:10207000884202D00248006870470020FCE7000058
:10208000F0F7FF1F4FF0E021096921F004014FF044
:10209000E02211614FF47A714143C9085161002176
:1020A00091610321116100210B4A116070470A48B8
:1020B0000068704710B5084800680849B0FBF1F2A5
:1020C00001FB12000449086008460068401C0860D3
:1020D000086802F0B8FE10BD300000200084D71759
:1020E00010B5082211030220FEF79AFE4FF40041BA
:1020F0000220FEF7C3FE00200149086010BD000069
:102100003400002010B54AF6AA201A490860891444
:102110000020FEF7C5FE10BD70B505460C4645F221
:102120005550144908600846456084604AF6AA2064
:1021300008604CF6CC400860022289140020FEF7AB
:102140006FFEAFF23F034FF448720021022002F00D
:1021500071FD70BD10B5AFF2530002F0DDFD10BD92
:1021600010B50446042291020020FEF759FE01201A
:1021700010BD00000030004002F002FDFFF76CFFD0
:102180004FF4FA610520FFF7C7FF01F058FDFFF794
:102190009DF8FEF733FDFFF7A3FF00F00FF805E011
:1021A0000349044801F048FC02F01BFEF8E7000078
:1021B000180D0020F80400200220704710B50224FA
:1021C0000A49022003F0F6F90DE0601EC0B2044691
:1021D000074901EB0010006828B1084600EB041025
:1021E000016820468847002CEFD110BDC4000020B4
:1021F000207B000810B5002419E004EB44024D4B8D
:1022000003EB4202518804EB440213F81200082247
:10221000FEF706FE04EB4402464B03EB42025188F4
:1022200004EB440213F81200FEF728FE641C002C95
:10223000E3D010BD70B50124002516E0641E6D00CA
:1022400004EB44023B4B03EB4202518804EB440293
:1022500013F81200FEF72BFE04EB4401354A02EBA3
:1022600041018988884200D16D1C002CE6D12846A6
:1022700070BD10B50146012018E0421E1046012332
:1022800003FA02F20A408AB100EB4002294B03EB49
:102290004202928800EB4003264C04EB43035B8828
:1022A0005A4000EB400304EB43039A800028E4D13A
:1022B00010BD10B5FFF7BEFF1F490978884217D03F
:1022C0001E48007804280BDD1C480078962807DAA1
:1022D00000201A4908701848007840F0400010BDEE
:1022E000002016490870FFF7A5FF134908701EE08B
:1022F00011480078D8B111480078401CC0B20F498D
:102300000870C82190FBF1F201FB120038B10B48B4
:102310000078962190FBF1F201FB120038B996206B
:10232000064908700448007840F08000D7E7002094
:10233000D5E70000380000203E0000203F000020CC
:10234000F0B599B005460C4616461F46FD208DF89F
:10235000000000208DF801008DF803608DF80470F6
:10236000FF2C08D101208DF80200042269463B4869
:1023700001F01AFD0EE0A01CC0B28DF8020022464A
:1023800029460DF1050001F0C9FA621D694633487E
:1023900001F00AFD3248C078401C3149C870084637
:1023A000C078012808D108460079092801D000F03A
:1023B0002BFE00202A49087119B0F0BD00B589B084
:1023C000242228A1684605F037F802222121684618
:1023D00000F0AFF809B000BD1CB52BA103C9CDE9D1
:1023E000000101231A4608216846FFF7A9FF1CBD1A
:1023F00010B50446A4F141000F282BD2DFE800F00D
:1024000012262A2A162A2A2A2708281C22290E00E0
:10241000092013490871022048701CE0002010496F
:10242000087118E004200E49087114E005200C49D9
:102430000871FFF7D1FF0EE009200949087100F08B
:10244000B9FF08E00A200649087104E003E002E051
:1024500001E000E000BF00BF10BD0000D404002078
:102460004A000020FD001E0101BBB6D3ADCAB9D39E
:10247000C3B1B4B6E0B8A3D3EFD2F4CAB6B1F0B2E8
:10248000A5B1A8C6F7000000BDD3CAD5CAA7B0DC65
:1024900070B505460C463E48006940F400303C49A2
:1024A00008610846006920F4003008610846C069E8
:1024B00040F40030C8610B2204210020FEF7B0FC7C
:1024C000082211460020FEF7ABFC32486843400862
:1024D000B0FBF4F030490880081D008842F20C116E
:1024E00008432D49091D08800846008840F0200057
:1024F00008800223262201211846FFF70BFD70BD3C
:102500000246002100E0491C23480838008800F0FA
:10251000400018B944F620608142F4D344F62060AC
:10252000814204D21C48001F028001207047002015
:10253000FCE730B503460C46154603E013F8010BE3
:10254000FFF7DEFF2000A4F10101CCB2F6D101209B
:1025500030BD10B510480838008800F02000A8B140
:102560000D48001F0088FC2803D00C484078012843
:1025700006D10949091F0988C8B200F027FF05E004
:102580000549091F0988C8B2FFF732FF10BD0000D6
:102590000010024040420F0008440040EF040020B9
:1025A00010B55448C06840F400705249C8600846ED
:1025B000C06820F40070C8600846806940F400706C
:1025C0008861002202211046FEF72AFC4948406833
:1025D00020F44040474948600846406840F40040C5
:1025E0004860454800684549084043490860084636
:1025F000006808600846006820F480700860081DC4
:10260000006820F00200091D08600846006820F4F8
:10261000602008600846006840F4602008600846B2
:10262000006840F4801008600846006820F40060EC
:10263000086031482830006820F470002E492831A5
:10264000086008460068002008602B480C300068CD
:102650006FF30B0028490C3108600846006840F011
:10266000380008602448001D006840F0010022493D
:10267000091D08600846006840F00800086000BFB7
:102680001D48001D006800F008000028F8D11A4815
:10269000001D006840F004001749091D086000BFD4
:1026A0001548001D006800F004000028F8D110BD96
:1026B00011483030006820F01F000F4930310860A9
:1026C0000846006840F0010008600B48001D0068E3
:1026D00040F480000849091D086000BF0648001F3B
:1026E000006800F002000028F8D003484830006875
:1026F00080B270470010024004240140FFFFF00048
:102700002DE9F041FFF7D4FF04463F48008884429A
:1027100003DD3D480088201A02E03B480088001B8A
:10272000322805DD384804800020384908700EE062
:10273000354800884010344908800846008800EB7E
:102740006400088031480078401C304908702F48E8
:1027500000780A284BDD2C48008804F0D6FF054697
:1027600000222B4B04F0E4FF074604F0A1FF2649AA
:102770000880002409E0274830F81400224909881D
:10278000884200DA03E0601C84B20B2CF3D300BF54
:10279000002C1ADD601E1F4931F8100031F81410AA
:1027A000401A1C4931F81410174A1288511A01EBCB
:1027B0008101490091FBF0F0C4F10A0101EB8101B4
:1027C00000EB41001449487102E06420124948714D
:1027D000C4F10A0000EB041084B2E0B200F0C6F9C4
:1027E000AFF2E30002F098FA002008490870BDE853
:1027F000F08110B5FFF7D4FEAFF2FB0302220021F7
:10280000104602F017FA10BD4200002040000020E0
:10281000009DF73F427B00084A00002010B50822C7
:1028200091020220FEF7FCFA0822D1020220FEF7F4
:10283000F7FA4FF400510220FEF72BFB4FF48041D2
:102840000220FEF726FB022220210120FEF7E8FAF3
:1028500010BD10B520210120FEF71BFB10BD00B5F7
:1028600087B018223EA101A804F0E6FD00F0CCFBE1
:102870000222152101A8FFF75CFEAFF2290340F602
:10288000B8320021084602F0D5F907B000BD0EB5F8
:1028900039A207CA8DE8070001231A460A216846B3
:1028A000FFF74EFD012037498871002088700EBD6A
:1028B00010B500F029F8A8B920210120FEF7E9FAA7
:1028C0003148C07902281ED02F48407AC01E4FF4EC
:1028D0007A7100FB01F2AFF249030021084602F0D1
:1028E000A9F910E020210120FEF7C8FA2648407A15
:1028F000C01E4FF47A7100FB01F2AFF29D0300217C
:10290000084602F097F910BD10B54FF400510220AF
:10291000FEF7CDFA58B94FF480410220FEF7C7FA0E
:1029200028B90120194908701749C87115E000201D
:1029300016490870C820134948711548007860B9D5
:10294000012013490870AFF23F0002F0E5F9AFF241
:10295000F10002F0E1F9FFF7ABFF0C48007810BD81
:10296000FD00120101BCB4BDABBDF8C8EBD0DDC3A6
:10297000DFC4A3CABD000000C7EBBCA4BBEEC9E81E
:10298000B1B800004A000020E40400204400002008
:102990004500002010B5012077490870774800698C
:1029A00040F00200754908610846006920F0020005
:1029B00008610846C06940F00200C8610B2203218B
:1029C0000120FEF72DFA42F20F706D490880472072
:1029D000091F08806A481038008847F678010843C4
:1029E000674910390880081D008840F48850091D87
:1029F0000880812062492C39088010BD30B50B4613
:102A000000F0F00424B100F00F040CB1C82200E083
:102A1000642200F00F0404EB201102FB03F4B4FB6A
:102A2000F1F104114C43564D10352C8000F00F0489
:102A30004C43C4F34F042D1D2C8030BD10B55148BC
:102A4000007800F0800080B14E4801780078401C8A
:102A50004C4A10704C484078803081420FDD4A4823
:102A60004078401E1146087009E046480078401E34
:102A7000C0B244490870022801DA81200870414A36
:102A8000127802F07F01404A1078FFF7B7FF10BDBF
:102A900010B53E4802F08CF810BD3B480078132872
:102AA00003D131203849087002E0132036490870FC
:102AB000142035494870704710B50446334B7822CE
:102AC0000021022002F0B6F80B2C4CD2DFE804F013
:102AD00010072206324B4B4B4B4B420000BF1320DA
:102AE0002949087014204870294802F015F93BE084
:102AF0001320254908701420487008464078C0EB20
:102B000000100521C1EB0012214B0021022002F030
:102B100091F829E01E4802F02EF9174800781A496A
:102B2000087028204870194B3C220021022002F036
:102B300081F819E0154802F01EF964210E4800786A
:102B4000FFF75CFF134B4FF496720021084602F02A
:102B500071F809E00C4908780021FFF74FFF0B4896
:102B600002F0DAF800BF00BF00BF10BD02490870D4
:102B7000054908707047000048000020001002401E
:102B80002C04004049000020460000203D2A000897
:102B90009B2A0008912A000810B5FFF78AFB040061
:102BA00011D004F08100812803D100200C498871E4
:102BB00007E001200A4988700846C07808B900F08B
:102BC0000BF9FFF775FE10BD10B5FFF713FBAFF261
:102BD000370314220021022002F02CF810BD00005F
:102BE0004A00002010B54FF4E1314820FFF750FCB7
:102BF0004FF480626649674801F092F910BD00B554
:102C00008BB0282264A101A804F016FC01231A4607
:102C1000252101A8FFF794FB0BB000BD2DE9F04181
:102C200006460C4600BF04B975E000BF00BF204651
:102C300001F08CF9012800D16DE000BF0622604947
:102C4000204601F06BFA0546A56000BF204601F062
:102C50007DF9012800D15EE000BF062500BF2046B7
:102C600001F09DF9A84200D255E000BFA0682844B9
:102C7000801C6168B0FBF1F201FB12002168085C66
:102C8000C01C054400BF4F480078854200D942E08F
:102C900000BF00BF204601F082F9A84200D231E017
:102CA00000BF00BFA0682844801C6168B0FBF1F23F
:102CB00001FB12070623444A3946204601F05CFA1C
:102CC00000B91FE000BFAD1F00BF062231462046FD
:102CD00001F0A9F900B91EE000BF00BFAA1C3146EF
:102CE000204601F0A0F900B915E000BF00BFA81C04
:102CF00081B2304601F09AF800B10CE000BF2846DE
:102D0000BDE8F081A068801D6168B0FBF1F201FBB5
:102D10001200A06000BF0020F2E710B59AB0642155
:102D200001A804F0BBFB2948007900282DD11949DE
:102D300001A8FFF773FFC4B2BCB12448C078401E9D
:102D40002249C8700846C07848B90846C078401C77
:102D5000C8701F4801F0E0FF1E4801F0DDFF0222AD
:102D6000214601A8FFF7E5FB0FE01848C0780128CD
:102D70000BD11648C078401E1449C87000F00BFBF8
:102D80001248807908B9FFF793FD1AB010BD000012
:102D9000D4000020D4040020C9E8B1B8C0E0D0CDF0
:102DA000A3BA4945563031A3ACC9E8B1B8C3FBB3A7
:102DB000C6A3BAD3EFD2F4CAB6B1F0C6F70000008A
:102DC000587B0008407B00085E7B00084A0000201A
:102DD0005F2800085328000800B587B0FAA103C98E
:102DE000CDE90501FA48407914280BDA1422F9A13B
:102DF000684604F021FB01231A4614216846FFF7B8
:102E00009FFA14E0F848C079022810D0F048807981
:102E100068B1F6A207CA02AB07C301231A460A210A
:102E200002A8FFF78DFA0020E949887100BF01234D
:102E30001A46062105A8FFF783FA07B000BD10B5B2
:102E4000E94A0B214FF4B84002F05CFEE64B5A7998
:102E50001979D87800F09AFBE349887800F05CFB98
:102E6000FFF7BAFFFFF7B0FE0020D949487010BD48
:102E70001CB5E1A103C9CDE90001D548407802287D
:102E800016D10020D2494870D74A0B214FF4B840E0
:102E900002F038FED449887800F03EFBD24B5A79D4
:102EA0001979D87800F072FBFFF796FFFFF78CFED8
:102EB000C7480079072810D101231A46082168461F
:102EC000FFF73EFAC248037801220321104601F0C1
:102ED00091F902F032FAFFF7EBFC1CBD10B5C24AC3
:102EE0000B214FF4B84002F0F6FD10BD00B5BBB0A9
:102EF000E82101A804F0D2FA3C20BB494870052023
:102F0000C87008714871002088700120C8710F20B6
:102F10004872887800F000FBB34B5A791979D87859
:102F200000F034FBFFF7DAFF01AAE8214FF4C040BC
:102F300002F0D1FD3BB000BD10B50020B0490870D3
:102F4000FFF76CFCA84A0B214FF4B84002F0DAFD01
:102F5000A548C0780A2801DDFFF7C8FFFFF7D4FCB9
:102F6000012802D1FFF745FC02E0C82098494871CA
:102F70009D48807AB8B900209549487001209A4947
:102F80008872FFF7ABFFAFF2AF134FF4FA72002174
:102F9000084601F04FFE9B4B4FF47A720021084621
:102FA00001F048FE02E0012089494870012088496B
:102FB000887000200871FFF77BFC934B28220021CA
:102FC000022001F037FE914B32220021022001F055
:102FD00031FE8F4BC8220021022001F02BFE10BDD4
:102FE00010B5082210210020FDF71AFF0822202129
:102FF0000020FDF715FF10210020FDF74AFF2021DA
:103000000020FDF73BFF10BD08B582A000680090CE
:10301000022204216846FFF78CFA642000F04AFF80
:1030200008BD30B5BBB00546E82101A804F036FA6A
:10303000C5B101AAE8214FF4C04002F063FD0120B0
:103040000190012405E0002001A941F82400601C42
:10305000C4B2072CF7DB01208DF8EA009DF82200AE
:10306000ADF8200001AAE8214FF4C04002F033FD82
:103070003BB030BD30B5C3B0FF2567A103C9429155
:1030800041900D213DA804F009FA654903C9CDE935
:103090003B0101AAE8214FF4C04002F033FD054690
:1030A000002D0FD09DF8EA0018B19DF8EA00FF2826
:1030B00009D1FFF7C4FE9DF8EA00FF2802D10020E5
:1030C000FFF7AFFF7DE05748006820F48060554966
:1030D00008604F4801F04FFE4C4801F04CFE52484A
:1030E00001F049FE514801F046FEFFF78DFFBDF8A3
:1030F00020109DF8EA00C01C084480B2ADF8200002
:10310000BDF8200000128DF8ED00BDF82000C0B21F
:103110008DF8EE00022205213BA8FFF70AFA0024F1
:1031200033E0601101A951F8200004F01F020121D1
:1031300091400840D8B10DF12202115D04EB8402E8
:1031400046F2E80303EB82003BAA02F0DBFC7C21A1
:103150000DF12200005D3BAA11540DF12200005D2B
:10316000401CC1B202223BA8FFF7E3F90BE07C2030
:103170008DF8EC000DF12200005D401CC1B202226E
:103180003BA8FFF7D6F9601CC4B29DF8EA00401CCA
:10319000A042C6DC642000F08DFE0222052141A879
:1031A000FFF7C7F91A4801F003FD184801F000FDC8
:1031B0001D4801F0FDFC1B48006840F4806019497F
:1031C000086043B030BD0000C7EBD6B8CABE0000EF
:1031D0004A000020B5E7C1BFB9FDB5CDA3ACC7EB30
:1031E000BCB0CAB1B3E4B5E7E4040020C9E8B1B8A3
:1031F000D2D1BCA4BBEE0000CAB6B1F0B3C9B9A627
:1032000051000020C92B000809290008712E000870
:103210001B2D0008FD00011FFD000213010000002E
:10322000647B000800040140992B00085F28000817
:1032300070B5BAB006460D461446AFF2C7134FF448
:10324000FA720021084601F0F5FC6A46E8214FF4C5
:10325000C04002F057FC60115DF8200004F01F022E
:1032600001219140084361114DF82100BDF81C1067
:103270000DF11E00005D081A284480B2ADF81C0054
:103280000DF11E0005559DF8E600A04201DA8DF80B
:10329000E6400DF11E02115D04EB840246F2E803E4
:1032A00003EB8200324602F016FC6A46E8214FF436
:1032B000C04002F010FC3AB070BD30B5BBB004465F
:1032C000C4B901AAE8214FF4C04002F01BFC601110
:1032D00001A951F8200004F01F020121914008408B
:1032E00020B10120FFF79DFE3BB030BD0020FFF76D
:1032F00098FEF9E7AFF283234FF4FA7200210846F3
:1033000001F098FC01AAE8214FF4C04002F0FAFB5A
:10331000601101A951F8200004F01F020121914021
:103320000840A8B3601101A951F8200004F01F0261
:10333000012191408843611101AA42F82100BDF8A2
:1033400020100DF12200005D081A80B2ADF82000B7
:1033500000210DF1220001559DF8EA500EE06811A0
:1033600001A951F8200005F01F02012191400840F9
:1033700010B18DF8EA5003E0681EC5B2002DEEDCF6
:1033800000BF01AAE8214FF4C04002F0A4FBABE764
:10339000FFE70120A8E71CB543A103C9CDE900015F
:1033A000434840788DF80400022205216846FFF763
:1033B000C0F81CBD1CB53FA103C9CDE90001012324
:1033C0001A4608216846FEF7BBFF1CBD10B504462F
:1033D00001203A494870084601780078401C374A75
:1033E0001070901C4454801E0079012802D00328DC
:1033F0003BD10AE031480078032805DDFFF7CBFF19
:1034000000202E49487008702FE02C4800780528CD
:103410002ADD2B488078012807D02548C07902286A
:1034200003D02748407965280ADA2448C07924491E
:10343000087007200871002020494870087013E0C8
:103440001E48C07970B91A48C07958B901201C4982
:10345000887009200871FFF7BFFC002017494870E9
:10346000087001E0FFF797FF00BF00BF10BD00200C
:1034700014490870704710B51248007830B90C48EC
:10348000C079022802D001200E4908700848C0798E
:10349000022807D0AFF2290342F210720021084639
:1034A00001F0C8FB10BD0000FD0002103C00000050
:1034B000E4040020B2D9D7F7B3C9B9A6EF040020BD
:1034C0004A0000205100002010B5FFF789FDFFF7EA
:1034D00089FB10BD10B50446A078401EC1B201237F
:1034E0001A46E01CFEF72CFF012010BD38B504463B
:1034F00068A0006800904FF480626749674800F058
:103500000FFD01230222FF216846FEF719FF00206C
:103510006349C870012038BD1CB50446614903C920
:10352000CDE9000160488470807830B901231A46E3
:1035300004216846FEF704FF11E035208DF80200F3
:10354000594880783030C0B28DF803005D208DF886
:10355000040001231A4605216846FEF7F1FE1CBD52
:1035600010B50446E078052801DD0E2010BDE07896
:10357000FFF7D2FFFFF7B2FC0120F7E70346012077
:10358000087049488078107001207047FEB50446E5
:103590000D46164645A103C9CDE9010145A00068C5
:1035A00000904148C47005714671C0780A2806D160
:1035B00001231A46052101A8FEF7C2FE0BE03A4896
:1035C000C0783030C0B28DF8020001231A460421C1
:1035D0006846FEF7B5FE344800790A2809D1742000
:1035E0008DF8050001231A46052101A8FEF7A8FE63
:1035F0000EE074208DF801002B4800793030C0B205
:103600008DF8020001231A4604216846FEF798FE51
:10361000254840790A2809D173208DF80500012337
:103620001A46052101A8FEF78BFE0EE073208DF8E7
:1036300001001D4840793030C0B28DF802000123EE
:103640001A4604216846FEF77BFEFEBD10B504460F
:10365000E0780A2805DC20790A2802DC60790A284B
:1036600001DD0E2010BD62792179E078FFF78EFF31
:10367000FFF734FC0120F5E70346032008700A48F1
:10368000C0781070084800795070074840799070F1
:1036900001207047FD000102D4000020D404002066
:1036A0004A0000206C7B0008E40400205B76313087
:1036B0005D0000005B76305D10B50446FFF704FF47
:1036C000FFF73AFC10BD10B50446FFF70FFC10BD24
:1036D00010B50446A078132801D90F2010BDE27858
:1036E000A078801EC1B2201DFFF7A2FDF6E710B53D
:1036F0000446E078FFF7E1FD10BD034601200870A5
:103700006D48007810700120704710B50446E078CD
:10371000642801DD0E2010BDE07868494870FFF78D
:10372000DDFB0120F7E7034601200870634840787D
:1037300010700120704710B50446A078132801D9F5
:103740000F2010BDA078401EC1B20022E01CFFF780
:103750006FFDF6E770B5BAB006460C4615465648FA
:103760004079C82802D01B203AB070BD6A46E821D3
:103770004FF4C04002F0C6F99DF81E002070217879
:103780002A4646F2E80002F0BDF90120ECE710B548
:1037900088B0044648484079C82802D01B2008B0A9
:1037A00010BDA078012801D00F20F8E7E0780228AA
:1037B00001DD0E20F3E7E0784049C8710846C07982
:1037C00058B920223EA1684603F036FE01231A466E
:1037D00020216846FEF7B4FD00BF3848C0790128B3
:1037E0000BD11C223EA101A803F026FE01231A469C
:1037F0001A2101A8FEF7A4FD00BF3048C0790228B5
:103800000ED11C223DA101A803F016FE01231A4689
:103810001A2101A8FEF794FD3F4801F07DFA00BF90
:10382000FFF75CFBFFF723FE0120B8E703462248C1
:103830004079C82804D00120087010701B20704700
:10384000012008701D48C07910700120F7E710B5FD
:103850000446A078012801D00F2010BDE078174958
:103860004872FFF73BFBFFF723F80120F5E703461B
:10387000012008701148407A1070012070470346FB
:10388000012008700C484079652802DA0120107088
:1038900001E00020107001207047034601200870ED
:1038A00005484079652803DA03484079107001E043
:1038B00064201070012070474A000020E4040020BA
:1038C000B9A4D7F7C4A3CABDD2D1C9E8D6C3CEAA7A
:1038D000A3BAD3EFD2F4BACDB4A5C3FEBCA4BBEE59
:1038E000B9A4D7F7C4A3CABDD2D1C9E8D6C3CEAA5A
:1038F000A3BAB4A5C3FEBCA4BBEE0000B9A4D7F71D
:10390000C4A3CABDD2D1C9E8D6C3CEAAA3BACAB18C
:10391000CAB1BCA4BBEE00005F28000830B58842E5
:1039200009D003460C4604E014F8015B03F8015B80
:10393000521E002AF8D130BDF0B503468B420DD09F
:103940001D460C4608E015F8016B14F8017BBE42D9
:1039500001D00120F0BD521E002AF4D10020F9E769
:1039600010B5034602E003F8011B521E002AFAD1EB
:1039700010BD70B588420AD203460C4604E014F824
:10398000015B03F8015B521E002AF8D10DE088426A
:103990000BD983188C1806E0651E2C462E785D1E08
:1039A0002B462E70521E002AF6D170BDF0B505468A
:1039B0000C4616462F46314614E011F801CB3878F4
:1039C00084450DD1012200E0521CA24204D211F81C
:1039D00001CBB85C8445F7D0A24201D1881AF0BD72
:1039E0005B1E491C002BE8D10020F8E770B50446A7
:1039F00000260E70254610460AE010F8016B05F807
:103A0000016B0E78761C0E70067806B970BD5B1ED1
:103A1000002BF2D100260E7000BFF7E70146B1F18E
:103A2000883F01D10220704799480068884201D13F
:103A30000320F8E70020F6E770B505460C466078ED
:103A400010B1012826D115E02946601D00F038F993
:103A5000C0B2207000B920E0A078012802D18D48C2
:103A6000007A00E00120E070D4F81100FFF7D6FFE3
:103A7000207100BF22792178601DD4F80431984765
:103A800020B1E078401EC0B2E07010B1012060703B
:103A900003E000BF0020607000BF00BF70BD10B524
:103AA0007D497E48FFF7C8FF10BD0146881E0C28DF
:103AB0000FD2DFE800F0060E0E0A0E070E080E0BFE
:103AC0000E0C00BF00BF0320704700BF00BF0620E0
:103AD000FAE700BF00BF0020F6E7F8B504460D2660
:103AE00060786F4901EB0010C56800200090FEF778
:103AF00063FB6178884252DD00BFA1782868884264
:103B000042D12078022808D02078042805D02078D7
:103B1000072802D02078092820D1A868E0B1607871
:103B2000604901EBC000807918B9092601F005FC55
:103B300029E0601CA96888470646022E23D1286820
:103B4000CF2800D90126E07800909DF80020211DA3
:103B5000601DFFF70EFF16E00A2614E02078052806
:103B600005D020780B2802D020780D280AD1E868EB
:103B700030B1621D6946601CEB689847064602E05A
:103B80000B2600E00C2609E005F110002968054627
:103B90000068814202D22868FF28AED900BF9DF894
:103BA0000000401CE07026713046F8BD2DE9F84356
:103BB0000746884614461E4604F11103621C41461E
:103BC0003846009602F003FE0546012825D104F18F
:103BD0001100FFF782FF0546032D1ED0FDF784FB81
:103BE000607C022812D0607C05280FD0607C0728FA
:103BF00002D0607C0B2801D1012D07D0607C092800
:103C000002D0607C0D2808D1012D06D0607CFFF722
:103C10004CFF6074204602F017FCBDE8F8832DE9E4
:103C2000F04104460D461746A61D04F11B0332461B
:103C300029462046FFF7BAFF0120BDE8F08110B504
:103C40004FF480621849194800F06AF94FF4806215
:103C50001749124800F064F900201649487088702E
:103C6000AFF24500C1F8040100200B494870012063
:103C700088701148C1F80401104B03220021022072
:103C800000F0D8FF10BD0449C1F8040170470000DE
:103C9000580000200C120020200E002008050020F3
:103CA000207B0008C400002018050020F804002034
:103CB00018090020180D0020431D00089F3A000835
:103CC0002DE9F04106460C4600BF04B96AE000BF8A
:103CD00000BF204600F03AF9012800D162E000BFA1
:103CE00006225049204600F019FA0546A56000BF9B
:103CF000204600F02BF9012800D153E000BF1B251E
:103D000000BF204600F04BF9A84200D24AE000BFB5
:103D1000A0682844401E6168B0FBF1F201FB12006C
:103D20002168085C0830054400BFFF2D00D930E051
:103D300000BF00BF204600F032F9A84200D231E0B7
:103D400000BF00BFA0682844801F6168B0FBF1F28B
:103D500001FB12070623344A3946204600F00CFACC
:103D600000B916E000BF00BF2A463146204600F0E9
:103D70005AF900B916E000BF00BFA5F10C0081B2EE
:103D8000B01D00F053F800B10CE000BF2846BDE8BC
:103D9000F081A068801D6168B0FBF1F201FB1200A8
:103DA000A06000BF0020F2E72DE9F04105460E4675
:103DB000174600BF05B933E000BF00BF062219490E
:103DC000284600F0FBF800B92AE000BFB9B230463F
:103DD00000F02CF8044600BF3A463146284600F071
:103DE000EDF800B91CE000BF00BF2112284600F02A
:103DF00058F900B914E000BF00BFE1B2284600F056
:103E000050F900B90CE000BF00BF06220649284661
:103E100000F0D4F800B903E000BF0120BDE8F08154
:103E20000020FBE7447C00084A7C000870B503468C
:103E30000C460025002600210DE0585C80EA0502B2
:103E4000154810F8120080EA0605134830F81200F1
:103E50000612481C81B2A142EFDB46EA052070BD84
:103E6000F0B504460D46002600271612D7B20021F1
:103E70000DE0605C80EA0603074810F8130080EA52
:103E80000706054830F813000712481C81B2A94202
:103E9000EFDB47EA0620F0BD507C0008014604E055
:103EA0000A2000E0401E0028FCD10A00A1F1010117
:103EB000F6D1704710B5044605E0FEF723F940F24D
:103EC000E630FFF7EBFF2000A4F10104F5D110BDAF
:103ED00070B506460C46154626B1012E09D0022EB5
:103EE00012D109E0022001F0FBF90C4800F014FFA8
:103EF0000BE0FEF72FF908E02DB12B46052200213B
:103F0000084600F097FE00E000BF00BF24B1012C7E
:103F100002D0204601F027FB70BD0000B31200085C
:103F2000034600BF0BB90020704700BF19605A60FC
:103F30000020D86098600120F6E700BF00B9704704
:103F400000BF00218160C16000BFF8E70146D1E9F0
:103F50000202904201D1012070470020FCE7014697
:103F6000C868401C4A68B0FBF2F302FB13008A6881
:103F7000904201D1012070470020FCE70146D1E9C1
:103F80000202904204D9D1E90202801A401E704711
:103F9000D1E901021044CA68801A401EF7E70146C1
:103FA000D1E90220904205D24A68C86810448A6864
:103FB000801A7047D1E90220801AFAE72DE9F04112
:103FC00004460F46154600BF14B90020BDE8F08135
:103FD00000BF00BF2046FFF7D1FFA84201D200205A
:103FE000F4E700BFE1686068401AA84203D2E168C4
:103FF0006068401A00E028460646E2682168881892
:1040000032463946FFF78AFCAA1BB9192068FFF728
:1040100085FCE06828446168B0FBF1F201FB120006
:10402000E0600120D2E72DE9F04104460E46154636
:1040300000BF14B90020BDE8F08100BF00BF2046DA
:10404000FFF784FF012801D10020F4E700BF00BF83
:104050002046FFF7A4FFA84201D20020EBE700BFF3
:10406000D4E90101401AA84203D2D4E90101401A5F
:1040700000E028460746A268206881183A46304684
:10408000FFF74CFCEA1BF0192168FFF747FCA0681A
:1040900028446168B0FBF1F201FB1200A06001202E
:1040A000C9E770B504460D4600BF0CB9002070BDCD
:1040B00000BF00BF2046FFF752FF012801D10020BA
:1040C000F5E700BFE16820684554E068401C61687E
:1040D000B0FBF1F201FB1200E0600120E7E710B550
:1040E00003460C4600BF0BB9002010BD00BF00BF47
:1040F0001846FFF72BFF012801D10020F5E700BF8C
:1041000099681868405C20709868401C5968B0FB3A
:10411000F1F201FB120098600120E6E7F0B50346DA
:104120000C46154600BF0BB104B10DB90020F0BD1F
:1041300000BF9968002212E01868405CA65CB0429B
:1041400005D1501C0246A84202D1521E0AE00022AC
:10415000481C5E68B0FBF6F706FB17000146D868FE
:104160008842E9D100BF58680844801A5E68B0FBF5
:10417000F6F706FB1700DAE7F0B504460D4600BF78
:10418000206800B10AB90020F0BD00BF00210EE098
:1041900068186668B0FBF6F706FB17002668365C01
:1041A00012F8017BBE4201D00020EDE7491C994284
:1041B000EED30120E8E7000010B580222149224813
:1041C000FFF7AEFE10BD1CB5072269461E48FFF77B
:1041D0002AFF58B1DDF803309DF802209DF8011048
:1041E0009DF8000001F0F6FE01201CBDFFF7E4FF82
:1041F0000020FAE72DE9FC4105460C4616461F460D
:10420000124800EBC500807918B9C72C16DDDD2CEB
:1042100014DA8DF800508DF801408DF80260CDF869
:104220000370072269460848FFF7C8FEAFF269032A
:10423000C8220021032000F0FDFC01E001F07DF820
:10424000BDE8FC81380F0020280F0020C4000020AA
:1042500010B504464E48007808B1122010BD012068
:104260004B490870D4F803004A49086007200059F8
:104270004860E07A0872217B464841720D20015B5C
:104280004448418102F0F3FD0120E7E7414800681E
:10429000704703460D2008703E48006810603D4896
:1042A000406850603B48007A10723A48407A507239
:1042B0003848408950813648007810730120704793
:1042C00070B50446002532480078012801D012203C
:1042D00070BD02202E490870D4F803002D490860F3
:1042E000072000594860E07A0872217B2948417212
:1042F0000D20015B274841810120FDF73FF8FDF7C4
:1043000044F805462348007A421C00212846FFF75E
:1043100027FB0120DCE703460D2008701D480068DC
:1043200010601C48406850601A48007A10721948A2
:10433000407A5072174840895081154800781073B0
:104340000120704710B50446E078FF280FD11048CF
:10435000007802280BD10020FDF710F80E4BC82280
:104360000221012000F066FC0020094908700120AC
:1043700010BD01460020064A107001207047034618
:10438000012008700248007810700120704700007A
:104390005D0000206C1300208B6E000810B50446F1
:1043A00001F0B3F802F0BCFD01F088FDFFF704FF57
:1043B000002207210220FFF78BFD002000F090FF74
:1043C00010BD70B504460020087042F281700D786F
:1043D00050530878801C0870F74800680D785051D9
:1043E0000878001D0870F448001D00680D785051D1
:1043F0000878001D08704FF00060D0F800030D78B9
:1044000050510878001D0870EB4BF43B05E01D7817
:104410000E78701C087095555B1C18785A2802DCC1
:1044200018783028F3DA012070BD10B5034698786B
:1044300060B1E148001F0068B3F80340A04205D016
:10444000B3F803004FF6FF74A04212D100200870A9
:10445000D948001F00880C7810530878801C087019
:10446000D54800680C7810510878001D08700120AC
:1044700010BD1220FCE710B50446A078042801DC2A
:10448000A07808B90F2010BDD4F80300CB4908600C
:10449000042001F083F808B91020F4E70120F2E7C6
:1044A0000346C64800681060042008700120704769
:1044B0000346C2484068106004200870012070471D
:1044C00010B50446E078052801DCE07808B90F2033
:1044D00010BDE078B94908720831012001F05EF89A
:1044E00008B91020F4E70120F2E70346B348007A48
:1044F000107001200870704770B50546A87819281B
:1045000006DCA878052190FBF1F201FB120008B14E
:104510000F2070BDA878052190FBF1F0C6B20024F1
:104520000EE004EB8401E81C405C28B104EB84013C
:10453000E81C405C052801DD0E20EAE7601CC4B2DF
:10454000B442EEDB002410E004EB8400401CE91CC4
:104550000A5804EB8401E81C405C401E97490A316C
:1045600001EB80000260601CC4B2B442ECDB9349F2
:104570000A31142001F012F808B91020C9E701200F
:10458000C7E7F0B503460C460025D878FF2827D1A9
:1045900000202070002120E088480A3000EB8100D4
:1045A0000068C0B185480A3000EB81000068401CFB
:1045B00088B1481C05EB8506905580480A3000EB11
:1045C0008100066805EB8507501CC6512078401D08
:1045D0002070681CC5B2481CC1B20529DCDB13E0A1
:1045E000D87810B1D878052801DD0F20F0BDD87833
:1045F0001070D878401E714E0A3606EB80000068B5
:10460000C2F80100052020700120EFE710B5044634
:10461000E07808B1012000E00020684988771E3169
:10462000012000F0BBFF08B9102010BD0120FCE7FD
:1046300003466248807F012800D100E0002010700E
:1046400001200870704770B50446A078052801DC89
:10465000A07808B90F2070BDE078A8B901250EE058
:104660005749606841F83500084600EBC501042051
:1046700000F0B2FF08B91020EDE7681CC5B2FDF7E5
:104680009BFDA842ECDC14E0FDF796FDE178884242
:1046900001DC0E20DFE7E178494A606842F831002A
:1046A000E07802EBC001042000F096FF08B910206A
:1046B000D1E70120CFE72DE9F04104460D4616462B
:1046C000A078032801DCA07810B90F20BDE8F081A4
:1046D000E07890B901270020287009E0384850F8A8
:1046E0003700297870502878001D2870781CC7B2D0
:1046F000FDF762FDB842F1DC0DE0FDF75DFDE1780C
:10470000884201DC0E20E1E7E0782D4951F83000C5
:104710003060042028700120D8E770B50446A078E6
:10472000032801DCA07808B90F2070BDE078B8B983
:10473000012510E0A088224901EBC50188802048AE
:1047400000EBC500011D022000F046FF08B9102053
:10475000EBE7681CC5B2FDF72FFDA842EADC16E0C6
:10476000FDF72AFDE178884201DC0E20DDE7A08814
:10477000E178134A02EBC1018880E07802EBC000C7
:10478000011D022000F028FF08B91020CDE701200C
:10479000CBE72DE9F04104460D461646A0780328E4
:1047A00001DCA07810B90F20BDE8F081E078C8B92D
:1047B00001270020287010E0040400080C120020DB
:1047C000C4000020ED4800EBC700808829787052B3
:1047D0002878801C2870781CC7B2FDF7EDFCB84221
:1047E000F0DC0EE0FDF7E8FCE178884201DC0E2009
:1047F000DAE7E078E14901EBC000808830800220F0
:1048000028700120D0E770B50446A078022801DCAA
:10481000A07808B90F2070BDE078B8B9012510E084
:104820002079D64901EBC501C871D44800EBC50019
:10483000C11D012000F0D0FE08B91020EBE7681C74
:10484000C5B2FDF7B9FCA842EADC16E0FDF7B4FCFE
:10485000E178884201DC0E20DDE72079E178C74A63
:1048600002EBC101C871E07802EBC000C11D01205C
:1048700000F0B2FE08B91020CDE70120CBE72DE90A
:10488000F04104460D461646A078022801DCA078C7
:1048900010B90F20BDE8F081E07898B90127002019
:1048A00028700AE0B54800EBC700C0792978705439
:1048B0002878401C2870781CC7B2FDF77DFCB842F0
:1048C000F0DC0EE0FDF778FCE178884201DC0E2098
:1048D000E0E7E078A94901EBC000C0793070012021
:1048E00028700120D6E770B50446A078052801DCC1
:1048F000A07808B90F2070BDE078B8B9012510E0A4
:1049000020799E4901EBC50188719C4800EBC500E8
:10491000811D012000F060FE08B91020EBE7681C43
:10492000C5B2FDF749FCA842EADC16E0FDF744FCFD
:10493000E178884201DC0E20DDE72079E1788F4ABA
:1049400002EBC1018871E07802EBC000811D0120FB
:1049500000F042FE08B91020CDE70120CBE72DE999
:10496000F04104460D461646A078032802DD0F20CC
:10497000BDE8F081E07808B1A07898B9012700205F
:1049800028700AE07D4800EBC700807929787054D0
:104990002878401C2870781CC7B2FDF70DFCB8427F
:1049A000F0DC0EE0FDF708FCE178884201DC0E2027
:1049B000DEE7E078714901EBC000807930700120BA
:1049C00028700120D4E72DE9F04104460D46174632
:1049D000E178207901EB002086B26079822802DD3F
:1049E0000E20BDE8F081B6F5004F01DB1120F8E79D
:1049F00060793044B0F5004F02DD7042287001E06C
:104A00006079287029783A46304601F095F808B95F
:104A10001020E6E70120E4E710B50446A07810B9BD
:104A200000F06CFD08E0A078052805D1E178880049
:104A3000221D042101F0BCF8012010BD70B506460E
:104A40000C4615462946204600F09DFD012070BD0C
:104A500010B50446A078012801DD0F2010BDA07814
:104A6000012805D1E07818B9022000F02CFD1CE0E7
:104A7000A07818B9012000F026FD16E0FDF79CFB98
:104A8000E17888420FDDE07800F0D4FCE07800F0B7
:104A9000B6FCE07800F08BFCE07800F0EEFEE07809
:104AA00001F06AFC01E00E20D8E70120D6E770B5DE
:104AB0000446A07808B90F2070BDE078022804D021
:104AC00003280ED005281FD114E02079611D01F0C4
:104AD000BBFB0546012D02D1A0700220ECE7284661
:104AE000EAE76179207901F030FC012800D1E3E7A1
:104AF0001520E1E761792079A21D01F0D4FB01289E
:104B000000D1D9E71620D7E700BF00BF0E20D3E7BA
:104B100070B504460D461646E078012802D00428F8
:104B200014D109E06179207933462A4601F0D9FB96
:104B3000012800D170BD0AE06179207933462A4608
:104B400001F0E7FB08B10120F4E700E000BF00BF7F
:104B50001520EFE710B50446A07808B90F2010BD66
:104B6000E07818B9012001F031FB05E0E07801F0B0
:104B700003FC08B91720F2E70120F0E7C400002089
:104B80000020BC490860704730B503460C46194602
:104B90000AE00846491CB74D2D1D05EB0010C06802
:104BA000904201D1C8B230BDA142F2D30020FAE751
:104BB0007FB50546AF4A1288AE4B5B88D118AD4A27
:104BC00010882A46FFF7E0FF044694B3A9480088FE
:104BD000201A012824D9601EA64A121D02EB0011DA
:104BE00010226846FEF79AFEA24B1B88E31A1A01B0
:104BF000A04B1E881B1D03EB06111B1F1B885B1C93
:104C00009C4E361D06EB0310FEF7B3FE311F0A88DB
:104C1000091D01EB021010226946FEF77FFE00BF5E
:104C200094480088401C9349088008464088401EEC
:104C300048807FBD2DE9F0410746884615461E464F
:104C400000BF8C4800888B4949880844142802DB3F
:104C50000020BDE8F08100BF86480088854A528860
:104C6000811832460020FFF78FFF00BB814B5B8825
:104C70001A01804BB3F800C01B1D03EB0C111B1F66
:104C80001B885B1CDFF8ECC10CF1040C0CEB03106F
:104C9000FEF76FFE774804880088401C754908803D
:104CA00000217448001D00EB041001700CE0304638
:104CB000FFF77EFF6F4800886E4A5288811832469F
:104CC0000020FFF761FF441E6A48001D00EB04103E
:104CD00047706848001D00EB0410C6604FB905B965
:104CE0006D1C4FF0010800216248001D00EB04100C
:104CF00001706048001D00EB0410A0F802805D48C0
:104D0000001D00EB0410456000215A48001D00EB17
:104D10000410816001209CE770B505465548008865
:104D2000544A528881182A460020FFF72DFF044676
:104D300004B3504B1B884F4E768833441B1B1A011B
:104D40004C4B1B1D03EB0411631E4A4E361D06EB34
:104D50000310FEF70EFE301F0088A04205D2301F60
:104D60004088401E311F488004E042480088401EB1
:104D70004049088070BD7FB505463E4801882A46F7
:104D80000020FFF701FF044654B3601E394A121D8C
:104D900002EB001110226846FEF7C0FD354B1B8860
:104DA0001B1B1A01334B1B1D03EB0411631E314EF9
:104DB000361D06EB0310FEF7DCFD311F0988491E86
:104DC0008AB2311F0A80091D01EB021010226946C8
:104DD000FEF7A4FD301F4088401C311F488000BFF3
:104DE0007FBD70B5234C241D25E0207810B3E56805
:104DF00000202070607830B1012807D002280ED042
:104E0000032814D10DE00120207000BF6188481EE6
:104E1000608019B92846FFF77FFF09E000BFA84767
:104E200006E0A84710B92846FFF776FF00E000BF6C
:104E300000BF00BF10340F480188001D00EB0110B7
:104E4000A042D2D870BD01460A48001D0AE082681F
:104E5000521C826043689A4203D30022826001227E
:104E600002701030034A1388121D02EB03128242B3
:104E7000EDD87047B80F0020F0B585B00446A07893
:104E800000282ADDA778E51C21E0A878102802DD9B
:104E90000F2005B0F0BD02208DF80000A878C21CDC
:104EA00029460DF10100FEF739FD6846FEF715FEB3
:104EB0000646012E08D0BDF80100A4F80300667173
:104EC0000320A0700220E4E7A878C01C0544E01C81
:104ED0003844A842D9D80120DBE70F20D9E72DE9D3
:104EE000F043C1B080460C4616460020207098F86A
:104EF0000200002841DD98F8029001A800EB0905A6
:104F000001AF4A4608F103013846FEF707FD2EE0DF
:104F10000520287017F8010B687017F8010BA870AE
:104F20000020E8702846FEF7D8FD01281FD16978D7
:104F30002278501C2070B154A9782278501C20701F
:104F4000B154E878401EC1B2E9702278501C20703C
:104F5000B154EA7821788819691DFEF7DFFC2078C2
:104F6000E9780844207020785A2800DD03E001A881
:104F70004844B842CCD800BF48E0FDF71DF90746C9
:104F80003EE0404800EB0710C56800BF28790128C3
:104F90002BD18DF8007128788DF8010100208DF853
:104FA0000201E86808B32078C01C82190DF20311D1
:104FB00040A8EB689847012817D12178481C207039
:104FC000775429782278501C2070B1549DF8031131
:104FD0002278501C2070B15420789DF803110844A9
:104FE000207020785A2800DD09E005F110002968BA
:104FF00005460068814202D22868FF28C6D900BF52
:105000003800A7F10101CFB2BBD100BF012041B0F0
:10501000BDE8F08370B50446FDF7CEF80546A078EC
:10502000012801D00F2070BDE078A84201D30E20E6
:10503000F9E7E07888B9FDF7BFF805460AE06D1E8C
:10504000104800EB0510806820B10E4901EB0511F6
:1050500088688047002DF2D10BE0E078094901EB28
:105060000010806828B1E178064A02EB01118868D7
:105070008047054B3222C8210120FFF7DBFD0120CC
:10508000D1E70000207B0008B3120008034608683F
:10509000984202D81068984201D20020704701203F
:1050A000FCE72DE9F04106460D4606F0030010B17D
:1050B0000020BDE8F08180480088402808D0802882
:1050C00009D0B0F5807F09D0B0F5007F0CD108E0A1
:1050D0004FF4F8440AE04FF43C4407E04FF4C8347E
:1050E00004E04FF4483401E0002400BF00BFE8684A
:1050F0007043A04201D90020DBE770480670704978
:105100002868086068684860A8688860E868C860BF
:10511000002705E000206B4941F82700781CC7B242
:10512000402FF7D3664988682146FCF7E9F8C0E7C5
:105130002DE9F04104460D4617466148C068A0427B
:1051400001D3C82D01DDBDE8F08160095D4951F84A
:10515000200004F01F02012191400840F0B9584896
:1051600080685649097804FB01063A4629463046CC
:10517000FCF7E0F868B16009524951F8200004F0EA
:105180001F0201219140084361094E4A42F8210063
:1051900004E04D480078401C4B49087000BFD2E73E
:1051A00030B502460B4600210020107013E048097C
:1051B000444C54F8200001F01F050124AC4020406D
:1051C00040B923F8021B1078801C107010786428F6
:1051D00000DD04E0491C3A48C0688842E7D800BFB7
:1051E000107808B9012030BD0020FCE770B50546F5
:1051F0000C46A9B2324A9068FEF718FE201A84B213
:105200000CB9012070BD0020FCE738B505460095BB
:105210002E4C0BE0FCF7AFF82168884205D16A46B6
:1052200004212046FCF786F838BD241DB4F1082F70
:10523000F0D3234A102125482038FCF791F84FF489
:10524000806122482038FCF75BF81D4A10211F4876
:105250002038FCF76FF82846FFF7D7FFE4E710B5D2
:105260001A4C0FE0FCF787F82168884209D1241F07
:105270002068512802D32068562800D905E02078FC
:1052800010BD241DB4F1082FECD300BF5320F7E765
:1052900070B50446FFF7E3FF05464FF480612046F2
:1052A000FCF72EF8064A10212046FCF743F8284662
:1052B000FFF7ABFF70BD0000E0F7FF1F52000020BA
:1052C000FC1000200C1100205300002020040008D6
:1052D00010B5254B0122FF21002001F051F910BD2E
:1052E00070B5054620480570012D02D14FF47A743F
:1052F00000E005241D4B224600210846FFF79AFCDA
:1053000070BD00B5B3B000208DF8060002AA911E52
:1053100001A8FFF7E4FD8DF807009DF80600401C8A
:10532000C0B28DF806009DF806200DF1070300219C
:10533000084601F006F933B000BD10B5FCF7B7FE22
:105340004FF49671B0FBF1F201FB120000EB80000C
:1053500040F6C41101EB4004054B224600210846EB
:10536000FFF768FC10BD000054000020D152000877
:105370000353000810B5002220214FF43F6000F0D5
:1053800053FC10BD10B501240AE004EB84010901AF
:1053900001F580600022502100F046FC601CC4B280
:1053A000FCF70AFFA042F0DCFFF7E4FF10BD2DE997
:1053B000F05F8246504602F0A8F980460022F94B81
:1053C00002F0B6F9064600224FF0814302F0C8F819
:1053D000044602F06DF9834600220A2100F024FC05
:1053E000BDE8F09F10B5012404E02046FFF7DFFF81
:1053F000601CC4B2FCF7E0FEA042F6DC10BD10B5A4
:105400000446E94800EB0410406828B1E64800EB88
:10541000041041682046884710BD10B5002404E000
:105420002046FFF7ECFF601CC4B2FCF7C5FEA042AB
:10543000F6DC10BD10B504464FF0FF30DB4941F8F3
:105440003400002001EBC40188800120D74901EB22
:10545000C40188710020D54901EBC401C871D3494A
:1054600001EBC402210101F18000082100F0A0FB42
:1054700010BD10B5002404E02046FFF7DBFF601CE0
:10548000C4B2FCF799FEA042F6DC10BD10B54FF097
:10549000FF30C74908600020FCF7E7FDC4494860B9
:1054A000022008720020487214220021C0480A30ED
:1054B000FEF756FA0020BE4988770A461F21402091
:1054C00000F076FB10BD38B50446BAA00068009025
:1054D000FFF7DCFFFFF7CDFFFFF79FFFFFF782FF2E
:1054E000FFF750FF012000F071FE022C02D1684648
:1054F00000F0A4FC0120FFF7F3FE38BD10B5002238
:105500004021104600F090FB10BD10B5A84A1F21A5
:10551000402000F011FBA6494868FCF7A6FDC0B189
:10552000AFF21903322200210846FFF783FBA2489D
:105530000078401CC0B2A0490870032812DDAFF209
:105540003500FFF7E9FBFFF7D9FF0120FFF7BBFFAD
:1055500008E099480078002804DD0020964908708A
:10556000FCF72CFE10BD38B50446A0006A460421A5
:1055700000F0E2FA0098401C0090A0006A46042166
:1055800000F016FB38BD70B504460D464020207073
:1055900021782A46002000F0CFFA70BD70B505468C
:1055A0000C468349611A01F140002246294600F069
:1055B000FFFA70BD70B504460D4607E005EBC40266
:1055C000210101F18000082100F0B6FA2000A4F1C9
:1055D0000101CCB2F2D170BD70B505460C467348DE
:1055E000261AF1080901803106F0070288182246C0
:1055F000294600F0DDFA70BD2DE9F74F86B08946E7
:105600001446484602F081F8054600224FF08043D8
:1056100002F08EF882468B46069802F076F807462E
:105620000022604B02F084F8054600224FF08143CF
:1056300001F096FF52465B46CDE9000101F090FF74
:10564000CDE9020102F034F805AA0221049000F02D
:1056500073FA102C0CDA0120A040BDF81410084099
:1056600030B10120A040BDF814108143059107E03E
:10567000FF2C02D10020059002E009B0BDE8F08FB8
:10568000484602F042F8054600224FF0804302F0FF
:105690004FF882468B46069802F037F807460022FC
:1056A000404B02F045F8054600224FF0814301F0DF
:1056B00057FF52465B46CDE9000101F051FFCDE9AD
:1056C000020101F0F5FF05AA0221049000F070FA32
:1056D00000BFD2E72DE9F74F86B089461446484609
:1056E00002F013F8054600224FF0804302F020F844
:1056F00082468B46069802F008F807460022294B9E
:1057000002F016F8054600224FF0814301F028FF11
:1057100052465B46CDE9000101F022FFCDE90201CE
:1057200001F0C6FF05AA0221049000F005FA102C32
:1057300034DA0120A040BDF81410084070BB0120ED
:10574000A040BDF81410084380B20590484601F00F
:10575000DCFF054600224FF0804301F0E9FF82465E
:105760008B46069801F0D1FF074600220D4B01F051
:10577000DFFF054600224FF0814301F0F1FE524663
:105780005B46CDE9000101F0EBFECDE9020101F03D
:105790008FFF05AA0221049000F00AFA09B0BDE8C3
:1057A000F08F000000002440207B0008C40000208F
:1057B0000C12002000F80153550000202DE9F74F8E
:1057C00086B00C469146204601F09FFF0546002218
:1057D0004FF0804301F0ACFFCDE90201069801F0E3
:1057E00094FF07460022D34B01F0A2FF054600229A
:1057F0004FF0814301F0B4FECDE90001DDE9022361
:1058000001F0AEFE824601F053FF05AA022104908A
:1058100000F092F9012000FA09F0BDF814100840D8
:1058200018B1012009B0BDE8F08F0020FAE738B5C3
:1058300004462546E11704EB5171C91001F53F609C
:105840006A46012100F078F92046E11704EB517116
:10585000C910A4EBC102012191409DF800208A43A8
:1058600000922546E11704EB5171C91001F53F6024
:105870006A46012100F09CF938BD30B595B0054667
:1058800005EB8501090101F5806001AA502100F0B6
:1058900053F9002408E001A8005D18B101A9085DD2
:1058A000FFF7C5FF601CC4B2502CF4DB05EB85018B
:1058B000090101F580600022502100F0B5F915B012
:1058C00030BDF8B504460D46164604EB84010901C7
:1058D00001F58061102202FB0511012202FB061076
:1058E0006A46012100F028F99DF8000090B104EB10
:1058F0008401090101F58061102202FB05110122DA
:1059000002FB06100022012100F08EF99DF8000034
:10591000FFF78DFFF8BD01464FF44060802902DAA1
:1059200000EBC10014E000F58060A1F18002D1B26B
:10593000402902DA00EB01100AE000F58060A1F1D5
:105940004002D1B2402902DA00EB411000E000BF72
:10595000704770B505460C462078411C2246284603
:1059600000F026F970BD0146082901DA01207047D0
:10597000102901DA8020FAE7202901DAC020F6E7B1
:105980004FF48070F3E770B588B006460D466A465E
:1059900020214FF43F6000F0CFF83046FFF7E3FFDF
:1059A00004460020287023E0684600EBD40000780D
:1059B00004F00702012191400840C0B92C706846EC
:1059C00000EBD400007804F0070201219140084365
:1059D000694601EBD4010870694601EBD4024FF42B
:1059E0003F6101EBD400012100F0E2F802E0641C09
:1059F000FF2CD9D900BF08B070BD2DE9F84305468A
:105A00000E4617461C4605EB8501090101F580612C
:105A1000102202FB0611012202FB07106A46012137
:105A200000F08AF82078FFF79EFF9DF8001088426A
:105A300005D99DF80000FFF7FAFE002000909DF8C0
:105A40000000C0B920786946FFF79DFF9DF800006F
:105A500010B91120BDE8F88305EB8501090101F5B6
:105A60008061102202FB0611012202FB07106A4628
:105A7000012100F09DF89DF80000FFF74CFF8046E3
:105A80002146FFF766FF0120E4E72DE9F8430546CC
:105A90000E4617461C4605EB8501090101F580619C
:105AA000102202FB0611012202FB07106A460121A7
:105AB00000F042F89DF8000048B19DF80000FFF7A3
:105AC0002AFF80462246202100F036F801E000201F
:105AD0002070BDE8F88370B504460D46164660197F
:105AE000B0F5004F02D8B4F5405F01D2112070BD6F
:105AF00032462946204600F05BF808B91020F6E748
:105B00000120F4E770B504460D4616466019B0F55D
:105B1000004F02D8B4F5405F01D2112070BD32466B
:105B20002946204600F008F808B91020F6E70120C1
:105B3000F4E70000000024402DE9F04104460D4642
:105B4000174628E0B4F5004F03D247F69C70854213
:105B500002D90020BDE8F08104F03F00C0F1400010
:105B6000A84204D204F03F00C0F1400000E0284603
:105B70000646F3B2A1B23A46A020FBF701FB00B9FA
:105B80000BE03444AD1B37444FF0FF31A020FBF74E
:105B9000E3FA00B901E0002DD4D100BF0DB9012016
:105BA000D8E7002211461046FEF792F90020D1E70F
:105BB0002DE9F04104460D46174628E0B4F5004FA4
:105BC00003D247F69C70854202D90020BDE8F081DF
:105BD00004F03F00C0F14000A84204D204F03F00AE
:105BE000C0F1400000E028460646F3B2A1B23A46B2
:105BF000A020FBF7F8FA00B90BE03444AD1B3744A2
:105C00006FF07041A020FBF7A7FA00B901E0002D6A
:105C1000D4D100BF0DB90120D8E7002211461046AB
:105C2000FEF756F90020D1E72DE9F04104460D4674
:105C3000174627E0B4F5004F03D247F69C70854223
:105C400002D90020BDE8F08104F03F00C0F140001F
:105C5000A84204D204F03F00C0F1400000E0284612
:105C60000646F3B2A1B23A46A020FBF7ECFA00B91F
:105C70000AE03444AD1B6FF07041A020FBF76CFAD2
:105C800000B901E0002DD5D100BF0DB90120D9E741
:105C9000002211461046FEF71BF90020D2E7000053
:105CA0001FB504467C4904F109020868611DFFF72D
:105CB000EDF900284DD0B4F8030000900D20005BF2
:105CC0000390206901907448001D0068B0F1082F0E
:105CD0001FD155207149087071480088402808D0AC
:105CE000802809D0B0F5807F09D0B0F5007F0CD1B5
:105CF00008E06C4802900BE06B48029008E06B48AB
:105D0000029005E06A48029002E06648029000BFF7
:105D100005E0AA20614908704FF008200290E07B5E
:105D20006946FFF7BEF998B1F12062490870072073
:105D3000A0705948001F0088A4F803005648016865
:105D4000C4F80510554801786172022004B010BDF6
:105D500000BF0E20FAE710B50446FCF7D3F955480A
:105D60000078F1280DD1E0784C490978884206D1B5
:105D7000A278D21ED1B2A088A21DFFF7D9F90120C6
:105D800010BD4C480078F22801D10120F8E700202E
:105D9000484908700320F3E770B506460C461546DF
:105DA000FCF7B0F943480078F1280BD1294620468A
:105DB000FFF7F6F920B1F2203E490870012070BDCE
:105DC0000020FCE73B480078F22801D10120F6E7EB
:105DD0000020384908700320F1E710B50446354823
:105DE0000078F2281FD1E079217A4840E071207ACA
:105DF000E17948402072E079217A4840E071072239
:105E0000115BD4F80300FFF7F1F9012811D1224802
:105E1000001FFFF73DFA60B1F32026490870FCF738
:105E200099F9012010BD23480078F32801D1012001
:105E3000F8E700201F4908701220F3E710B5044668
:105E4000A078012801D00F2010BDE078512802DB96
:105E5000E078562801DD0E20F6E7FFF700FAE1783A
:105E600088420CD0E078FFF7D0F908B91220EBE7B0
:105E7000114B4FF4487200210846FEF7DBFE01206B
:105E8000E2E770B506460C461546FFF7E8F92870BC
:105E90000120207070BD000004040008570000209D
:105EA000E0F7FF1F0084000800C400080098010804
:105EB0000028030856000020EB15000810B501F07B
:105EC00052F910BD10B501F02FF910BD10B5044600
:105ED000092C3AD2DFE804F039050B11171D2329EC
:105EE0003100994201DA012010BD0020FCE79942FF
:105EF00001DC0120F8E70020F6E7994201DD0120EE
:105F0000F2E70020F0E7994201DB0120ECE70020F6
:105F1000EAE7994201D10120E6E70020E4E799424F
:105F200001D00120E0E70020DEE7994203DC9A423D
:105F300001DB0120D8E70020D6E7994201DC9A4234
:105F400001DA0120D0E70020CEE70020CCE70146AF
:105F5000092916D2DFE801F015090F0D0B0507110D
:105F60001300062070470520FCE70420FAE7012013
:105F7000F8E70220F6E70320F4E70820F2E707201D
:105F8000F0E70020EEE70346092B1ED2DFE803F01E
:105F90001D05060A0B1D1D0F160000BF0868401CDA
:105FA000086014E000BF0868401E08600FE0086841
:105FB000401C08601068401E106008E00868401C23
:105FC00008601068401E106001E00020704700BFAC
:105FD0000120FBE72DE9FE4F05460E461746984681
:105FE000002484E004EB44104549085C01287CD17E
:105FF000012F79D14FF0000904EB44100844007AD6
:10600000010604EB44103E4A1044C07901EB004104
:1060100004EB44101044807901EB002004EB4411A0
:106020001144497900EB010904EB4410114608447E
:106030008078A84257D104EB44100844C078B0429D
:1060400051D104EB441111440879434600224946DA
